{"contracts/KAUSToken.sol":{"KAUSToken":{"abi":[{"inputs":[],"stateMutability":"nonpayable","type":"constructor"},{"inputs":[],"name":"AccessControlBadConfirmation","type":"error"},{"inputs":[{"internalType":"address","name":"account","type":"address"},{"internalType":"bytes32","name":"neededRole","type":"bytes32"}],"name":"AccessControlUnauthorizedAccount","type":"error"},{"inputs":[{"internalType":"address","name":"spender","type":"address"},{"internalType":"uint256","name":"allowance","type":"uint256"},{"internalType":"uint256","name":"needed","type":"uint256"}],"name":"ERC20InsufficientAllowance","type":"error"},{"inputs":[{"internalType":"address","name":"sender","type":"address"},{"internalType":"uint256","name":"balance","type":"uint256"},{"internalType":"uint256","name":"needed","type":"uint256"}],"name":"ERC20InsufficientBalance","type":"error"},{"inputs":[{"internalType":"address","name":"approver","type":"address"}],"name":"ERC20InvalidApprover","type":"error"},{"inputs":[{"internalType":"address","name":"receiver","type":"address"}],"name":"ERC20InvalidReceiver","type":"error"},{"inputs":[{"internalType":"address","name":"sender","type":"address"}],"name":"ERC20InvalidSender","type":"error"},{"inputs":[{"internalType":"address","name":"spender","type":"address"}],"name":"ERC20InvalidSpender","type":"error"},{"inputs":[{"internalType":"address","name":"owner","type":"address"}],"name":"OwnableInvalidOwner","type":"error"},{"inputs":[{"internalType":"address","name":"account","type":"address"}],"name":"OwnableUnauthorizedAccount","type":"error"},{"inputs":[],"name":"ReentrancyGuardReentrantCall","type":"error"},{"anonymous":false,"inputs":[{"indexed":true,"internalType":"address","name":"owner","type":"address"},{"indexed":true,"internalType":"address","name":"spender","type":"address"},{"indexed":false,"internalType":"uint256","name":"value","type":"uint256"}],"name":"Approval","type":"event"},{"anonymous":false,"inputs":[{"indexed":true,"internalType":"address","name":"account","type":"address"},{"indexed":true,"internalType":"address","name":"granter","type":"address"}],"name":"GovernanceRoleGranted","type":"event"},{"anonymous":false,"inputs":[{"indexed":true,"internalType":"address","name":"account","type":"address"},{"indexed":true,"internalType":"address","name":"granter","type":"address"}],"name":"MinterRoleGranted","type":"event"},{"anonymous":false,"inputs":[{"indexed":true,"internalType":"address","name":"previousOwner","type":"address"},{"indexed":true,"internalType":"address","name":"newOwner","type":"address"}],"name":"OwnershipTransferred","type":"event"},{"anonymous":false,"inputs":[{"indexed":true,"internalType":"bytes32","name":"role","type":"bytes32"},{"indexed":true,"internalType":"bytes32","name":"previousAdminRole","type":"bytes32"},{"indexed":true,"internalType":"bytes32","name":"newAdminRole","type":"bytes32"}],"name":"RoleAdminChanged","type":"event"},{"anonymous":false,"inputs":[{"indexed":true,"internalType":"bytes32","name":"role","type":"bytes32"},{"indexed":true,"internalType":"address","name":"account","type":"address"},{"indexed":true,"internalType":"address","name":"sender","type":"address"}],"name":"RoleGranted","type":"event"},{"anonymous":false,"inputs":[{"indexed":true,"internalType":"bytes32","name":"role","type":"bytes32"},{"indexed":true,"internalType":"address","name":"account","type":"address"},{"indexed":true,"internalType":"address","name":"sender","type":"address"}],"name":"RoleRevoked","type":"event"},{"anonymous":false,"inputs":[{"indexed":true,"internalType":"address","name":"from","type":"address"},{"indexed":false,"internalType":"uint256","name":"amount","type":"uint256"},{"indexed":false,"internalType":"string","name":"reason","type":"string"}],"name":"TokensBurnedWithReason","type":"event"},{"anonymous":false,"inputs":[{"indexed":true,"internalType":"address","name":"to","type":"address"},{"indexed":false,"internalType":"uint256","name":"amount","type":"uint256"},{"indexed":false,"internalType":"string","name":"reason","type":"string"}],"name":"TokensMinted","type":"event"},{"anonymous":false,"inputs":[{"indexed":true,"internalType":"address","name":"from","type":"address"},{"indexed":true,"internalType":"address","name":"to","type":"address"},{"indexed":false,"internalType":"uint256","name":"value","type":"uint256"}],"name":"Transfer","type":"event"},{"inputs":[],"name":"DEFAULT_ADMIN_ROLE","outputs":[{"internalType":"bytes32","name":"","type":"bytes32"}],"stateMutability":"view","type":"function"},{"inputs":[],"name":"GOVERNANCE_ROLE","outputs":[{"internalType":"bytes32","name":"","type":"bytes32"}],"stateMutability":"view","type":"function"},{"inputs":[],"name":"MAX_MINT_PERCENT","outputs":[{"internalType":"uint256","name":"","type":"uint256"}],"stateMutability":"view","type":"function"},{"inputs":[],"name":"MAX_SUPPLY","outputs":[{"internalType":"uint256","name":"","type":"uint256"}],"stateMutability":"view","type":"function"},{"inputs":[],"name":"MINTER_ROLE","outputs":[{"internalType":"bytes32","name":"","type":"bytes32"}],"stateMutability":"view","type":"function"},{"inputs":[],"name":"MIN_MINT_INTERVAL","outputs":[{"internalType":"uint256","name":"","type":"uint256"}],"stateMutability":"view","type":"function"},{"inputs":[{"internalType":"address","name":"owner","type":"address"},{"internalType":"address","name":"spender","type":"address"}],"name":"allowance","outputs":[{"internalType":"uint256","name":"","type":"uint256"}],"stateMutability":"view","type":"function"},{"inputs":[{"internalType":"address","name":"spender","type":"address"},{"internalType":"uint256","name":"value","type":"uint256"}],"name":"approve","outputs":[{"internalType":"bool","name":"","type":"bool"}],"stateMutability":"nonpayable","type":"function"},{"inputs":[{"internalType":"address","name":"account","type":"address"}],"name":"balanceOf","outputs":[{"internalType":"uint256","name":"","type":"uint256"}],"stateMutability":"view","type":"function"},{"inputs":[{"internalType":"uint256","name":"value","type":"uint256"}],"name":"burn","outputs":[],"stateMutability":"nonpayable","type":"function"},{"inputs":[{"internalType":"address","name":"account","type":"address"},{"internalType":"uint256","name":"value","type":"uint256"}],"name":"burnFrom","outputs":[],"stateMutability":"nonpayable","type":"function"},{"inputs":[{"internalType":"address","name":"from","type":"address"},{"internalType":"uint256","name":"amount","type":"uint256"},{"internalType":"string","name":"reason","type":"string"}],"name":"burnFrom","outputs":[],"stateMutability":"nonpayable","type":"function"},{"inputs":[{"internalType":"uint256","name":"amount","type":"uint256"},{"internalType":"string","name":"reason","type":"string"}],"name":"burnWithReason","outputs":[],"stateMutability":"nonpayable","type":"function"},{"inputs":[],"name":"decimals","outputs":[{"internalType":"uint8","name":"","type":"uint8"}],"stateMutability":"view","type":"function"},{"inputs":[],"name":"getMaxMintableAmount","outputs":[{"internalType":"uint256","name":"","type":"uint256"}],"stateMutability":"view","type":"function"},{"inputs":[],"name":"getNextMintTime","outputs":[{"internalType":"uint256","name":"","type":"uint256"}],"stateMutability":"view","type":"function"},{"inputs":[{"internalType":"bytes32","name":"role","type":"bytes32"}],"name":"getRoleAdmin","outputs":[{"internalType":"bytes32","name":"","type":"bytes32"}],"stateMutability":"view","type":"function"},{"inputs":[],"name":"getTokenStats","outputs":[{"internalType":"uint256","name":"currentSupply","type":"uint256"},{"internalType":"uint256","name":"maxSupply","type":"uint256"},{"internalType":"uint256","name":"burned","type":"uint256"},{"internalType":"uint256","name":"circulatingSupply","type":"uint256"}],"stateMutability":"view","type":"function"},{"inputs":[{"internalType":"address","name":"account","type":"address"}],"name":"grantGovernanceRole","outputs":[],"stateMutability":"nonpayable","type":"function"},{"inputs":[{"internalType":"address","name":"account","type":"address"}],"name":"grantMinterRole","outputs":[],"stateMutability":"nonpayable","type":"function"},{"inputs":[{"internalType":"bytes32","name":"role","type":"bytes32"},{"internalType":"address","name":"account","type":"address"}],"name":"grantRole","outputs":[],"stateMutability":"nonpayable","type":"function"},{"inputs":[{"internalType":"bytes32","name":"role","type":"bytes32"},{"internalType":"address","name":"account","type":"address"}],"name":"hasRole","outputs":[{"internalType":"bool","name":"","type":"bool"}],"stateMutability":"view","type":"function"},{"inputs":[],"name":"lastMintTime","outputs":[{"internalType":"uint256","name":"","type":"uint256"}],"stateMutability":"view","type":"function"},{"inputs":[{"internalType":"address","name":"to","type":"address"},{"internalType":"uint256","name":"amount","type":"uint256"},{"internalType":"string","name":"reason","type":"string"}],"name":"mintByGovernance","outputs":[],"stateMutability":"nonpayable","type":"function"},{"inputs":[{"internalType":"address","name":"to","type":"address"},{"internalType":"uint256","name":"amount","type":"uint256"}],"name":"mintStakingReward","outputs":[],"stateMutability":"nonpayable","type":"function"},{"inputs":[],"name":"name","outputs":[{"internalType":"string","name":"","type":"string"}],"stateMutability":"view","type":"function"},{"inputs":[],"name":"owner","outputs":[{"internalType":"address","name":"","type":"address"}],"stateMutability":"view","type":"function"},{"inputs":[],"name":"renounceOwnership","outputs":[],"stateMutability":"nonpayable","type":"function"},{"inputs":[{"internalType":"bytes32","name":"role","type":"bytes32"},{"internalType":"address","name":"callerConfirmation","type":"address"}],"name":"renounceRole","outputs":[],"stateMutability":"nonpayable","type":"function"},{"inputs":[{"internalType":"bytes32","name":"role","type":"bytes32"},{"internalType":"address","name":"account","type":"address"}],"name":"revokeRole","outputs":[],"stateMutability":"nonpayable","type":"function"},{"inputs":[{"internalType":"bytes4","name":"interfaceId","type":"bytes4"}],"name":"supportsInterface","outputs":[{"internalType":"bool","name":"","type":"bool"}],"stateMutability":"view","type":"function"},{"inputs":[],"name":"symbol","outputs":[{"internalType":"string","name":"","type":"string"}],"stateMutability":"view","type":"function"},{"inputs":[],"name":"totalBurned","outputs":[{"internalType":"uint256","name":"","type":"uint256"}],"stateMutability":"view","type":"function"},{"inputs":[],"name":"totalSupply","outputs":[{"internalType":"uint256","name":"","type":"uint256"}],"stateMutability":"view","type":"function"},{"inputs":[{"internalType":"address","name":"to","type":"address"},{"internalType":"uint256","name":"value","type":"uint256"}],"name":"transfer","outputs":[{"internalType":"bool","name":"","type":"bool"}],"stateMutability":"nonpayable","type":"function"},{"inputs":[{"internalType":"address","name":"from","type":"address"},{"internalType":"address","name":"to","type":"address"},{"internalType":"uint256","name":"value","type":"uint256"}],"name":"transferFrom","outputs":[{"internalType":"bool","name":"","type":"bool"}],"stateMutability":"nonpayable","type":"function"},{"inputs":[{"internalType":"address","name":"newOwner","type":"address"}],"name":"transferOwnership","outputs":[],"stateMutability":"nonpayable","type":"function"}],"evm":{"bytecode":{"linkReferences":{},"object":"60806040523480156200001157600080fd5b50336040518060400160405280600981526020016825a0aaa99021b7b4b760b91b815250604051806040016040528060048152602001634b41555360e01b81525081600390816200006391906200045b565b5060046200007282826200045b565b5050506001600160a01b038116620000a557604051631e4fbdf760e01b8152600060048201526024015b60405180910390fd5b620000b08162000140565b506001600755620000ce336b204fce5e3e2502611000000062000192565b620000db600033620001d0565b50620001087f71840dc4906352362b0cdaf79870196c8e42acafade72d5d5a6d59291253ceb133620001d0565b50620001357f9f2df0fed2c77648de5860a4cc508cd0818c85b8b8a1ab4ceeef8d981c8956a633620001d0565b504260095562000549565b600580546001600160a01b038381166001600160a01b0319831681179093556040519116919082907f8be0079c531659141344cd1fd0a4f28419497f9722a3daafe3b4186f6b6457e090600090a35050565b6001600160a01b038216620001be5760405163ec442f0560e01b8152600060048201526024016200009c565b620001cc6000838362000283565b5050565b60008281526006602090815260408083206001600160a01b038516845290915281205460ff16620002795760008381526006602090815260408083206001600160a01b03861684529091529020805460ff19166001179055620002303390565b6001600160a01b0316826001600160a01b0316847f2f8788117e7eff1d82e926ec794901d17c78024a50270940304540a733656f0d60405160405180910390a45060016200027d565b5060005b92915050565b6001600160a01b038316620002b2578060026000828254620002a6919062000527565b90915550620003269050565b6001600160a01b03831660009081526020819052604090205481811015620003075760405163391434e360e21b81526001600160a01b038516600482015260248101829052604481018390526064016200009c565b6001600160a01b03841660009081526020819052604090209082900390555b6001600160a01b038216620003445760028054829003905562000363565b6001600160a01b03821660009081526020819052604090208054820190555b816001600160a01b0316836001600160a01b03167fddf252ad1be2c89b69c2b068fc378daa952ba7f163c4a11628f55a4df523b3ef83604051620003a991815260200190565b60405180910390a3505050565b634e487b7160e01b600052604160045260246000fd5b600181811c90821680620003e157607f821691505b6020821081036200040257634e487b7160e01b600052602260045260246000fd5b50919050565b601f8211156200045657600081815260208120601f850160051c81016020861015620004315750805b601f850160051c820191505b8181101562000452578281556001016200043d565b5050505b505050565b81516001600160401b03811115620004775762000477620003b6565b6200048f81620004888454620003cc565b8462000408565b602080601f831160018114620004c75760008415620004ae5750858301515b600019600386901b1c1916600185901b17855562000452565b600085815260208120601f198616915b82811015620004f857888601518255948401946001909101908401620004d7565b5085821015620005175787850151600019600388901b60f8161c191681555b5050505050600190811b01905550565b808201808211156200027d57634e487b7160e01b600052601160045260246000fd5b6117ff80620005596000396000f3fe608060405234801561001057600080fd5b50600436106102275760003560e01c806370a0823111610130578063a9059cbb116100b8578063d547741f1161007c578063d547741f146104a6578063d89135cd146104b9578063dd62ed3e146104c2578063f2fde38b146104fb578063f36c8f5c1461050e57600080fd5b8063a9059cbb14610447578063a9f8ad041461045a578063ae88e67614610464578063be146adc14610477578063d53913931461047f57600080fd5b806391d14854116100ff57806391d148541461040857806395d89b411461041b578063979430d2146104235780639d46352014610436578063a217fddf1461043f57600080fd5b806370a08231146103a9578063715018a6146103d257806379cc6790146103da5780638da5cb5b146103ed57600080fd5b8063248a9ca3116101b357806332cb6b0c1161018257806332cb6b0c1461034a57806336568abe1461035d5780633dd1eb611461037057806342966c6814610383578063603607001461039657600080fd5b8063248a9ca3146102fd5780632ac234c0146103205780632f2ff15d14610328578063313ce5671461033b57600080fd5b8063095ea7b3116101fa578063095ea7b314610294578063097cd9bf146102a757806318160ddd146102cf5780631bd2a15d146102d757806323b872dd146102ea57600080fd5b806301ffc9a71461022c578063021074821461025457806306fdde031461026a578063091273a71461027f575b600080fd5b61023f61023a3660046113a2565b610523565b60405190151581526020015b60405180910390f35b61025c610534565b60405190815260200161024b565b6102726105b2565b60405161024b9190611419565b61029261028d3660046114cf565b610644565b005b61023f6102a2366004611532565b6106ef565b6102af610707565b60408051948552602085019390935291830152606082015260800161024b565b60025461025c565b6102926102e5366004611532565b610752565b61023f6102f836600461155c565b6108e0565b61025c61030b366004611598565b60009081526006602052604090206001015490565b61025c600581565b6102926103363660046115b1565b610904565b6040516012815260200161024b565b61025c6ba18f07d736b90be55000000081565b61029261036b3660046115b1565b61092f565b61029261037e3660046115dd565b610962565b610292610391366004611598565b6109d1565b6102926103a43660046115dd565b6109de565b61025c6103b73660046115dd565b6001600160a01b031660009081526020819052604090205490565b610292610a3b565b6102926103e8366004611532565b610a4f565b6005546040516001600160a01b03909116815260200161024b565b61023f6104163660046115b1565b610a68565b610272610a93565b6102926104313660046115f8565b610aa2565b61025c60095481565b61025c600081565b61023f610455366004611532565b610b67565b61025c62278d0081565b6102926104723660046115f8565b610b75565b61025c610db8565b61025c7f9f2df0fed2c77648de5860a4cc508cd0818c85b8b8a1ab4ceeef8d981c8956a681565b6102926104b43660046115b1565b610dd0565b61025c60085481565b61025c6104d036600461164f565b6001600160a01b03918216600090815260016020908152604080832093909416825291909152205490565b6102926105093660046115dd565b610df5565b61025c6000805160206117aa83398151915281565b600061052e82610e30565b92915050565b600062278d00600954610547919061168f565b4210156105545750600090565b60006064600561056360025490565b61056d91906116a2565b61057791906116b9565b9050600061058460025490565b61059a906ba18f07d736b90be5500000006116db565b90508082106105a957806105ab565b815b9250505090565b6060600380546105c1906116ee565b80601f01602080910402602001604051908101604052809291908181526020018280546105ed906116ee565b801561063a5780601f1061060f5761010080835404028352916020019161063a565b820191906000526020600020905b81548152906001019060200180831161061d57829003601f168201915b5050505050905090565b6000821161066d5760405162461bcd60e51b815260040161066490611728565b60405180910390fd5b600081511161068e5760405162461bcd60e51b81526004016106649061175f565b6106983383610e65565b81600860008282546106aa919061168f565b909155505060405133907ff89cc44bd84d34274f4d7224b51ac205d2978d1923e02ee5d7da18cdb5049218906106e39085908590611788565b60405180910390a25050565b6000336106fd818585610e9b565b5060019392505050565b60008060008061071660025490565b600854306000908152602081905260409020546002546ba18f07d736b90be5500000009291610744916116db565b935093509350935090919293565b7f9f2df0fed2c77648de5860a4cc508cd0818c85b8b8a1ab4ceeef8d981c8956a661077c81610ea8565b610784610eb2565b6001600160a01b0383166107da5760405162461bcd60e51b815260206004820152601b60248201527f43616e6e6f74206d696e7420746f207a65726f206164647265737300000000006044820152606401610664565b600082116107fa5760405162461bcd60e51b815260040161066490611728565b6ba18f07d736b90be5500000008261081160025490565b61081b919061168f565b111561085e5760405162461bcd60e51b815260206004820152601260248201527145786365656473206d617820737570706c7960701b6044820152606401610664565b6108688383610edc565b826001600160a01b03167f9d89e36eadf856db0ad9ffb5a569e07f95634dddd9501141ecf04820484ad0dc836040516108c9918152604060208201819052600e908201526d14dd185ada5b99c814995dd85c9960921b606082015260800190565b60405180910390a26108db6001600755565b505050565b6000336108ee858285610f12565b6108f9858585610f8b565b506001949350505050565b60008281526006602052604090206001015461091f81610ea8565b6109298383610fea565b50505050565b6001600160a01b03811633146109585760405163334bd91960e11b815260040160405180910390fd5b6108db828261107e565b600061096d81610ea8565b6109977f9f2df0fed2c77648de5860a4cc508cd0818c85b8b8a1ab4ceeef8d981c8956a683610904565b60405133906001600160a01b038416907f0be6ab9784c7401fafb73f7bc47bc67cc4ef8c47a60ad3cb66d1de0353a0784c90600090a35050565b6109db3382610e65565b50565b60006109e981610ea8565b610a016000805160206117aa83398151915283610904565b60405133906001600160a01b038416907fe8d7fb8b3dcd7602e4f824b66e665ba6747755bb5d43679d13f119f124f1777390600090a35050565b610a436110eb565b610a4d6000611118565b565b610a5a823383610f12565b610a648282610e65565b5050565b60009182526006602090815260408084206001600160a01b0393909316845291905290205460ff1690565b6060600480546105c1906116ee565b6000805160206117aa833981519152610aba81610ea8565b60008311610ada5760405162461bcd60e51b815260040161066490611728565b6000825111610afb5760405162461bcd60e51b81526004016106649061175f565b610b058484610e65565b8260086000828254610b17919061168f565b92505081905550836001600160a01b03167ff89cc44bd84d34274f4d7224b51ac205d2978d1923e02ee5d7da18cdb50492188484604051610b59929190611788565b60405180910390a250505050565b6000336106fd818585610f8b565b6000805160206117aa833981519152610b8d81610ea8565b610b95610eb2565b6001600160a01b038416610beb5760405162461bcd60e51b815260206004820152601b60248201527f43616e6e6f74206d696e7420746f207a65726f206164647265737300000000006044820152606401610664565b60008311610c0b5760405162461bcd60e51b815260040161066490611728565b6000825111610c2c5760405162461bcd60e51b81526004016106649061175f565b6ba18f07d736b90be55000000083610c4360025490565b610c4d919061168f565b1115610c905760405162461bcd60e51b815260206004820152601260248201527145786365656473206d617820737570706c7960701b6044820152606401610664565b62278d00600954610ca1919061168f565b421015610ce75760405162461bcd60e51b8152602060048201526014602482015273135a5b9d1a5b99c81d1bdbc8199c995c5d595b9d60621b6044820152606401610664565b600060646005610cf660025490565b610d0091906116a2565b610d0a91906116b9565b905080841115610d5c5760405162461bcd60e51b815260206004820152601b60248201527f45786365656473206d6178206d696e742070657220706572696f6400000000006044820152606401610664565b42600955610d6a8585610edc565b846001600160a01b03167f9d89e36eadf856db0ad9ffb5a569e07f95634dddd9501141ecf04820484ad0dc8585604051610da5929190611788565b60405180910390a2506109296001600755565b600062278d00600954610dcb919061168f565b905090565b600082815260066020526040902060010154610deb81610ea8565b610929838361107e565b610dfd6110eb565b6001600160a01b038116610e2757604051631e4fbdf760e01b815260006004820152602401610664565b6109db81611118565b60006001600160e01b03198216637965db0b60e01b148061052e57506301ffc9a760e01b6001600160e01b031983161461052e565b6001600160a01b038216610e8f57604051634b637e8f60e11b815260006004820152602401610664565b610a648260008361116a565b6108db8383836001611294565b6109db8133611369565b600260075403610ed557604051633ee5aeb560e01b815260040160405180910390fd5b6002600755565b6001600160a01b038216610f065760405163ec442f0560e01b815260006004820152602401610664565b610a646000838361116a565b6001600160a01b038381166000908152600160209081526040808320938616835292905220546000198110156109295781811015610f7c57604051637dc7a0d960e11b81526001600160a01b03841660048201526024810182905260448101839052606401610664565b61092984848484036000611294565b6001600160a01b038316610fb557604051634b637e8f60e11b815260006004820152602401610664565b6001600160a01b038216610fdf5760405163ec442f0560e01b815260006004820152602401610664565b6108db83838361116a565b6000610ff68383610a68565b6110765760008381526006602090815260408083206001600160a01b03861684529091529020805460ff1916600117905561102e3390565b6001600160a01b0316826001600160a01b0316847f2f8788117e7eff1d82e926ec794901d17c78024a50270940304540a733656f0d60405160405180910390a450600161052e565b50600061052e565b600061108a8383610a68565b156110765760008381526006602090815260408083206001600160a01b0386168085529252808320805460ff1916905551339286917ff6391f5c32d9c69d2a47ea670b442974b53935d1edc7fd64eb21e047a839171b9190a450600161052e565b6005546001600160a01b03163314610a4d5760405163118cdaa760e01b8152336004820152602401610664565b600580546001600160a01b038381166001600160a01b0319831681179093556040519116919082907f8be0079c531659141344cd1fd0a4f28419497f9722a3daafe3b4186f6b6457e090600090a35050565b6001600160a01b03831661119557806002600082825461118a919061168f565b909155506112079050565b6001600160a01b038316600090815260208190526040902054818110156111e85760405163391434e360e21b81526001600160a01b03851660048201526024810182905260448101839052606401610664565b6001600160a01b03841660009081526020819052604090209082900390555b6001600160a01b03821661122357600280548290039055611242565b6001600160a01b03821660009081526020819052604090208054820190555b816001600160a01b0316836001600160a01b03167fddf252ad1be2c89b69c2b068fc378daa952ba7f163c4a11628f55a4df523b3ef8360405161128791815260200190565b60405180910390a3505050565b6001600160a01b0384166112be5760405163e602df0560e01b815260006004820152602401610664565b6001600160a01b0383166112e857604051634a1406b160e11b815260006004820152602401610664565b6001600160a01b038085166000908152600160209081526040808320938716835292905220829055801561092957826001600160a01b0316846001600160a01b03167f8c5be1e5ebec7d5bd14f71427d1e84f3dd0314c0f7b2291e5b200ac8c7c3b9258460405161135b91815260200190565b60405180910390a350505050565b6113738282610a68565b610a645760405163e2517d3f60e01b81526001600160a01b038216600482015260248101839052604401610664565b6000602082840312156113b457600080fd5b81356001600160e01b0319811681146113cc57600080fd5b9392505050565b6000815180845260005b818110156113f9576020818501810151868301820152016113dd565b506000602082860101526020601f19601f83011685010191505092915050565b6020815260006113cc60208301846113d3565b634e487b7160e01b600052604160045260246000fd5b600082601f83011261145357600080fd5b813567ffffffffffffffff8082111561146e5761146e61142c565b604051601f8301601f19908116603f011681019082821181831017156114965761149661142c565b816040528381528660208588010111156114af57600080fd5b836020870160208301376000602085830101528094505050505092915050565b600080604083850312156114e257600080fd5b82359150602083013567ffffffffffffffff81111561150057600080fd5b61150c85828601611442565b9150509250929050565b80356001600160a01b038116811461152d57600080fd5b919050565b6000806040838503121561154557600080fd5b61154e83611516565b946020939093013593505050565b60008060006060848603121561157157600080fd5b61157a84611516565b925061158860208501611516565b9150604084013590509250925092565b6000602082840312156115aa57600080fd5b5035919050565b600080604083850312156115c457600080fd5b823591506115d460208401611516565b90509250929050565b6000602082840312156115ef57600080fd5b6113cc82611516565b60008060006060848603121561160d57600080fd5b61161684611516565b925060208401359150604084013567ffffffffffffffff81111561163957600080fd5b61164586828701611442565b9150509250925092565b6000806040838503121561166257600080fd5b61166b83611516565b91506115d460208401611516565b634e487b7160e01b600052601160045260246000fd5b8082018082111561052e5761052e611679565b808202811582820484141761052e5761052e611679565b6000826116d657634e487b7160e01b600052601260045260246000fd5b500490565b8181038181111561052e5761052e611679565b600181811c9082168061170257607f821691505b60208210810361172257634e487b7160e01b600052602260045260246000fd5b50919050565b6020808252601d908201527f416d6f756e74206d7573742062652067726561746572207468616e2030000000604082015260600190565b6020808252600f908201526e1499585cdbdb881c995c5d5a5c9959608a1b604082015260600190565b8281526040602082015260006117a160408301846113d3565b94935050505056fe71840dc4906352362b0cdaf79870196c8e42acafade72d5d5a6d59291253ceb1a26469706673582212209c003baba7febdbef28450741d0aa2f135e62915423c86f568c7fdd2a4ed28ff64736f6c63430008140033","opcodes":"PUSH1 0x80 PUSH1 0x40 MSTORE CALLVALUE DUP1 ISZERO PUSH3 0x11 JUMPI PUSH1 0x0 DUP1 REVERT JUMPDEST POP CALLER PUSH1 0x40 MLOAD DUP1 PUSH1 0x40 ADD PUSH1 0x40 MSTORE DUP1 PUSH1 0x9 DUP2 MSTORE PUSH1 0x20 ADD PUSH9 0x25A0AAA99021B7B4B7 PUSH1 0xB9 SHL DUP2 MSTORE POP PUSH1 0x40 MLOAD DUP1 PUSH1 0x40 ADD PUSH1 0x40 MSTORE DUP1 PUSH1 0x4 DUP2 MSTORE PUSH1 0x20 ADD PUSH4 0x4B415553 PUSH1 0xE0 SHL DUP2 MSTORE POP DUP2 PUSH1 0x3 SWAP1 DUP2 PUSH3 0x63 SWAP2 SWAP1 PUSH3 0x45B JUMP JUMPDEST POP PUSH1 0x4 PUSH3 0x72 DUP3 DUP3 PUSH3 0x45B JUMP JUMPDEST POP POP POP PUSH1 0x1 PUSH1 0x1 PUSH1 0xA0 SHL SUB DUP2 AND PUSH3 0xA5 JUMPI PUSH1 0x40 MLOAD PUSH4 0x1E4FBDF7 PUSH1 0xE0 SHL DUP2 MSTORE PUSH1 0x0 PUSH1 0x4 DUP3 ADD MSTORE PUSH1 0x24 ADD JUMPDEST PUSH1 0x40 MLOAD DUP1 SWAP2 SUB SWAP1 REVERT JUMPDEST PUSH3 0xB0 DUP2 PUSH3 0x140 JUMP JUMPDEST POP PUSH1 0x1 PUSH1 0x7 SSTORE PUSH3 0xCE CALLER PUSH12 0x204FCE5E3E25026110000000 PUSH3 0x192 JUMP JUMPDEST PUSH3 0xDB PUSH1 0x0 CALLER PUSH3 0x1D0 JUMP JUMPDEST POP PUSH3 0x108 PUSH32 0x71840DC4906352362B0CDAF79870196C8E42ACAFADE72D5D5A6D59291253CEB1 CALLER PUSH3 0x1D0 JUMP JUMPDEST POP PUSH3 0x135 PUSH32 0x9F2DF0FED2C77648DE5860A4CC508CD0818C85B8B8A1AB4CEEEF8D981C8956A6 CALLER PUSH3 0x1D0 JUMP JUMPDEST POP TIMESTAMP PUSH1 0x9 SSTORE PUSH3 0x549 JUMP JUMPDEST PUSH1 0x5 DUP1 SLOAD PUSH1 0x1 PUSH1 0x1 PUSH1 0xA0 SHL SUB DUP4 DUP2 AND PUSH1 0x1 PUSH1 0x1 PUSH1 0xA0 SHL SUB NOT DUP4 AND DUP2 OR SWAP1 SWAP4 SSTORE PUSH1 0x40 MLOAD SWAP2 AND SWAP2 SWAP1 DUP3 SWAP1 PUSH32 0x8BE0079C531659141344CD1FD0A4F28419497F9722A3DAAFE3B4186F6B6457E0 SWAP1 PUSH1 0x0 SWAP1 LOG3 POP POP JUMP JUMPDEST PUSH1 0x1 PUSH1 0x1 PUSH1 0xA0 SHL SUB DUP3 AND PUSH3 0x1BE JUMPI PUSH1 0x40 MLOAD PUSH4 0xEC442F05 PUSH1 0xE0 SHL DUP2 MSTORE PUSH1 0x0 PUSH1 0x4 DUP3 ADD MSTORE PUSH1 0x24 ADD PUSH3 0x9C JUMP JUMPDEST PUSH3 0x1CC PUSH1 0x0 DUP4 DUP4 PUSH3 0x283 JUMP JUMPDEST POP POP JUMP JUMPDEST PUSH1 0x0 DUP3 DUP2 MSTORE PUSH1 0x6 PUSH1 0x20 SWAP1 DUP2 MSTORE PUSH1 0x40 DUP1 DUP4 KECCAK256 PUSH1 0x1 PUSH1 0x1 PUSH1 0xA0 SHL SUB DUP6 AND DUP5 MSTORE SWAP1 SWAP2 MSTORE DUP2 KECCAK256 SLOAD PUSH1 0xFF AND PUSH3 0x279 JUMPI PUSH1 0x0 DUP4 DUP2 MSTORE PUSH1 0x6 PUSH1 0x20 SWAP1 DUP2 MSTORE PUSH1 0x40 DUP1 DUP4 KECCAK256 PUSH1 0x1 PUSH1 0x1 PUSH1 0xA0 SHL SUB DUP7 AND DUP5 MSTORE SWAP1 SWAP2 MSTORE SWAP1 KECCAK256 DUP1 SLOAD PUSH1 0xFF NOT AND PUSH1 0x1 OR SWAP1 SSTORE PUSH3 0x230 CALLER SWAP1 JUMP JUMPDEST PUSH1 0x1 PUSH1 0x1 PUSH1 0xA0 SHL SUB AND DUP3 PUSH1 0x1 PUSH1 0x1 PUSH1 0xA0 SHL SUB AND DUP5 PUSH32 0x2F8788117E7EFF1D82E926EC794901D17C78024A50270940304540A733656F0D PUSH1 0x40 MLOAD PUSH1 0x40 MLOAD DUP1 SWAP2 SUB SWAP1 LOG4 POP PUSH1 0x1 PUSH3 0x27D JUMP JUMPDEST POP PUSH1 0x0 JUMPDEST SWAP3 SWAP2 POP POP JUMP JUMPDEST PUSH1 0x1 PUSH1 0x1 PUSH1 0xA0 SHL SUB DUP4 AND PUSH3 0x2B2 JUMPI DUP1 PUSH1 0x2 PUSH1 0x0 DUP3 DUP3 SLOAD PUSH3 0x2A6 SWAP2 SWAP1 PUSH3 0x527 JUMP JUMPDEST SWAP1 SWAP2 SSTORE POP PUSH3 0x326 SWAP1 POP JUMP JUMPDEST PUSH1 0x1 PUSH1 0x1 PUSH1 0xA0 SHL SUB DUP4 AND PUSH1 0x0 SWAP1 DUP2 MSTORE PUSH1 0x20 DUP2 SWAP1 MSTORE PUSH1 0x40 SWAP1 KECCAK256 SLOAD DUP2 DUP2 LT ISZERO PUSH3 0x307 JUMPI PUSH1 0x40 MLOAD PUSH4 0x391434E3 PUSH1 0xE2 SHL DUP2 MSTORE PUSH1 0x1 PUSH1 0x1 PUSH1 0xA0 SHL SUB DUP6 AND PUSH1 0x4 DUP3 ADD MSTORE PUSH1 0x24 DUP2 ADD DUP3 SWAP1 MSTORE PUSH1 0x44 DUP2 ADD DUP4 SWAP1 MSTORE PUSH1 0x64 ADD PUSH3 0x9C JUMP JUMPDEST PUSH1 0x1 PUSH1 0x1 PUSH1 0xA0 SHL SUB DUP5 AND PUSH1 0x0 SWAP1 DUP2 MSTORE PUSH1 0x20 DUP2 SWAP1 MSTORE PUSH1 0x40 SWAP1 KECCAK256 SWAP1 DUP3 SWAP1 SUB SWAP1 SSTORE JUMPDEST PUSH1 0x1 PUSH1 0x1 PUSH1 0xA0 SHL SUB DUP3 AND PUSH3 0x344 JUMPI PUSH1 0x2 DUP1 SLOAD DUP3 SWAP1 SUB SWAP1 SSTORE PUSH3 0x363 JUMP JUMPDEST PUSH1 0x1 PUSH1 0x1 PUSH1 0xA0 SHL SUB DUP3 AND PUSH1 0x0 SWAP1 DUP2 MSTORE PUSH1 0x20 DUP2 SWAP1 MSTORE PUSH1 0x40 SWAP1 KECCAK256 DUP1 SLOAD DUP3 ADD SWAP1 SSTORE JUMPDEST DUP2 PUSH1 0x1 PUSH1 0x1 PUSH1 0xA0 SHL SUB AND DUP4 PUSH1 0x1 PUSH1 0x1 PUSH1 0xA0 SHL SUB AND PUSH32 0xDDF252AD1BE2C89B69C2B068FC378DAA952BA7F163C4A11628F55A4DF523B3EF DUP4 PUSH1 0x40 MLOAD PUSH3 0x3A9 SWAP2 DUP2 MSTORE PUSH1 0x20 ADD SWAP1 JUMP JUMPDEST PUSH1 0x40 MLOAD DUP1 SWAP2 SUB SWAP1 LOG3 POP POP POP JUMP JUMPDEST PUSH4 0x4E487B71 PUSH1 0xE0 SHL PUSH1 0x0 MSTORE PUSH1 0x41 PUSH1 0x4 MSTORE PUSH1 0x24 PUSH1 0x0 REVERT JUMPDEST PUSH1 0x1 DUP2 DUP2 SHR SWAP1 DUP3 AND DUP1 PUSH3 0x3E1 JUMPI PUSH1 0x7F DUP3 AND SWAP2 POP JUMPDEST PUSH1 0x20 DUP3 LT DUP2 SUB PUSH3 0x402 JUMPI PUSH4 0x4E487B71 PUSH1 0xE0 SHL PUSH1 0x0 MSTORE PUSH1 0x22 PUSH1 0x4 MSTORE PUSH1 0x24 PUSH1 0x0 REVERT JUMPDEST POP SWAP2 SWAP1 POP JUMP JUMPDEST PUSH1 0x1F DUP3 GT ISZERO PUSH3 0x456 JUMPI PUSH1 0x0 DUP2 DUP2 MSTORE PUSH1 0x20 DUP2 KECCAK256 PUSH1 0x1F DUP6 ADD PUSH1 0x5 SHR DUP2 ADD PUSH1 0x20 DUP7 LT ISZERO PUSH3 0x431 JUMPI POP DUP1 JUMPDEST PUSH1 0x1F DUP6 ADD PUSH1 0x5 SHR DUP3 ADD SWAP2 POP JUMPDEST DUP2 DUP2 LT ISZERO PUSH3 0x452 JUMPI DUP3 DUP2 SSTORE PUSH1 0x1 ADD PUSH3 0x43D JUMP JUMPDEST POP POP POP JUMPDEST POP POP POP JUMP JUMPDEST DUP2 MLOAD PUSH1 0x1 PUSH1 0x1 PUSH1 0x40 SHL SUB DUP2 GT ISZERO PUSH3 0x477 JUMPI PUSH3 0x477 PUSH3 0x3B6 JUMP JUMPDEST PUSH3 0x48F DUP2 PUSH3 0x488 DUP5 SLOAD PUSH3 0x3CC JUMP JUMPDEST DUP5 PUSH3 0x408 JUMP JUMPDEST PUSH1 0x20 DUP1 PUSH1 0x1F DUP4 GT PUSH1 0x1 DUP2 EQ PUSH3 0x4C7 JUMPI PUSH1 0x0 DUP5 ISZERO PUSH3 0x4AE JUMPI POP DUP6 DUP4 ADD MLOAD JUMPDEST PUSH1 0x0 NOT PUSH1 0x3 DUP7 SWAP1 SHL SHR NOT AND PUSH1 0x1 DUP6 SWAP1 SHL OR DUP6 SSTORE PUSH3 0x452 JUMP JUMPDEST PUSH1 0x0 DUP6 DUP2 MSTORE PUSH1 0x20 DUP2 KECCAK256 PUSH1 0x1F NOT DUP7 AND SWAP2 JUMPDEST DUP3 DUP2 LT ISZERO PUSH3 0x4F8 JUMPI DUP9 DUP7 ADD MLOAD DUP3 SSTORE SWAP5 DUP5 ADD SWAP5 PUSH1 0x1 SWAP1 SWAP2 ADD SWAP1 DUP5 ADD PUSH3 0x4D7 JUMP JUMPDEST POP DUP6 DUP3 LT ISZERO PUSH3 0x517 JUMPI DUP8 DUP6 ADD MLOAD PUSH1 0x0 NOT PUSH1 0x3 DUP9 SWAP1 SHL PUSH1 0xF8 AND SHR NOT AND DUP2 SSTORE JUMPDEST POP POP POP POP POP PUSH1 0x1 SWAP1 DUP2 SHL ADD SWAP1 SSTORE POP JUMP JUMPDEST DUP1 DUP3 ADD DUP1 DUP3 GT ISZERO PUSH3 0x27D JUMPI PUSH4 0x4E487B71 PUSH1 0xE0 SHL PUSH1 0x0 MSTORE PUSH1 0x11 PUSH1 0x4 MSTORE PUSH1 0x24 PUSH1 0x0 REVERT JUMPDEST PUSH2 0x17FF DUP1 PUSH3 0x559 PUSH1 0x0 CODECOPY PUSH1 0x0 RETURN INVALID PUSH1 0x80 PUSH1 0x40 MSTORE CALLVALUE DUP1 ISZERO PUSH2 0x10 JUMPI PUSH1 0x0 DUP1 REVERT JUMPDEST POP PUSH1 0x4 CALLDATASIZE LT PUSH2 0x227 JUMPI PUSH1 0x0 CALLDATALOAD PUSH1 0xE0 SHR DUP1 PUSH4 0x70A08231 GT PUSH2 0x130 JUMPI DUP1 PUSH4 0xA9059CBB GT PUSH2 0xB8 JUMPI DUP1 PUSH4 0xD547741F GT PUSH2 0x7C JUMPI DUP1 PUSH4 0xD547741F EQ PUSH2 0x4A6 JUMPI DUP1 PUSH4 0xD89135CD EQ PUSH2 0x4B9 JUMPI DUP1 PUSH4 0xDD62ED3E EQ PUSH2 0x4C2 JUMPI DUP1 PUSH4 0xF2FDE38B EQ PUSH2 0x4FB JUMPI DUP1 PUSH4 0xF36C8F5C EQ PUSH2 0x50E JUMPI PUSH1 0x0 DUP1 REVERT JUMPDEST DUP1 PUSH4 0xA9059CBB EQ PUSH2 0x447 JUMPI DUP1 PUSH4 0xA9F8AD04 EQ PUSH2 0x45A JUMPI DUP1 PUSH4 0xAE88E676 EQ PUSH2 0x464 JUMPI DUP1 PUSH4 0xBE146ADC EQ PUSH2 0x477 JUMPI DUP1 PUSH4 0xD5391393 EQ PUSH2 0x47F JUMPI PUSH1 0x0 DUP1 REVERT JUMPDEST DUP1 PUSH4 0x91D14854 GT PUSH2 0xFF JUMPI DUP1 PUSH4 0x91D14854 EQ PUSH2 0x408 JUMPI DUP1 PUSH4 0x95D89B41 EQ PUSH2 0x41B JUMPI DUP1 PUSH4 0x979430D2 EQ PUSH2 0x423 JUMPI DUP1 PUSH4 0x9D463520 EQ PUSH2 0x436 JUMPI DUP1 PUSH4 0xA217FDDF EQ PUSH2 0x43F JUMPI PUSH1 0x0 DUP1 REVERT JUMPDEST DUP1 PUSH4 0x70A08231 EQ PUSH2 0x3A9 JUMPI DUP1 PUSH4 0x715018A6 EQ PUSH2 0x3D2 JUMPI DUP1 PUSH4 0x79CC6790 EQ PUSH2 0x3DA JUMPI DUP1 PUSH4 0x8DA5CB5B EQ PUSH2 0x3ED JUMPI PUSH1 0x0 DUP1 REVERT JUMPDEST DUP1 PUSH4 0x248A9CA3 GT PUSH2 0x1B3 JUMPI DUP1 PUSH4 0x32CB6B0C GT PUSH2 0x182 JUMPI DUP1 PUSH4 0x32CB6B0C EQ PUSH2 0x34A JUMPI DUP1 PUSH4 0x36568ABE EQ PUSH2 0x35D JUMPI DUP1 PUSH4 0x3DD1EB61 EQ PUSH2 0x370 JUMPI DUP1 PUSH4 0x42966C68 EQ PUSH2 0x383 JUMPI DUP1 PUSH4 0x60360700 EQ PUSH2 0x396 JUMPI PUSH1 0x0 DUP1 REVERT JUMPDEST DUP1 PUSH4 0x248A9CA3 EQ PUSH2 0x2FD JUMPI DUP1 PUSH4 0x2AC234C0 EQ PUSH2 0x320 JUMPI DUP1 PUSH4 0x2F2FF15D EQ PUSH2 0x328 JUMPI DUP1 PUSH4 0x313CE567 EQ PUSH2 0x33B JUMPI PUSH1 0x0 DUP1 REVERT JUMPDEST DUP1 PUSH4 0x95EA7B3 GT PUSH2 0x1FA JUMPI DUP1 PUSH4 0x95EA7B3 EQ PUSH2 0x294 JUMPI DUP1 PUSH4 0x97CD9BF EQ PUSH2 0x2A7 JUMPI DUP1 PUSH4 0x18160DDD EQ PUSH2 0x2CF JUMPI DUP1 PUSH4 0x1BD2A15D EQ PUSH2 0x2D7 JUMPI DUP1 PUSH4 0x23B872DD EQ PUSH2 0x2EA JUMPI PUSH1 0x0 DUP1 REVERT JUMPDEST DUP1 PUSH4 0x1FFC9A7 EQ PUSH2 0x22C JUMPI DUP1 PUSH4 0x2107482 EQ PUSH2 0x254 JUMPI DUP1 PUSH4 0x6FDDE03 EQ PUSH2 0x26A JUMPI DUP1 PUSH4 0x91273A7 EQ PUSH2 0x27F JUMPI JUMPDEST PUSH1 0x0 DUP1 REVERT JUMPDEST PUSH2 0x23F PUSH2 0x23A CALLDATASIZE PUSH1 0x4 PUSH2 0x13A2 JUMP JUMPDEST PUSH2 0x523 JUMP JUMPDEST PUSH1 0x40 MLOAD SWAP1 ISZERO ISZERO DUP2 MSTORE PUSH1 0x20 ADD JUMPDEST PUSH1 0x40 MLOAD DUP1 SWAP2 SUB SWAP1 RETURN JUMPDEST PUSH2 0x25C PUSH2 0x534 JUMP JUMPDEST PUSH1 0x40 MLOAD SWAP1 DUP2 MSTORE PUSH1 0x20 ADD PUSH2 0x24B JUMP JUMPDEST PUSH2 0x272 PUSH2 0x5B2 JUMP JUMPDEST PUSH1 0x40 MLOAD PUSH2 0x24B SWAP2 SWAP1 PUSH2 0x1419 JUMP JUMPDEST PUSH2 0x292 PUSH2 0x28D CALLDATASIZE PUSH1 0x4 PUSH2 0x14CF JUMP JUMPDEST PUSH2 0x644 JUMP JUMPDEST STOP JUMPDEST PUSH2 0x23F PUSH2 0x2A2 CALLDATASIZE PUSH1 0x4 PUSH2 0x1532 JUMP JUMPDEST PUSH2 0x6EF JUMP JUMPDEST PUSH2 0x2AF PUSH2 0x707 JUMP JUMPDEST PUSH1 0x40 DUP1 MLOAD SWAP5 DUP6 MSTORE PUSH1 0x20 DUP6 ADD SWAP4 SWAP1 SWAP4 MSTORE SWAP2 DUP4 ADD MSTORE PUSH1 0x60 DUP3 ADD MSTORE PUSH1 0x80 ADD PUSH2 0x24B JUMP JUMPDEST PUSH1 0x2 SLOAD PUSH2 0x25C JUMP JUMPDEST PUSH2 0x292 PUSH2 0x2E5 CALLDATASIZE PUSH1 0x4 PUSH2 0x1532 JUMP JUMPDEST PUSH2 0x752 JUMP JUMPDEST PUSH2 0x23F PUSH2 0x2F8 CALLDATASIZE PUSH1 0x4 PUSH2 0x155C JUMP JUMPDEST PUSH2 0x8E0 JUMP JUMPDEST PUSH2 0x25C PUSH2 0x30B CALLDATASIZE PUSH1 0x4 PUSH2 0x1598 JUMP JUMPDEST PUSH1 0x0 SWAP1 DUP2 MSTORE PUSH1 0x6 PUSH1 0x20 MSTORE PUSH1 0x40 SWAP1 KECCAK256 PUSH1 0x1 ADD SLOAD SWAP1 JUMP JUMPDEST PUSH2 0x25C PUSH1 0x5 DUP2 JUMP JUMPDEST PUSH2 0x292 PUSH2 0x336 CALLDATASIZE PUSH1 0x4 PUSH2 0x15B1 JUMP JUMPDEST PUSH2 0x904 JUMP JUMPDEST PUSH1 0x40 MLOAD PUSH1 0x12 DUP2 MSTORE PUSH1 0x20 ADD PUSH2 0x24B JUMP JUMPDEST PUSH2 0x25C PUSH12 0xA18F07D736B90BE550000000 DUP2 JUMP JUMPDEST PUSH2 0x292 PUSH2 0x36B CALLDATASIZE PUSH1 0x4 PUSH2 0x15B1 JUMP JUMPDEST PUSH2 0x92F JUMP JUMPDEST PUSH2 0x292 PUSH2 0x37E CALLDATASIZE PUSH1 0x4 PUSH2 0x15DD JUMP JUMPDEST PUSH2 0x962 JUMP JUMPDEST PUSH2 0x292 PUSH2 0x391 CALLDATASIZE PUSH1 0x4 PUSH2 0x1598 JUMP JUMPDEST PUSH2 0x9D1 JUMP JUMPDEST PUSH2 0x292 PUSH2 0x3A4 CALLDATASIZE PUSH1 0x4 PUSH2 0x15DD JUMP JUMPDEST PUSH2 0x9DE JUMP JUMPDEST PUSH2 0x25C PUSH2 0x3B7 CALLDATASIZE PUSH1 0x4 PUSH2 0x15DD JUMP JUMPDEST PUSH1 0x1 PUSH1 0x1 PUSH1 0xA0 SHL SUB AND PUSH1 0x0 SWAP1 DUP2 MSTORE PUSH1 0x20 DUP2 SWAP1 MSTORE PUSH1 0x40 SWAP1 KECCAK256 SLOAD SWAP1 JUMP JUMPDEST PUSH2 0x292 PUSH2 0xA3B JUMP JUMPDEST PUSH2 0x292 PUSH2 0x3E8 CALLDATASIZE PUSH1 0x4 PUSH2 0x1532 JUMP JUMPDEST PUSH2 0xA4F JUMP JUMPDEST PUSH1 0x5 SLOAD PUSH1 0x40 MLOAD PUSH1 0x1 PUSH1 0x1 PUSH1 0xA0 SHL SUB SWAP1 SWAP2 AND DUP2 MSTORE PUSH1 0x20 ADD PUSH2 0x24B JUMP JUMPDEST PUSH2 0x23F PUSH2 0x416 CALLDATASIZE PUSH1 0x4 PUSH2 0x15B1 JUMP JUMPDEST PUSH2 0xA68 JUMP JUMPDEST PUSH2 0x272 PUSH2 0xA93 JUMP JUMPDEST PUSH2 0x292 PUSH2 0x431 CALLDATASIZE PUSH1 0x4 PUSH2 0x15F8 JUMP JUMPDEST PUSH2 0xAA2 JUMP JUMPDEST PUSH2 0x25C PUSH1 0x9 SLOAD DUP2 JUMP JUMPDEST PUSH2 0x25C PUSH1 0x0 DUP2 JUMP JUMPDEST PUSH2 0x23F PUSH2 0x455 CALLDATASIZE PUSH1 0x4 PUSH2 0x1532 JUMP JUMPDEST PUSH2 0xB67 JUMP JUMPDEST PUSH2 0x25C PUSH3 0x278D00 DUP2 JUMP JUMPDEST PUSH2 0x292 PUSH2 0x472 CALLDATASIZE PUSH1 0x4 PUSH2 0x15F8 JUMP JUMPDEST PUSH2 0xB75 JUMP JUMPDEST PUSH2 0x25C PUSH2 0xDB8 JUMP JUMPDEST PUSH2 0x25C PUSH32 0x9F2DF0FED2C77648DE5860A4CC508CD0818C85B8B8A1AB4CEEEF8D981C8956A6 DUP2 JUMP JUMPDEST PUSH2 0x292 PUSH2 0x4B4 CALLDATASIZE PUSH1 0x4 PUSH2 0x15B1 JUMP JUMPDEST PUSH2 0xDD0 JUMP JUMPDEST PUSH2 0x25C PUSH1 0x8 SLOAD DUP2 JUMP JUMPDEST PUSH2 0x25C PUSH2 0x4D0 CALLDATASIZE PUSH1 0x4 PUSH2 0x164F JUMP JUMPDEST PUSH1 0x1 PUSH1 0x1 PUSH1 0xA0 SHL SUB SWAP2 DUP3 AND PUSH1 0x0 SWAP1 DUP2 MSTORE PUSH1 0x1 PUSH1 0x20 SWAP1 DUP2 MSTORE PUSH1 0x40 DUP1 DUP4 KECCAK256 SWAP4 SWAP1 SWAP5 AND DUP3 MSTORE SWAP2 SWAP1 SWAP2 MSTORE KECCAK256 SLOAD SWAP1 JUMP JUMPDEST PUSH2 0x292 PUSH2 0x509 CALLDATASIZE PUSH1 0x4 PUSH2 0x15DD JUMP JUMPDEST PUSH2 0xDF5 JUMP JUMPDEST PUSH2 0x25C PUSH1 0x0 DUP1 MLOAD PUSH1 0x20 PUSH2 0x17AA DUP4 CODECOPY DUP2 MLOAD SWAP2 MSTORE DUP2 JUMP JUMPDEST PUSH1 0x0 PUSH2 0x52E DUP3 PUSH2 0xE30 JUMP JUMPDEST SWAP3 SWAP2 POP POP JUMP JUMPDEST PUSH1 0x0 PUSH3 0x278D00 PUSH1 0x9 SLOAD PUSH2 0x547 SWAP2 SWAP1 PUSH2 0x168F JUMP JUMPDEST TIMESTAMP LT ISZERO PUSH2 0x554 JUMPI POP PUSH1 0x0 SWAP1 JUMP JUMPDEST PUSH1 0x0 PUSH1 0x64 PUSH1 0x5 PUSH2 0x563 PUSH1 0x2 SLOAD SWAP1 JUMP JUMPDEST PUSH2 0x56D SWAP2 SWAP1 PUSH2 0x16A2 JUMP JUMPDEST PUSH2 0x577 SWAP2 SWAP1 PUSH2 0x16B9 JUMP JUMPDEST SWAP1 POP PUSH1 0x0 PUSH2 0x584 PUSH1 0x2 SLOAD SWAP1 JUMP JUMPDEST PUSH2 0x59A SWAP1 PUSH12 0xA18F07D736B90BE550000000 PUSH2 0x16DB JUMP JUMPDEST SWAP1 POP DUP1 DUP3 LT PUSH2 0x5A9 JUMPI DUP1 PUSH2 0x5AB JUMP JUMPDEST DUP2 JUMPDEST SWAP3 POP POP POP SWAP1 JUMP JUMPDEST PUSH1 0x60 PUSH1 0x3 DUP1 SLOAD PUSH2 0x5C1 SWAP1 PUSH2 0x16EE JUMP JUMPDEST DUP1 PUSH1 0x1F ADD PUSH1 0x20 DUP1 SWAP2 DIV MUL PUSH1 0x20 ADD PUSH1 0x40 MLOAD SWAP1 DUP2 ADD PUSH1 0x40 MSTORE DUP1 SWAP3 SWAP2 SWAP1 DUP2 DUP2 MSTORE PUSH1 0x20 ADD DUP3 DUP1 SLOAD PUSH2 0x5ED SWAP1 PUSH2 0x16EE JUMP JUMPDEST DUP1 ISZERO PUSH2 0x63A JUMPI DUP1 PUSH1 0x1F LT PUSH2 0x60F JUMPI PUSH2 0x100 DUP1 DUP4 SLOAD DIV MUL DUP4 MSTORE SWAP2 PUSH1 0x20 ADD SWAP2 PUSH2 0x63A JUMP JUMPDEST DUP3 ADD SWAP2 SWAP1 PUSH1 0x0 MSTORE PUSH1 0x20 PUSH1 0x0 KECCAK256 SWAP1 JUMPDEST DUP2 SLOAD DUP2 MSTORE SWAP1 PUSH1 0x1 ADD SWAP1 PUSH1 0x20 ADD DUP1 DUP4 GT PUSH2 0x61D JUMPI DUP3 SWAP1 SUB PUSH1 0x1F AND DUP3 ADD SWAP2 JUMPDEST POP POP POP POP POP SWAP1 POP SWAP1 JUMP JUMPDEST PUSH1 0x0 DUP3 GT PUSH2 0x66D JUMPI PUSH1 0x40 MLOAD PUSH3 0x461BCD PUSH1 0xE5 SHL DUP2 MSTORE PUSH1 0x4 ADD PUSH2 0x664 SWAP1 PUSH2 0x1728 JUMP JUMPDEST PUSH1 0x40 MLOAD DUP1 SWAP2 SUB SWAP1 REVERT JUMPDEST PUSH1 0x0 DUP2 MLOAD GT PUSH2 0x68E JUMPI PUSH1 0x40 MLOAD PUSH3 0x461BCD PUSH1 0xE5 SHL DUP2 MSTORE PUSH1 0x4 ADD PUSH2 0x664 SWAP1 PUSH2 0x175F JUMP JUMPDEST PUSH2 0x698 CALLER DUP4 PUSH2 0xE65 JUMP JUMPDEST DUP2 PUSH1 0x8 PUSH1 0x0 DUP3 DUP3 SLOAD PUSH2 0x6AA SWAP2 SWAP1 PUSH2 0x168F JUMP JUMPDEST SWAP1 SWAP2 SSTORE POP POP PUSH1 0x40 MLOAD CALLER SWAP1 PUSH32 0xF89CC44BD84D34274F4D7224B51AC205D2978D1923E02EE5D7DA18CDB5049218 SWAP1 PUSH2 0x6E3 SWAP1 DUP6 SWAP1 DUP6 SWAP1 PUSH2 0x1788 JUMP JUMPDEST PUSH1 0x40 MLOAD DUP1 SWAP2 SUB SWAP1 LOG2 POP POP JUMP JUMPDEST PUSH1 0x0 CALLER PUSH2 0x6FD DUP2 DUP6 DUP6 PUSH2 0xE9B JUMP JUMPDEST POP PUSH1 0x1 SWAP4 SWAP3 POP POP POP JUMP JUMPDEST PUSH1 0x0 DUP1 PUSH1 0x0 DUP1 PUSH2 0x716 PUSH1 0x2 SLOAD SWAP1 JUMP JUMPDEST PUSH1 0x8 SLOAD ADDRESS PUSH1 0x0 SWAP1 DUP2 MSTORE PUSH1 0x20 DUP2 SWAP1 MSTORE PUSH1 0x40 SWAP1 KECCAK256 SLOAD PUSH1 0x2 SLOAD PUSH12 0xA18F07D736B90BE550000000 SWAP3 SWAP2 PUSH2 0x744 SWAP2 PUSH2 0x16DB JUMP JUMPDEST SWAP4 POP SWAP4 POP SWAP4 POP SWAP4 POP SWAP1 SWAP2 SWAP3 SWAP4 JUMP JUMPDEST PUSH32 0x9F2DF0FED2C77648DE5860A4CC508CD0818C85B8B8A1AB4CEEEF8D981C8956A6 PUSH2 0x77C DUP2 PUSH2 0xEA8 JUMP JUMPDEST PUSH2 0x784 PUSH2 0xEB2 JUMP JUMPDEST PUSH1 0x1 PUSH1 0x1 PUSH1 0xA0 SHL SUB DUP4 AND PUSH2 0x7DA JUMPI PUSH1 0x40 MLOAD PUSH3 0x461BCD PUSH1 0xE5 SHL DUP2 MSTORE PUSH1 0x20 PUSH1 0x4 DUP3 ADD MSTORE PUSH1 0x1B PUSH1 0x24 DUP3 ADD MSTORE PUSH32 0x43616E6E6F74206D696E7420746F207A65726F20616464726573730000000000 PUSH1 0x44 DUP3 ADD MSTORE PUSH1 0x64 ADD PUSH2 0x664 JUMP JUMPDEST PUSH1 0x0 DUP3 GT PUSH2 0x7FA JUMPI PUSH1 0x40 MLOAD PUSH3 0x461BCD PUSH1 0xE5 SHL DUP2 MSTORE PUSH1 0x4 ADD PUSH2 0x664 SWAP1 PUSH2 0x1728 JUMP JUMPDEST PUSH12 0xA18F07D736B90BE550000000 DUP3 PUSH2 0x811 PUSH1 0x2 SLOAD SWAP1 JUMP JUMPDEST PUSH2 0x81B SWAP2 SWAP1 PUSH2 0x168F JUMP JUMPDEST GT ISZERO PUSH2 0x85E JUMPI PUSH1 0x40 MLOAD PUSH3 0x461BCD PUSH1 0xE5 SHL DUP2 MSTORE PUSH1 0x20 PUSH1 0x4 DUP3 ADD MSTORE PUSH1 0x12 PUSH1 0x24 DUP3 ADD MSTORE PUSH18 0x45786365656473206D617820737570706C79 PUSH1 0x70 SHL PUSH1 0x44 DUP3 ADD MSTORE PUSH1 0x64 ADD PUSH2 0x664 JUMP JUMPDEST PUSH2 0x868 DUP4 DUP4 PUSH2 0xEDC JUMP JUMPDEST DUP3 PUSH1 0x1 PUSH1 0x1 PUSH1 0xA0 SHL SUB AND PUSH32 0x9D89E36EADF856DB0AD9FFB5A569E07F95634DDDD9501141ECF04820484AD0DC DUP4 PUSH1 0x40 MLOAD PUSH2 0x8C9 SWAP2 DUP2 MSTORE PUSH1 0x40 PUSH1 0x20 DUP3 ADD DUP2 SWAP1 MSTORE PUSH1 0xE SWAP1 DUP3 ADD MSTORE PUSH14 0x14DD185ADA5B99C814995DD85C99 PUSH1 0x92 SHL PUSH1 0x60 DUP3 ADD MSTORE PUSH1 0x80 ADD SWAP1 JUMP JUMPDEST PUSH1 0x40 MLOAD DUP1 SWAP2 SUB SWAP1 LOG2 PUSH2 0x8DB PUSH1 0x1 PUSH1 0x7 SSTORE JUMP JUMPDEST POP POP POP JUMP JUMPDEST PUSH1 0x0 CALLER PUSH2 0x8EE DUP6 DUP3 DUP6 PUSH2 0xF12 JUMP JUMPDEST PUSH2 0x8F9 DUP6 DUP6 DUP6 PUSH2 0xF8B JUMP JUMPDEST POP PUSH1 0x1 SWAP5 SWAP4 POP POP POP POP JUMP JUMPDEST PUSH1 0x0 DUP3 DUP2 MSTORE PUSH1 0x6 PUSH1 0x20 MSTORE PUSH1 0x40 SWAP1 KECCAK256 PUSH1 0x1 ADD SLOAD PUSH2 0x91F DUP2 PUSH2 0xEA8 JUMP JUMPDEST PUSH2 0x929 DUP4 DUP4 PUSH2 0xFEA JUMP JUMPDEST POP POP POP POP JUMP JUMPDEST PUSH1 0x1 PUSH1 0x1 PUSH1 0xA0 SHL SUB DUP2 AND CALLER EQ PUSH2 0x958 JUMPI PUSH1 0x40 MLOAD PUSH4 0x334BD919 PUSH1 0xE1 SHL DUP2 MSTORE PUSH1 0x4 ADD PUSH1 0x40 MLOAD DUP1 SWAP2 SUB SWAP1 REVERT JUMPDEST PUSH2 0x8DB DUP3 DUP3 PUSH2 0x107E JUMP JUMPDEST PUSH1 0x0 PUSH2 0x96D DUP2 PUSH2 0xEA8 JUMP JUMPDEST PUSH2 0x997 PUSH32 0x9F2DF0FED2C77648DE5860A4CC508CD0818C85B8B8A1AB4CEEEF8D981C8956A6 DUP4 PUSH2 0x904 JUMP JUMPDEST PUSH1 0x40 MLOAD CALLER SWAP1 PUSH1 0x1 PUSH1 0x1 PUSH1 0xA0 SHL SUB DUP5 AND SWAP1 PUSH32 0xBE6AB9784C7401FAFB73F7BC47BC67CC4EF8C47A60AD3CB66D1DE0353A0784C SWAP1 PUSH1 0x0 SWAP1 LOG3 POP POP JUMP JUMPDEST PUSH2 0x9DB CALLER DUP3 PUSH2 0xE65 JUMP JUMPDEST POP JUMP JUMPDEST PUSH1 0x0 PUSH2 0x9E9 DUP2 PUSH2 0xEA8 JUMP JUMPDEST PUSH2 0xA01 PUSH1 0x0 DUP1 MLOAD PUSH1 0x20 PUSH2 0x17AA DUP4 CODECOPY DUP2 MLOAD SWAP2 MSTORE DUP4 PUSH2 0x904 JUMP JUMPDEST PUSH1 0x40 MLOAD CALLER SWAP1 PUSH1 0x1 PUSH1 0x1 PUSH1 0xA0 SHL SUB DUP5 AND SWAP1 PUSH32 0xE8D7FB8B3DCD7602E4F824B66E665BA6747755BB5D43679D13F119F124F17773 SWAP1 PUSH1 0x0 SWAP1 LOG3 POP POP JUMP JUMPDEST PUSH2 0xA43 PUSH2 0x10EB JUMP JUMPDEST PUSH2 0xA4D PUSH1 0x0 PUSH2 0x1118 JUMP JUMPDEST JUMP JUMPDEST PUSH2 0xA5A DUP3 CALLER DUP4 PUSH2 0xF12 JUMP JUMPDEST PUSH2 0xA64 DUP3 DUP3 PUSH2 0xE65 JUMP JUMPDEST POP POP JUMP JUMPDEST PUSH1 0x0 SWAP2 DUP3 MSTORE PUSH1 0x6 PUSH1 0x20 SWAP1 DUP2 MSTORE PUSH1 0x40 DUP1 DUP5 KECCAK256 PUSH1 0x1 PUSH1 0x1 PUSH1 0xA0 SHL SUB SWAP4 SWAP1 SWAP4 AND DUP5 MSTORE SWAP2 SWAP1 MSTORE SWAP1 KECCAK256 SLOAD PUSH1 0xFF AND SWAP1 JUMP JUMPDEST PUSH1 0x60 PUSH1 0x4 DUP1 SLOAD PUSH2 0x5C1 SWAP1 PUSH2 0x16EE JUMP JUMPDEST PUSH1 0x0 DUP1 MLOAD PUSH1 0x20 PUSH2 0x17AA DUP4 CODECOPY DUP2 MLOAD SWAP2 MSTORE PUSH2 0xABA DUP2 PUSH2 0xEA8 JUMP JUMPDEST PUSH1 0x0 DUP4 GT PUSH2 0xADA JUMPI PUSH1 0x40 MLOAD PUSH3 0x461BCD PUSH1 0xE5 SHL DUP2 MSTORE PUSH1 0x4 ADD PUSH2 0x664 SWAP1 PUSH2 0x1728 JUMP JUMPDEST PUSH1 0x0 DUP3 MLOAD GT PUSH2 0xAFB JUMPI PUSH1 0x40 MLOAD PUSH3 0x461BCD PUSH1 0xE5 SHL DUP2 MSTORE PUSH1 0x4 ADD PUSH2 0x664 SWAP1 PUSH2 0x175F JUMP JUMPDEST PUSH2 0xB05 DUP5 DUP5 PUSH2 0xE65 JUMP JUMPDEST DUP3 PUSH1 0x8 PUSH1 0x0 DUP3 DUP3 SLOAD PUSH2 0xB17 SWAP2 SWAP1 PUSH2 0x168F JUMP JUMPDEST SWAP3 POP POP DUP2 SWAP1 SSTORE POP DUP4 PUSH1 0x1 PUSH1 0x1 PUSH1 0xA0 SHL SUB AND PUSH32 0xF89CC44BD84D34274F4D7224B51AC205D2978D1923E02EE5D7DA18CDB5049218 DUP5 DUP5 PUSH1 0x40 MLOAD PUSH2 0xB59 SWAP3 SWAP2 SWAP1 PUSH2 0x1788 JUMP JUMPDEST PUSH1 0x40 MLOAD DUP1 SWAP2 SUB SWAP1 LOG2 POP POP POP POP JUMP JUMPDEST PUSH1 0x0 CALLER PUSH2 0x6FD DUP2 DUP6 DUP6 PUSH2 0xF8B JUMP JUMPDEST PUSH1 0x0 DUP1 MLOAD PUSH1 0x20 PUSH2 0x17AA DUP4 CODECOPY DUP2 MLOAD SWAP2 MSTORE PUSH2 0xB8D DUP2 PUSH2 0xEA8 JUMP JUMPDEST PUSH2 0xB95 PUSH2 0xEB2 JUMP JUMPDEST PUSH1 0x1 PUSH1 0x1 PUSH1 0xA0 SHL SUB DUP5 AND PUSH2 0xBEB JUMPI PUSH1 0x40 MLOAD PUSH3 0x461BCD PUSH1 0xE5 SHL DUP2 MSTORE PUSH1 0x20 PUSH1 0x4 DUP3 ADD MSTORE PUSH1 0x1B PUSH1 0x24 DUP3 ADD MSTORE PUSH32 0x43616E6E6F74206D696E7420746F207A65726F20616464726573730000000000 PUSH1 0x44 DUP3 ADD MSTORE PUSH1 0x64 ADD PUSH2 0x664 JUMP JUMPDEST PUSH1 0x0 DUP4 GT PUSH2 0xC0B JUMPI PUSH1 0x40 MLOAD PUSH3 0x461BCD PUSH1 0xE5 SHL DUP2 MSTORE PUSH1 0x4 ADD PUSH2 0x664 SWAP1 PUSH2 0x1728 JUMP JUMPDEST PUSH1 0x0 DUP3 MLOAD GT PUSH2 0xC2C JUMPI PUSH1 0x40 MLOAD PUSH3 0x461BCD PUSH1 0xE5 SHL DUP2 MSTORE PUSH1 0x4 ADD PUSH2 0x664 SWAP1 PUSH2 0x175F JUMP JUMPDEST PUSH12 0xA18F07D736B90BE550000000 DUP4 PUSH2 0xC43 PUSH1 0x2 SLOAD SWAP1 JUMP JUMPDEST PUSH2 0xC4D SWAP2 SWAP1 PUSH2 0x168F JUMP JUMPDEST GT ISZERO PUSH2 0xC90 JUMPI PUSH1 0x40 MLOAD PUSH3 0x461BCD PUSH1 0xE5 SHL DUP2 MSTORE PUSH1 0x20 PUSH1 0x4 DUP3 ADD MSTORE PUSH1 0x12 PUSH1 0x24 DUP3 ADD MSTORE PUSH18 0x45786365656473206D617820737570706C79 PUSH1 0x70 SHL PUSH1 0x44 DUP3 ADD MSTORE PUSH1 0x64 ADD PUSH2 0x664 JUMP JUMPDEST PUSH3 0x278D00 PUSH1 0x9 SLOAD PUSH2 0xCA1 SWAP2 SWAP1 PUSH2 0x168F JUMP JUMPDEST TIMESTAMP LT ISZERO PUSH2 0xCE7 JUMPI PUSH1 0x40 MLOAD PUSH3 0x461BCD PUSH1 0xE5 SHL DUP2 MSTORE PUSH1 0x20 PUSH1 0x4 DUP3 ADD MSTORE PUSH1 0x14 PUSH1 0x24 DUP3 ADD MSTORE PUSH20 0x135A5B9D1A5B99C81D1BDBC8199C995C5D595B9D PUSH1 0x62 SHL PUSH1 0x44 DUP3 ADD MSTORE PUSH1 0x64 ADD PUSH2 0x664 JUMP JUMPDEST PUSH1 0x0 PUSH1 0x64 PUSH1 0x5 PUSH2 0xCF6 PUSH1 0x2 SLOAD SWAP1 JUMP JUMPDEST PUSH2 0xD00 SWAP2 SWAP1 PUSH2 0x16A2 JUMP JUMPDEST PUSH2 0xD0A SWAP2 SWAP1 PUSH2 0x16B9 JUMP JUMPDEST SWAP1 POP DUP1 DUP5 GT ISZERO PUSH2 0xD5C JUMPI PUSH1 0x40 MLOAD PUSH3 0x461BCD PUSH1 0xE5 SHL DUP2 MSTORE PUSH1 0x20 PUSH1 0x4 DUP3 ADD MSTORE PUSH1 0x1B PUSH1 0x24 DUP3 ADD MSTORE PUSH32 0x45786365656473206D6178206D696E742070657220706572696F640000000000 PUSH1 0x44 DUP3 ADD MSTORE PUSH1 0x64 ADD PUSH2 0x664 JUMP JUMPDEST TIMESTAMP PUSH1 0x9 SSTORE PUSH2 0xD6A DUP6 DUP6 PUSH2 0xEDC JUMP JUMPDEST DUP5 PUSH1 0x1 PUSH1 0x1 PUSH1 0xA0 SHL SUB AND PUSH32 0x9D89E36EADF856DB0AD9FFB5A569E07F95634DDDD9501141ECF04820484AD0DC DUP6 DUP6 PUSH1 0x40 MLOAD PUSH2 0xDA5 SWAP3 SWAP2 SWAP1 PUSH2 0x1788 JUMP JUMPDEST PUSH1 0x40 MLOAD DUP1 SWAP2 SUB SWAP1 LOG2 POP PUSH2 0x929 PUSH1 0x1 PUSH1 0x7 SSTORE JUMP JUMPDEST PUSH1 0x0 PUSH3 0x278D00 PUSH1 0x9 SLOAD PUSH2 0xDCB SWAP2 SWAP1 PUSH2 0x168F JUMP JUMPDEST SWAP1 POP SWAP1 JUMP JUMPDEST PUSH1 0x0 DUP3 DUP2 MSTORE PUSH1 0x6 PUSH1 0x20 MSTORE PUSH1 0x40 SWAP1 KECCAK256 PUSH1 0x1 ADD SLOAD PUSH2 0xDEB DUP2 PUSH2 0xEA8 JUMP JUMPDEST PUSH2 0x929 DUP4 DUP4 PUSH2 0x107E JUMP JUMPDEST PUSH2 0xDFD PUSH2 0x10EB JUMP JUMPDEST PUSH1 0x1 PUSH1 0x1 PUSH1 0xA0 SHL SUB DUP2 AND PUSH2 0xE27 JUMPI PUSH1 0x40 MLOAD PUSH4 0x1E4FBDF7 PUSH1 0xE0 SHL DUP2 MSTORE PUSH1 0x0 PUSH1 0x4 DUP3 ADD MSTORE PUSH1 0x24 ADD PUSH2 0x664 JUMP JUMPDEST PUSH2 0x9DB DUP2 PUSH2 0x1118 JUMP JUMPDEST PUSH1 0x0 PUSH1 0x1 PUSH1 0x1 PUSH1 0xE0 SHL SUB NOT DUP3 AND PUSH4 0x7965DB0B PUSH1 0xE0 SHL EQ DUP1 PUSH2 0x52E JUMPI POP PUSH4 0x1FFC9A7 PUSH1 0xE0 SHL PUSH1 0x1 PUSH1 0x1 PUSH1 0xE0 SHL SUB NOT DUP4 AND EQ PUSH2 0x52E JUMP JUMPDEST PUSH1 0x1 PUSH1 0x1 PUSH1 0xA0 SHL SUB DUP3 AND PUSH2 0xE8F JUMPI PUSH1 0x40 MLOAD PUSH4 0x4B637E8F PUSH1 0xE1 SHL DUP2 MSTORE PUSH1 0x0 PUSH1 0x4 DUP3 ADD MSTORE PUSH1 0x24 ADD PUSH2 0x664 JUMP JUMPDEST PUSH2 0xA64 DUP3 PUSH1 0x0 DUP4 PUSH2 0x116A JUMP JUMPDEST PUSH2 0x8DB DUP4 DUP4 DUP4 PUSH1 0x1 PUSH2 0x1294 JUMP JUMPDEST PUSH2 0x9DB DUP2 CALLER PUSH2 0x1369 JUMP JUMPDEST PUSH1 0x2 PUSH1 0x7 SLOAD SUB PUSH2 0xED5 JUMPI PUSH1 0x40 MLOAD PUSH4 0x3EE5AEB5 PUSH1 0xE0 SHL DUP2 MSTORE PUSH1 0x4 ADD PUSH1 0x40 MLOAD DUP1 SWAP2 SUB SWAP1 REVERT JUMPDEST PUSH1 0x2 PUSH1 0x7 SSTORE JUMP JUMPDEST PUSH1 0x1 PUSH1 0x1 PUSH1 0xA0 SHL SUB DUP3 AND PUSH2 0xF06 JUMPI PUSH1 0x40 MLOAD PUSH4 0xEC442F05 PUSH1 0xE0 SHL DUP2 MSTORE PUSH1 0x0 PUSH1 0x4 DUP3 ADD MSTORE PUSH1 0x24 ADD PUSH2 0x664 JUMP JUMPDEST PUSH2 0xA64 PUSH1 0x0 DUP4 DUP4 PUSH2 0x116A JUMP JUMPDEST PUSH1 0x1 PUSH1 0x1 PUSH1 0xA0 SHL SUB DUP4 DUP2 AND PUSH1 0x0 SWAP1 DUP2 MSTORE PUSH1 0x1 PUSH1 0x20 SWAP1 DUP2 MSTORE PUSH1 0x40 DUP1 DUP4 KECCAK256 SWAP4 DUP7 AND DUP4 MSTORE SWAP3 SWAP1 MSTORE KECCAK256 SLOAD PUSH1 0x0 NOT DUP2 LT ISZERO PUSH2 0x929 JUMPI DUP2 DUP2 LT ISZERO PUSH2 0xF7C JUMPI PUSH1 0x40 MLOAD PUSH4 0x7DC7A0D9 PUSH1 0xE1 SHL DUP2 MSTORE PUSH1 0x1 PUSH1 0x1 PUSH1 0xA0 SHL SUB DUP5 AND PUSH1 0x4 DUP3 ADD MSTORE PUSH1 0x24 DUP2 ADD DUP3 SWAP1 MSTORE PUSH1 0x44 DUP2 ADD DUP4 SWAP1 MSTORE PUSH1 0x64 ADD PUSH2 0x664 JUMP JUMPDEST PUSH2 0x929 DUP5 DUP5 DUP5 DUP5 SUB PUSH1 0x0 PUSH2 0x1294 JUMP JUMPDEST PUSH1 0x1 PUSH1 0x1 PUSH1 0xA0 SHL SUB DUP4 AND PUSH2 0xFB5 JUMPI PUSH1 0x40 MLOAD PUSH4 0x4B637E8F PUSH1 0xE1 SHL DUP2 MSTORE PUSH1 0x0 PUSH1 0x4 DUP3 ADD MSTORE PUSH1 0x24 ADD PUSH2 0x664 JUMP JUMPDEST PUSH1 0x1 PUSH1 0x1 PUSH1 0xA0 SHL SUB DUP3 AND PUSH2 0xFDF JUMPI PUSH1 0x40 MLOAD PUSH4 0xEC442F05 PUSH1 0xE0 SHL DUP2 MSTORE PUSH1 0x0 PUSH1 0x4 DUP3 ADD MSTORE PUSH1 0x24 ADD PUSH2 0x664 JUMP JUMPDEST PUSH2 0x8DB DUP4 DUP4 DUP4 PUSH2 0x116A JUMP JUMPDEST PUSH1 0x0 PUSH2 0xFF6 DUP4 DUP4 PUSH2 0xA68 JUMP JUMPDEST PUSH2 0x1076 JUMPI PUSH1 0x0 DUP4 DUP2 MSTORE PUSH1 0x6 PUSH1 0x20 SWAP1 DUP2 MSTORE PUSH1 0x40 DUP1 DUP4 KECCAK256 PUSH1 0x1 PUSH1 0x1 PUSH1 0xA0 SHL SUB DUP7 AND DUP5 MSTORE SWAP1 SWAP2 MSTORE SWAP1 KECCAK256 DUP1 SLOAD PUSH1 0xFF NOT AND PUSH1 0x1 OR SWAP1 SSTORE PUSH2 0x102E CALLER SWAP1 JUMP JUMPDEST PUSH1 0x1 PUSH1 0x1 PUSH1 0xA0 SHL SUB AND DUP3 PUSH1 0x1 PUSH1 0x1 PUSH1 0xA0 SHL SUB AND DUP5 PUSH32 0x2F8788117E7EFF1D82E926EC794901D17C78024A50270940304540A733656F0D PUSH1 0x40 MLOAD PUSH1 0x40 MLOAD DUP1 SWAP2 SUB SWAP1 LOG4 POP PUSH1 0x1 PUSH2 0x52E JUMP JUMPDEST POP PUSH1 0x0 PUSH2 0x52E JUMP JUMPDEST PUSH1 0x0 PUSH2 0x108A DUP4 DUP4 PUSH2 0xA68 JUMP JUMPDEST ISZERO PUSH2 0x1076 JUMPI PUSH1 0x0 DUP4 DUP2 MSTORE PUSH1 0x6 PUSH1 0x20 SWAP1 DUP2 MSTORE PUSH1 0x40 DUP1 DUP4 KECCAK256 PUSH1 0x1 PUSH1 0x1 PUSH1 0xA0 SHL SUB DUP7 AND DUP1 DUP6 MSTORE SWAP3 MSTORE DUP1 DUP4 KECCAK256 DUP1 SLOAD PUSH1 0xFF NOT AND SWAP1 SSTORE MLOAD CALLER SWAP3 DUP7 SWAP2 PUSH32 0xF6391F5C32D9C69D2A47EA670B442974B53935D1EDC7FD64EB21E047A839171B SWAP2 SWAP1 LOG4 POP PUSH1 0x1 PUSH2 0x52E JUMP JUMPDEST PUSH1 0x5 SLOAD PUSH1 0x1 PUSH1 0x1 PUSH1 0xA0 SHL SUB AND CALLER EQ PUSH2 0xA4D JUMPI PUSH1 0x40 MLOAD PUSH4 0x118CDAA7 PUSH1 0xE0 SHL DUP2 MSTORE CALLER PUSH1 0x4 DUP3 ADD MSTORE PUSH1 0x24 ADD PUSH2 0x664 JUMP JUMPDEST PUSH1 0x5 DUP1 SLOAD PUSH1 0x1 PUSH1 0x1 PUSH1 0xA0 SHL SUB DUP4 DUP2 AND PUSH1 0x1 PUSH1 0x1 PUSH1 0xA0 SHL SUB NOT DUP4 AND DUP2 OR SWAP1 SWAP4 SSTORE PUSH1 0x40 MLOAD SWAP2 AND SWAP2 SWAP1 DUP3 SWAP1 PUSH32 0x8BE0079C531659141344CD1FD0A4F28419497F9722A3DAAFE3B4186F6B6457E0 SWAP1 PUSH1 0x0 SWAP1 LOG3 POP POP JUMP JUMPDEST PUSH1 0x1 PUSH1 0x1 PUSH1 0xA0 SHL SUB DUP4 AND PUSH2 0x1195 JUMPI DUP1 PUSH1 0x2 PUSH1 0x0 DUP3 DUP3 SLOAD PUSH2 0x118A SWAP2 SWAP1 PUSH2 0x168F JUMP JUMPDEST SWAP1 SWAP2 SSTORE POP PUSH2 0x1207 SWAP1 POP JUMP JUMPDEST PUSH1 0x1 PUSH1 0x1 PUSH1 0xA0 SHL SUB DUP4 AND PUSH1 0x0 SWAP1 DUP2 MSTORE PUSH1 0x20 DUP2 SWAP1 MSTORE PUSH1 0x40 SWAP1 KECCAK256 SLOAD DUP2 DUP2 LT ISZERO PUSH2 0x11E8 JUMPI PUSH1 0x40 MLOAD PUSH4 0x391434E3 PUSH1 0xE2 SHL DUP2 MSTORE PUSH1 0x1 PUSH1 0x1 PUSH1 0xA0 SHL SUB DUP6 AND PUSH1 0x4 DUP3 ADD MSTORE PUSH1 0x24 DUP2 ADD DUP3 SWAP1 MSTORE PUSH1 0x44 DUP2 ADD DUP4 SWAP1 MSTORE PUSH1 0x64 ADD PUSH2 0x664 JUMP JUMPDEST PUSH1 0x1 PUSH1 0x1 PUSH1 0xA0 SHL SUB DUP5 AND PUSH1 0x0 SWAP1 DUP2 MSTORE PUSH1 0x20 DUP2 SWAP1 MSTORE PUSH1 0x40 SWAP1 KECCAK256 SWAP1 DUP3 SWAP1 SUB SWAP1 SSTORE JUMPDEST PUSH1 0x1 PUSH1 0x1 PUSH1 0xA0 SHL SUB DUP3 AND PUSH2 0x1223 JUMPI PUSH1 0x2 DUP1 SLOAD DUP3 SWAP1 SUB SWAP1 SSTORE PUSH2 0x1242 JUMP JUMPDEST PUSH1 0x1 PUSH1 0x1 PUSH1 0xA0 SHL SUB DUP3 AND PUSH1 0x0 SWAP1 DUP2 MSTORE PUSH1 0x20 DUP2 SWAP1 MSTORE PUSH1 0x40 SWAP1 KECCAK256 DUP1 SLOAD DUP3 ADD SWAP1 SSTORE JUMPDEST DUP2 PUSH1 0x1 PUSH1 0x1 PUSH1 0xA0 SHL SUB AND DUP4 PUSH1 0x1 PUSH1 0x1 PUSH1 0xA0 SHL SUB AND PUSH32 0xDDF252AD1BE2C89B69C2B068FC378DAA952BA7F163C4A11628F55A4DF523B3EF DUP4 PUSH1 0x40 MLOAD PUSH2 0x1287 SWAP2 DUP2 MSTORE PUSH1 0x20 ADD SWAP1 JUMP JUMPDEST PUSH1 0x40 MLOAD DUP1 SWAP2 SUB SWAP1 LOG3 POP POP POP JUMP JUMPDEST PUSH1 0x1 PUSH1 0x1 PUSH1 0xA0 SHL SUB DUP5 AND PUSH2 0x12BE JUMPI PUSH1 0x40 MLOAD PUSH4 0xE602DF05 PUSH1 0xE0 SHL DUP2 MSTORE PUSH1 0x0 PUSH1 0x4 DUP3 ADD MSTORE PUSH1 0x24 ADD PUSH2 0x664 JUMP JUMPDEST PUSH1 0x1 PUSH1 0x1 PUSH1 0xA0 SHL SUB DUP4 AND PUSH2 0x12E8 JUMPI PUSH1 0x40 MLOAD PUSH4 0x4A1406B1 PUSH1 0xE1 SHL DUP2 MSTORE PUSH1 0x0 PUSH1 0x4 DUP3 ADD MSTORE PUSH1 0x24 ADD PUSH2 0x664 JUMP JUMPDEST PUSH1 0x1 PUSH1 0x1 PUSH1 0xA0 SHL SUB DUP1 DUP6 AND PUSH1 0x0 SWAP1 DUP2 MSTORE PUSH1 0x1 PUSH1 0x20 SWAP1 DUP2 MSTORE PUSH1 0x40 DUP1 DUP4 KECCAK256 SWAP4 DUP8 AND DUP4 MSTORE SWAP3 SWAP1 MSTORE KECCAK256 DUP3 SWAP1 SSTORE DUP1 ISZERO PUSH2 0x929 JUMPI DUP3 PUSH1 0x1 PUSH1 0x1 PUSH1 0xA0 SHL SUB AND DUP5 PUSH1 0x1 PUSH1 0x1 PUSH1 0xA0 SHL SUB AND PUSH32 0x8C5BE1E5EBEC7D5BD14F71427D1E84F3DD0314C0F7B2291E5B200AC8C7C3B925 DUP5 PUSH1 0x40 MLOAD PUSH2 0x135B SWAP2 DUP2 MSTORE PUSH1 0x20 ADD SWAP1 JUMP JUMPDEST PUSH1 0x40 MLOAD DUP1 SWAP2 SUB SWAP1 LOG3 POP POP POP POP JUMP JUMPDEST PUSH2 0x1373 DUP3 DUP3 PUSH2 0xA68 JUMP JUMPDEST PUSH2 0xA64 JUMPI PUSH1 0x40 MLOAD PUSH4 0xE2517D3F PUSH1 0xE0 SHL DUP2 MSTORE PUSH1 0x1 PUSH1 0x1 PUSH1 0xA0 SHL SUB DUP3 AND PUSH1 0x4 DUP3 ADD MSTORE PUSH1 0x24 DUP2 ADD DUP4 SWAP1 MSTORE PUSH1 0x44 ADD PUSH2 0x664 JUMP JUMPDEST PUSH1 0x0 PUSH1 0x20 DUP3 DUP5 SUB SLT ISZERO PUSH2 0x13B4 JUMPI PUSH1 0x0 DUP1 REVERT JUMPDEST DUP2 CALLDATALOAD PUSH1 0x1 PUSH1 0x1 PUSH1 0xE0 SHL SUB NOT DUP2 AND DUP2 EQ PUSH2 0x13CC JUMPI PUSH1 0x0 DUP1 REVERT JUMPDEST SWAP4 SWAP3 POP POP POP JUMP JUMPDEST PUSH1 0x0 DUP2 MLOAD DUP1 DUP5 MSTORE PUSH1 0x0 JUMPDEST DUP2 DUP2 LT ISZERO PUSH2 0x13F9 JUMPI PUSH1 0x20 DUP2 DUP6 ADD DUP2 ADD MLOAD DUP7 DUP4 ADD DUP3 ADD MSTORE ADD PUSH2 0x13DD JUMP JUMPDEST POP PUSH1 0x0 PUSH1 0x20 DUP3 DUP7 ADD ADD MSTORE PUSH1 0x20 PUSH1 0x1F NOT PUSH1 0x1F DUP4 ADD AND DUP6 ADD ADD SWAP2 POP POP SWAP3 SWAP2 POP POP JUMP JUMPDEST PUSH1 0x20 DUP2 MSTORE PUSH1 0x0 PUSH2 0x13CC PUSH1 0x20 DUP4 ADD DUP5 PUSH2 0x13D3 JUMP JUMPDEST PUSH4 0x4E487B71 PUSH1 0xE0 SHL PUSH1 0x0 MSTORE PUSH1 0x41 PUSH1 0x4 MSTORE PUSH1 0x24 PUSH1 0x0 REVERT JUMPDEST PUSH1 0x0 DUP3 PUSH1 0x1F DUP4 ADD SLT PUSH2 0x1453 JUMPI PUSH1 0x0 DUP1 REVERT JUMPDEST DUP2 CALLDATALOAD PUSH8 0xFFFFFFFFFFFFFFFF DUP1 DUP3 GT ISZERO PUSH2 0x146E JUMPI PUSH2 0x146E PUSH2 0x142C JUMP JUMPDEST PUSH1 0x40 MLOAD PUSH1 0x1F DUP4 ADD PUSH1 0x1F NOT SWAP1 DUP2 AND PUSH1 0x3F ADD AND DUP2 ADD SWAP1 DUP3 DUP3 GT DUP2 DUP4 LT OR ISZERO PUSH2 0x1496 JUMPI PUSH2 0x1496 PUSH2 0x142C JUMP JUMPDEST DUP2 PUSH1 0x40 MSTORE DUP4 DUP2 MSTORE DUP7 PUSH1 0x20 DUP6 DUP9 ADD ADD GT ISZERO PUSH2 0x14AF JUMPI PUSH1 0x0 DUP1 REVERT JUMPDEST DUP4 PUSH1 0x20 DUP8 ADD PUSH1 0x20 DUP4 ADD CALLDATACOPY PUSH1 0x0 PUSH1 0x20 DUP6 DUP4 ADD ADD MSTORE DUP1 SWAP5 POP POP POP POP POP SWAP3 SWAP2 POP POP JUMP JUMPDEST PUSH1 0x0 DUP1 PUSH1 0x40 DUP4 DUP6 SUB SLT ISZERO PUSH2 0x14E2 JUMPI PUSH1 0x0 DUP1 REVERT JUMPDEST DUP3 CALLDATALOAD SWAP2 POP PUSH1 0x20 DUP4 ADD CALLDATALOAD PUSH8 0xFFFFFFFFFFFFFFFF DUP2 GT ISZERO PUSH2 0x1500 JUMPI PUSH1 0x0 DUP1 REVERT JUMPDEST PUSH2 0x150C DUP6 DUP3 DUP7 ADD PUSH2 0x1442 JUMP JUMPDEST SWAP2 POP POP SWAP3 POP SWAP3 SWAP1 POP JUMP JUMPDEST DUP1 CALLDATALOAD PUSH1 0x1 PUSH1 0x1 PUSH1 0xA0 SHL SUB DUP2 AND DUP2 EQ PUSH2 0x152D JUMPI PUSH1 0x0 DUP1 REVERT JUMPDEST SWAP2 SWAP1 POP JUMP JUMPDEST PUSH1 0x0 DUP1 PUSH1 0x40 DUP4 DUP6 SUB SLT ISZERO PUSH2 0x1545 JUMPI PUSH1 0x0 DUP1 REVERT JUMPDEST PUSH2 0x154E DUP4 PUSH2 0x1516 JUMP JUMPDEST SWAP5 PUSH1 0x20 SWAP4 SWAP1 SWAP4 ADD CALLDATALOAD SWAP4 POP POP POP JUMP JUMPDEST PUSH1 0x0 DUP1 PUSH1 0x0 PUSH1 0x60 DUP5 DUP7 SUB SLT ISZERO PUSH2 0x1571 JUMPI PUSH1 0x0 DUP1 REVERT JUMPDEST PUSH2 0x157A DUP5 PUSH2 0x1516 JUMP JUMPDEST SWAP3 POP PUSH2 0x1588 PUSH1 0x20 DUP6 ADD PUSH2 0x1516 JUMP JUMPDEST SWAP2 POP PUSH1 0x40 DUP5 ADD CALLDATALOAD SWAP1 POP SWAP3 POP SWAP3 POP SWAP3 JUMP JUMPDEST PUSH1 0x0 PUSH1 0x20 DUP3 DUP5 SUB SLT ISZERO PUSH2 0x15AA JUMPI PUSH1 0x0 DUP1 REVERT JUMPDEST POP CALLDATALOAD SWAP2 SWAP1 POP JUMP JUMPDEST PUSH1 0x0 DUP1 PUSH1 0x40 DUP4 DUP6 SUB SLT ISZERO PUSH2 0x15C4 JUMPI PUSH1 0x0 DUP1 REVERT JUMPDEST DUP3 CALLDATALOAD SWAP2 POP PUSH2 0x15D4 PUSH1 0x20 DUP5 ADD PUSH2 0x1516 JUMP JUMPDEST SWAP1 POP SWAP3 POP SWAP3 SWAP1 POP JUMP JUMPDEST PUSH1 0x0 PUSH1 0x20 DUP3 DUP5 SUB SLT ISZERO PUSH2 0x15EF JUMPI PUSH1 0x0 DUP1 REVERT JUMPDEST PUSH2 0x13CC DUP3 PUSH2 0x1516 JUMP JUMPDEST PUSH1 0x0 DUP1 PUSH1 0x0 PUSH1 0x60 DUP5 DUP7 SUB SLT ISZERO PUSH2 0x160D JUMPI PUSH1 0x0 DUP1 REVERT JUMPDEST PUSH2 0x1616 DUP5 PUSH2 0x1516 JUMP JUMPDEST SWAP3 POP PUSH1 0x20 DUP5 ADD CALLDATALOAD SWAP2 POP PUSH1 0x40 DUP5 ADD CALLDATALOAD PUSH8 0xFFFFFFFFFFFFFFFF DUP2 GT ISZERO PUSH2 0x1639 JUMPI PUSH1 0x0 DUP1 REVERT JUMPDEST PUSH2 0x1645 DUP7 DUP3 DUP8 ADD PUSH2 0x1442 JUMP JUMPDEST SWAP2 POP POP SWAP3 POP SWAP3 POP SWAP3 JUMP JUMPDEST PUSH1 0x0 DUP1 PUSH1 0x40 DUP4 DUP6 SUB SLT ISZERO PUSH2 0x1662 JUMPI PUSH1 0x0 DUP1 REVERT JUMPDEST PUSH2 0x166B DUP4 PUSH2 0x1516 JUMP JUMPDEST SWAP2 POP PUSH2 0x15D4 PUSH1 0x20 DUP5 ADD PUSH2 0x1516 JUMP JUMPDEST PUSH4 0x4E487B71 PUSH1 0xE0 SHL PUSH1 0x0 MSTORE PUSH1 0x11 PUSH1 0x4 MSTORE PUSH1 0x24 PUSH1 0x0 REVERT JUMPDEST DUP1 DUP3 ADD DUP1 DUP3 GT ISZERO PUSH2 0x52E JUMPI PUSH2 0x52E PUSH2 0x1679 JUMP JUMPDEST DUP1 DUP3 MUL DUP2 ISZERO DUP3 DUP3 DIV DUP5 EQ OR PUSH2 0x52E JUMPI PUSH2 0x52E PUSH2 0x1679 JUMP JUMPDEST PUSH1 0x0 DUP3 PUSH2 0x16D6 JUMPI PUSH4 0x4E487B71 PUSH1 0xE0 SHL PUSH1 0x0 MSTORE PUSH1 0x12 PUSH1 0x4 MSTORE PUSH1 0x24 PUSH1 0x0 REVERT JUMPDEST POP DIV SWAP1 JUMP JUMPDEST DUP2 DUP2 SUB DUP2 DUP2 GT ISZERO PUSH2 0x52E JUMPI PUSH2 0x52E PUSH2 0x1679 JUMP JUMPDEST PUSH1 0x1 DUP2 DUP2 SHR SWAP1 DUP3 AND DUP1 PUSH2 0x1702 JUMPI PUSH1 0x7F DUP3 AND SWAP2 POP JUMPDEST PUSH1 0x20 DUP3 LT DUP2 SUB PUSH2 0x1722 JUMPI PUSH4 0x4E487B71 PUSH1 0xE0 SHL PUSH1 0x0 MSTORE PUSH1 0x22 PUSH1 0x4 MSTORE PUSH1 0x24 PUSH1 0x0 REVERT JUMPDEST POP SWAP2 SWAP1 POP JUMP JUMPDEST PUSH1 0x20 DUP1 DUP3 MSTORE PUSH1 0x1D SWAP1 DUP3 ADD MSTORE PUSH32 0x416D6F756E74206D7573742062652067726561746572207468616E2030000000 PUSH1 0x40 DUP3 ADD MSTORE PUSH1 0x60 ADD SWAP1 JUMP JUMPDEST PUSH1 0x20 DUP1 DUP3 MSTORE PUSH1 0xF SWAP1 DUP3 ADD MSTORE PUSH15 0x1499585CDBDB881C995C5D5A5C9959 PUSH1 0x8A SHL PUSH1 0x40 DUP3 ADD MSTORE PUSH1 0x60 ADD SWAP1 JUMP JUMPDEST DUP3 DUP2 MSTORE PUSH1 0x40 PUSH1 0x20 DUP3 ADD MSTORE PUSH1 0x0 PUSH2 0x17A1 PUSH1 0x40 DUP4 ADD DUP5 PUSH2 0x13D3 JUMP JUMPDEST SWAP5 SWAP4 POP POP POP POP JUMP INVALID PUSH18 0x840DC4906352362B0CDAF79870196C8E42AC 0xAF 0xAD 0xE7 0x2D 0x5D GAS PUSH14 0x59291253CEB1A264697066735822 SLT KECCAK256 SWAP13 STOP EXTCODESIZE 0xAB 0xA7 INVALID 0xBD 0xBE CALLCODE DUP5 POP PUSH21 0x1D0AA2F135E62915423C86F568C7FDD2A4ED28FF64 PUSH20 0x6F6C634300081400330000000000000000000000 "},"methodIdentifiers":{"DEFAULT_ADMIN_ROLE()":"a217fddf","GOVERNANCE_ROLE()":"f36c8f5c","MAX_MINT_PERCENT()":"2ac234c0","MAX_SUPPLY()":"32cb6b0c","MINTER_ROLE()":"d5391393","MIN_MINT_INTERVAL()":"a9f8ad04","allowance(address,address)":"dd62ed3e","approve(address,uint256)":"095ea7b3","balanceOf(address)":"70a08231","burn(uint256)":"42966c68","burnFrom(address,uint256)":"79cc6790","burnFrom(address,uint256,string)":"979430d2","burnWithReason(uint256,string)":"091273a7","decimals()":"313ce567","getMaxMintableAmount()":"02107482","getNextMintTime()":"be146adc","getRoleAdmin(bytes32)":"248a9ca3","getTokenStats()":"097cd9bf","grantGovernanceRole(address)":"60360700","grantMinterRole(address)":"3dd1eb61","grantRole(bytes32,address)":"2f2ff15d","hasRole(bytes32,address)":"91d14854","lastMintTime()":"9d463520","mintByGovernance(address,uint256,string)":"ae88e676","mintStakingReward(address,uint256)":"1bd2a15d","name()":"06fdde03","owner()":"8da5cb5b","renounceOwnership()":"715018a6","renounceRole(bytes32,address)":"36568abe","revokeRole(bytes32,address)":"d547741f","supportsInterface(bytes4)":"01ffc9a7","symbol()":"95d89b41","totalBurned()":"d89135cd","totalSupply()":"18160ddd","transfer(address,uint256)":"a9059cbb","transferFrom(address,address,uint256)":"23b872dd","transferOwnership(address)":"f2fde38b"}}}}}