{
  "_format": "hh-sol-artifact-1",
  "contractName": "KAUS_NFT",
  "sourceName": "contracts/KAUS_NFT.sol",
  "abi": [
    {
      "inputs": [],
      "stateMutability": "nonpayable",
      "type": "constructor"
    },
    {
      "inputs": [
        {
          "internalType": "address",
          "name": "sender",
          "type": "address"
        },
        {
          "internalType": "uint256",
          "name": "tokenId",
          "type": "uint256"
        },
        {
          "internalType": "address",
          "name": "owner",
          "type": "address"
        }
      ],
      "name": "ERC721IncorrectOwner",
      "type": "error"
    },
    {
      "inputs": [
        {
          "internalType": "address",
          "name": "operator",
          "type": "address"
        },
        {
          "internalType": "uint256",
          "name": "tokenId",
          "type": "uint256"
        }
      ],
      "name": "ERC721InsufficientApproval",
      "type": "error"
    },
    {
      "inputs": [
        {
          "internalType": "address",
          "name": "approver",
          "type": "address"
        }
      ],
      "name": "ERC721InvalidApprover",
      "type": "error"
    },
    {
      "inputs": [
        {
          "internalType": "address",
          "name": "operator",
          "type": "address"
        }
      ],
      "name": "ERC721InvalidOperator",
      "type": "error"
    },
    {
      "inputs": [
        {
          "internalType": "address",
          "name": "owner",
          "type": "address"
        }
      ],
      "name": "ERC721InvalidOwner",
      "type": "error"
    },
    {
      "inputs": [
        {
          "internalType": "address",
          "name": "receiver",
          "type": "address"
        }
      ],
      "name": "ERC721InvalidReceiver",
      "type": "error"
    },
    {
      "inputs": [
        {
          "internalType": "address",
          "name": "sender",
          "type": "address"
        }
      ],
      "name": "ERC721InvalidSender",
      "type": "error"
    },
    {
      "inputs": [
        {
          "internalType": "uint256",
          "name": "tokenId",
          "type": "uint256"
        }
      ],
      "name": "ERC721NonexistentToken",
      "type": "error"
    },
    {
      "inputs": [
        {
          "internalType": "address",
          "name": "owner",
          "type": "address"
        }
      ],
      "name": "OwnableInvalidOwner",
      "type": "error"
    },
    {
      "inputs": [
        {
          "internalType": "address",
          "name": "account",
          "type": "address"
        }
      ],
      "name": "OwnableUnauthorizedAccount",
      "type": "error"
    },
    {
      "anonymous": false,
      "inputs": [
        {
          "indexed": true,
          "internalType": "address",
          "name": "owner",
          "type": "address"
        },
        {
          "indexed": true,
          "internalType": "address",
          "name": "approved",
          "type": "address"
        },
        {
          "indexed": true,
          "internalType": "uint256",
          "name": "tokenId",
          "type": "uint256"
        }
      ],
      "name": "Approval",
      "type": "event"
    },
    {
      "anonymous": false,
      "inputs": [
        {
          "indexed": true,
          "internalType": "address",
          "name": "owner",
          "type": "address"
        },
        {
          "indexed": true,
          "internalType": "address",
          "name": "operator",
          "type": "address"
        },
        {
          "indexed": false,
          "internalType": "bool",
          "name": "approved",
          "type": "bool"
        }
      ],
      "name": "ApprovalForAll",
      "type": "event"
    },
    {
      "anonymous": false,
      "inputs": [
        {
          "indexed": true,
          "internalType": "uint256",
          "name": "tokenId",
          "type": "uint256"
        }
      ],
      "name": "AuthenticationRevoked",
      "type": "event"
    },
    {
      "anonymous": false,
      "inputs": [
        {
          "indexed": false,
          "internalType": "uint256",
          "name": "_fromTokenId",
          "type": "uint256"
        },
        {
          "indexed": false,
          "internalType": "uint256",
          "name": "_toTokenId",
          "type": "uint256"
        }
      ],
      "name": "BatchMetadataUpdate",
      "type": "event"
    },
    {
      "anonymous": false,
      "inputs": [
        {
          "indexed": false,
          "internalType": "uint256",
          "name": "_tokenId",
          "type": "uint256"
        }
      ],
      "name": "MetadataUpdate",
      "type": "event"
    },
    {
      "anonymous": false,
      "inputs": [
        {
          "indexed": true,
          "internalType": "uint256",
          "name": "tokenId",
          "type": "uint256"
        },
        {
          "indexed": true,
          "internalType": "address",
          "name": "owner",
          "type": "address"
        },
        {
          "indexed": false,
          "internalType": "string",
          "name": "productId",
          "type": "string"
        },
        {
          "indexed": false,
          "internalType": "string",
          "name": "orderId",
          "type": "string"
        },
        {
          "indexed": false,
          "internalType": "string",
          "name": "brand",
          "type": "string"
        },
        {
          "indexed": false,
          "internalType": "string",
          "name": "productName",
          "type": "string"
        },
        {
          "indexed": false,
          "internalType": "uint256",
          "name": "mintedAt",
          "type": "uint256"
        }
      ],
      "name": "NFTMinted",
      "type": "event"
    },
    {
      "anonymous": false,
      "inputs": [
        {
          "indexed": true,
          "internalType": "address",
          "name": "previousOwner",
          "type": "address"
        },
        {
          "indexed": true,
          "internalType": "address",
          "name": "newOwner",
          "type": "address"
        }
      ],
      "name": "OwnershipTransferred",
      "type": "event"
    },
    {
      "anonymous": false,
      "inputs": [
        {
          "indexed": true,
          "internalType": "address",
          "name": "from",
          "type": "address"
        },
        {
          "indexed": true,
          "internalType": "address",
          "name": "to",
          "type": "address"
        },
        {
          "indexed": true,
          "internalType": "uint256",
          "name": "tokenId",
          "type": "uint256"
        }
      ],
      "name": "Transfer",
      "type": "event"
    },
    {
      "inputs": [
        {
          "internalType": "address",
          "name": "to",
          "type": "address"
        },
        {
          "internalType": "uint256",
          "name": "tokenId",
          "type": "uint256"
        }
      ],
      "name": "approve",
      "outputs": [],
      "stateMutability": "nonpayable",
      "type": "function"
    },
    {
      "inputs": [
        {
          "internalType": "uint256",
          "name": "",
          "type": "uint256"
        }
      ],
      "name": "authentications",
      "outputs": [
        {
          "internalType": "string",
          "name": "productId",
          "type": "string"
        },
        {
          "internalType": "string",
          "name": "orderId",
          "type": "string"
        },
        {
          "internalType": "string",
          "name": "brand",
          "type": "string"
        },
        {
          "internalType": "string",
          "name": "productName",
          "type": "string"
        },
        {
          "internalType": "uint256",
          "name": "mintedAt",
          "type": "uint256"
        },
        {
          "internalType": "bool",
          "name": "isValid",
          "type": "bool"
        }
      ],
      "stateMutability": "view",
      "type": "function"
    },
    {
      "inputs": [
        {
          "internalType": "address",
          "name": "owner",
          "type": "address"
        }
      ],
      "name": "balanceOf",
      "outputs": [
        {
          "internalType": "uint256",
          "name": "",
          "type": "uint256"
        }
      ],
      "stateMutability": "view",
      "type": "function"
    },
    {
      "inputs": [
        {
          "internalType": "uint256",
          "name": "tokenId",
          "type": "uint256"
        }
      ],
      "name": "getApproved",
      "outputs": [
        {
          "internalType": "address",
          "name": "",
          "type": "address"
        }
      ],
      "stateMutability": "view",
      "type": "function"
    },
    {
      "inputs": [
        {
          "internalType": "uint256",
          "name": "tokenId",
          "type": "uint256"
        }
      ],
      "name": "getAuthentication",
      "outputs": [
        {
          "components": [
            {
              "internalType": "string",
              "name": "productId",
              "type": "string"
            },
            {
              "internalType": "string",
              "name": "orderId",
              "type": "string"
            },
            {
              "internalType": "string",
              "name": "brand",
              "type": "string"
            },
            {
              "internalType": "string",
              "name": "productName",
              "type": "string"
            },
            {
              "internalType": "uint256",
              "name": "mintedAt",
              "type": "uint256"
            },
            {
              "internalType": "bool",
              "name": "isValid",
              "type": "bool"
            }
          ],
          "internalType": "struct KAUS_NFT.ProductAuthentication",
          "name": "",
          "type": "tuple"
        }
      ],
      "stateMutability": "view",
      "type": "function"
    },
    {
      "inputs": [
        {
          "internalType": "address",
          "name": "owner",
          "type": "address"
        },
        {
          "internalType": "address",
          "name": "operator",
          "type": "address"
        }
      ],
      "name": "isApprovedForAll",
      "outputs": [
        {
          "internalType": "bool",
          "name": "",
          "type": "bool"
        }
      ],
      "stateMutability": "view",
      "type": "function"
    },
    {
      "inputs": [
        {
          "internalType": "uint256",
          "name": "tokenId",
          "type": "uint256"
        }
      ],
      "name": "isAuthenticationValid",
      "outputs": [
        {
          "internalType": "bool",
          "name": "",
          "type": "bool"
        }
      ],
      "stateMutability": "view",
      "type": "function"
    },
    {
      "inputs": [
        {
          "internalType": "address",
          "name": "recipient",
          "type": "address"
        },
        {
          "internalType": "string",
          "name": "productId",
          "type": "string"
        },
        {
          "internalType": "string",
          "name": "orderId",
          "type": "string"
        },
        {
          "internalType": "string",
          "name": "brand",
          "type": "string"
        },
        {
          "internalType": "string",
          "name": "productName",
          "type": "string"
        },
        {
          "internalType": "string",
          "name": "tokenURI",
          "type": "string"
        }
      ],
      "name": "mintNFT",
      "outputs": [
        {
          "internalType": "uint256",
          "name": "",
          "type": "uint256"
        }
      ],
      "stateMutability": "nonpayable",
      "type": "function"
    },
    {
      "inputs": [],
      "name": "name",
      "outputs": [
        {
          "internalType": "string",
          "name": "",
          "type": "string"
        }
      ],
      "stateMutability": "view",
      "type": "function"
    },
    {
      "inputs": [],
      "name": "owner",
      "outputs": [
        {
          "internalType": "address",
          "name": "",
          "type": "address"
        }
      ],
      "stateMutability": "view",
      "type": "function"
    },
    {
      "inputs": [
        {
          "internalType": "uint256",
          "name": "tokenId",
          "type": "uint256"
        }
      ],
      "name": "ownerOf",
      "outputs": [
        {
          "internalType": "address",
          "name": "",
          "type": "address"
        }
      ],
      "stateMutability": "view",
      "type": "function"
    },
    {
      "inputs": [],
      "name": "renounceOwnership",
      "outputs": [],
      "stateMutability": "nonpayable",
      "type": "function"
    },
    {
      "inputs": [
        {
          "internalType": "uint256",
          "name": "tokenId",
          "type": "uint256"
        }
      ],
      "name": "revokeAuthentication",
      "outputs": [],
      "stateMutability": "nonpayable",
      "type": "function"
    },
    {
      "inputs": [
        {
          "internalType": "address",
          "name": "from",
          "type": "address"
        },
        {
          "internalType": "address",
          "name": "to",
          "type": "address"
        },
        {
          "internalType": "uint256",
          "name": "tokenId",
          "type": "uint256"
        }
      ],
      "name": "safeTransferFrom",
      "outputs": [],
      "stateMutability": "nonpayable",
      "type": "function"
    },
    {
      "inputs": [
        {
          "internalType": "address",
          "name": "from",
          "type": "address"
        },
        {
          "internalType": "address",
          "name": "to",
          "type": "address"
        },
        {
          "internalType": "uint256",
          "name": "tokenId",
          "type": "uint256"
        },
        {
          "internalType": "bytes",
          "name": "data",
          "type": "bytes"
        }
      ],
      "name": "safeTransferFrom",
      "outputs": [],
      "stateMutability": "nonpayable",
      "type": "function"
    },
    {
      "inputs": [
        {
          "internalType": "address",
          "name": "operator",
          "type": "address"
        },
        {
          "internalType": "bool",
          "name": "approved",
          "type": "bool"
        }
      ],
      "name": "setApprovalForAll",
      "outputs": [],
      "stateMutability": "nonpayable",
      "type": "function"
    },
    {
      "inputs": [
        {
          "internalType": "bytes4",
          "name": "interfaceId",
          "type": "bytes4"
        }
      ],
      "name": "supportsInterface",
      "outputs": [
        {
          "internalType": "bool",
          "name": "",
          "type": "bool"
        }
      ],
      "stateMutability": "view",
      "type": "function"
    },
    {
      "inputs": [],
      "name": "symbol",
      "outputs": [
        {
          "internalType": "string",
          "name": "",
          "type": "string"
        }
      ],
      "stateMutability": "view",
      "type": "function"
    },
    {
      "inputs": [
        {
          "internalType": "uint256",
          "name": "tokenId",
          "type": "uint256"
        }
      ],
      "name": "tokenURI",
      "outputs": [
        {
          "internalType": "string",
          "name": "",
          "type": "string"
        }
      ],
      "stateMutability": "view",
      "type": "function"
    },
    {
      "inputs": [],
      "name": "totalSupply",
      "outputs": [
        {
          "internalType": "uint256",
          "name": "",
          "type": "uint256"
        }
      ],
      "stateMutability": "view",
      "type": "function"
    },
    {
      "inputs": [
        {
          "internalType": "address",
          "name": "from",
          "type": "address"
        },
        {
          "internalType": "address",
          "name": "to",
          "type": "address"
        },
        {
          "internalType": "uint256",
          "name": "tokenId",
          "type": "uint256"
        }
      ],
      "name": "transferFrom",
      "outputs": [],
      "stateMutability": "nonpayable",
      "type": "function"
    },
    {
      "inputs": [
        {
          "internalType": "address",
          "name": "newOwner",
          "type": "address"
        }
      ],
      "name": "transferOwnership",
      "outputs": [],
      "stateMutability": "nonpayable",
      "type": "function"
    }
  ],
  "bytecode": "0x60806040523480156200001157600080fd5b50336040518060400160405280601381526020017f4b4155532041757468656e7469636174696f6e00000000000000000000000000815250604051806040016040528060048152602001634b41555360e01b8152508160009081620000779190620001c6565b506001620000868282620001c6565b5050506001600160a01b038116620000b857604051631e4fbdf760e01b81526000600482015260240160405180910390fd5b620000c381620000cf565b50600160085562000292565b600780546001600160a01b038381166001600160a01b0319831681179093556040519116919082907f8be0079c531659141344cd1fd0a4f28419497f9722a3daafe3b4186f6b6457e090600090a35050565b634e487b7160e01b600052604160045260246000fd5b600181811c908216806200014c57607f821691505b6020821081036200016d57634e487b7160e01b600052602260045260246000fd5b50919050565b601f821115620001c157600081815260208120601f850160051c810160208610156200019c5750805b601f850160051c820191505b81811015620001bd57828155600101620001a8565b5050505b505050565b81516001600160401b03811115620001e257620001e262000121565b620001fa81620001f3845462000137565b8462000173565b602080601f831160018114620002325760008415620002195750858301515b600019600386901b1c1916600185901b178555620001bd565b600085815260208120601f198616915b82811015620002635788860151825594840194600190910190840162000242565b5085821015620002825787850151600019600388901b60f8161c191681555b5050505050600190811b01905550565b611fca80620002a26000396000f3fe608060405234801561001057600080fd5b50600436106101425760003560e01c806370a08231116100b8578063a22cb4651161007c578063a22cb465146102a5578063b88d4fde146102b8578063c87b56dd146102cb578063e985e9c5146102de578063ec31fee8146102f1578063f2fde38b1461031157600080fd5b806370a082311461025e578063715018a6146102715780638da5cb5b1461027957806395d89b411461028a5780639da4b29d1461029257600080fd5b80631cd78d121161010a5780631cd78d12146101da57806323b872dd146101ed57806339aeccc01461020057806342842e0e146102255780636352211e146102385780636ec7e0b21461024b57600080fd5b806301ffc9a71461014757806306fdde031461016f578063081812fc14610184578063095ea7b3146101af57806318160ddd146101c4575b600080fd5b61015a61015536600461184d565b610324565b60405190151581526020015b60405180910390f35b610177610335565b60405161016691906118ba565b6101976101923660046118cd565b6103c7565b6040516001600160a01b039091168152602001610166565b6101c26101bd366004611902565b6103f0565b005b6101cc6103ff565b604051908152602001610166565b61015a6101e83660046118cd565b610415565b6101c26101fb36600461192c565b61046b565b61021361020e3660046118cd565b6104f6565b60405161016696959493929190611968565b6101c261023336600461192c565b61074e565b6101976102463660046118cd565b61076e565b6101cc610259366004611a7c565b610779565b6101cc61026c366004611b5d565b610a22565b6101c2610a6a565b6007546001600160a01b0316610197565b610177610a7e565b6101c26102a03660046118cd565b610a8d565b6101c26102b3366004611b78565b610b0c565b6101c26102c6366004611bb4565b610b17565b6101776102d93660046118cd565b610b2f565b61015a6102ec366004611c30565b610b3a565b6103046102ff3660046118cd565b610b68565b6040516101669190611c63565b6101c261031f366004611b5d565b610e57565b600061032f82610e95565b92915050565b60606000805461034490611cfb565b80601f016020809104026020016040519081016040528092919081815260200182805461037090611cfb565b80156103bd5780601f10610392576101008083540402835291602001916103bd565b820191906000526020600020905b8154815290600101906020018083116103a057829003601f168201915b5050505050905090565b60006103d282610eba565b506000828152600460205260409020546001600160a01b031661032f565b6103fb828233610ef3565b5050565b600060016008546104109190611d4b565b905090565b6000818152600260205260408120546001600160a01b03166104525760405162461bcd60e51b815260040161044990611d5e565b60405180910390fd5b5060009081526009602052604090206005015460ff1690565b6001600160a01b03821661049557604051633250574960e11b815260006004820152602401610449565b60006104a2838333610f00565b9050836001600160a01b0316816001600160a01b0316146104f0576040516364283d7b60e01b81526001600160a01b0380861660048301526024820184905282166044820152606401610449565b50505050565b60096020526000908152604090208054819061051190611cfb565b80601f016020809104026020016040519081016040528092919081815260200182805461053d90611cfb565b801561058a5780601f1061055f5761010080835404028352916020019161058a565b820191906000526020600020905b81548152906001019060200180831161056d57829003601f168201915b50505050509080600101805461059f90611cfb565b80601f01602080910402602001604051908101604052809291908181526020018280546105cb90611cfb565b80156106185780601f106105ed57610100808354040283529160200191610618565b820191906000526020600020905b8154815290600101906020018083116105fb57829003601f168201915b50505050509080600201805461062d90611cfb565b80601f016020809104026020016040519081016040528092919081815260200182805461065990611cfb565b80156106a65780601f1061067b576101008083540402835291602001916106a6565b820191906000526020600020905b81548152906001019060200180831161068957829003601f168201915b5050505050908060030180546106bb90611cfb565b80601f01602080910402602001604051908101604052809291908181526020018280546106e790611cfb565b80156107345780601f1061070957610100808354040283529160200191610734565b820191906000526020600020905b81548152906001019060200180831161071757829003601f168201915b50505050600483015460059093015491929160ff16905086565b61076983838360405180602001604052806000815250610b17565b505050565b600061032f82610eba565b6000610783610ff9565b6001600160a01b0387166107d95760405162461bcd60e51b815260206004820152601960248201527f496e76616c696420726563697069656e742061646472657373000000000000006044820152606401610449565b60008651116108205760405162461bcd60e51b8152602060048201526013602482015272141c9bd91d58dd081251081c995c5d5a5c9959606a1b6044820152606401610449565b60008551116108655760405162461bcd60e51b815260206004820152601160248201527013dc99195c881251081c995c5d5a5c9959607a1b6044820152606401610449565b60008451116108a75760405162461bcd60e51b815260206004820152600e60248201526d109c985b99081c995c5d5a5c995960921b6044820152606401610449565b60008351116108f05760405162461bcd60e51b8152602060048201526015602482015274141c9bd91d58dd081b985b59481c995c5d5a5c9959605a1b6044820152606401610449565b600880546000918261090183611d8c565b9190505590506109118882611026565b61091b8184611040565b6040805160c081018252888152602080820189905281830188905260608201879052426080830152600160a08301526000848152600990915291909120815181906109669082611deb565b506020820151600182019061097b9082611deb565b50604082015160028201906109909082611deb565b50606082015160038201906109a59082611deb565b506080820151600482015560a0909101516005909101805460ff19169115159190911790556040516001600160a01b0389169082907fc1cbf7bc6e737ebe385b06d5ad3b6a285542d5970f22d2dfd622c889b221165390610a0f908b908b908b908b904290611eab565b60405180910390a3979650505050505050565b60006001600160a01b038216610a4e576040516322718ad960e21b815260006004820152602401610449565b506001600160a01b031660009081526003602052604090205490565b610a72610ff9565b610a7c6000611090565b565b60606001805461034490611cfb565b610a95610ff9565b6000818152600260205260409020546001600160a01b0316610ac95760405162461bcd60e51b815260040161044990611d5e565b600081815260096020526040808220600501805460ff191690555182917fbc25ed1a99d00fa09a882895fed76e6c6d8e32bdd76fd238521fa4d36247a3ba91a250565b6103fb3383836110e2565b610b2284848461046b565b6104f03385858585611181565b606061032f826112ac565b6001600160a01b03918216600090815260056020908152604080832093909416825291909152205460ff1690565b610ba36040518060c0016040528060608152602001606081526020016060815260200160608152602001600081526020016000151581525090565b6000828152600260205260409020546001600160a01b0316610bd75760405162461bcd60e51b815260040161044990611d5e565b60008281526009602052604090819020815160c08101909252805482908290610bff90611cfb565b80601f0160208091040260200160405190810160405280929190818152602001828054610c2b90611cfb565b8015610c785780601f10610c4d57610100808354040283529160200191610c78565b820191906000526020600020905b815481529060010190602001808311610c5b57829003601f168201915b50505050508152602001600182018054610c9190611cfb565b80601f0160208091040260200160405190810160405280929190818152602001828054610cbd90611cfb565b8015610d0a5780601f10610cdf57610100808354040283529160200191610d0a565b820191906000526020600020905b815481529060010190602001808311610ced57829003601f168201915b50505050508152602001600282018054610d2390611cfb565b80601f0160208091040260200160405190810160405280929190818152602001828054610d4f90611cfb565b8015610d9c5780601f10610d7157610100808354040283529160200191610d9c565b820191906000526020600020905b815481529060010190602001808311610d7f57829003601f168201915b50505050508152602001600382018054610db590611cfb565b80601f0160208091040260200160405190810160405280929190818152602001828054610de190611cfb565b8015610e2e5780601f10610e0357610100808354040283529160200191610e2e565b820191906000526020600020905b815481529060010190602001808311610e1157829003601f168201915b50505091835250506004820154602082015260059091015460ff16151560409091015292915050565b610e5f610ff9565b6001600160a01b038116610e8957604051631e4fbdf760e01b815260006004820152602401610449565b610e9281611090565b50565b60006001600160e01b03198216632483248360e11b148061032f575061032f826113bd565b6000818152600260205260408120546001600160a01b03168061032f57604051637e27328960e01b815260048101849052602401610449565b610769838383600161140d565b6000828152600260205260408120546001600160a01b0390811690831615610f2d57610f2d818486611513565b6001600160a01b03811615610f6b57610f4a60008560008061140d565b6001600160a01b038116600090815260036020526040902080546000190190555b6001600160a01b03851615610f9a576001600160a01b0385166000908152600360205260409020805460010190555b60008481526002602052604080822080546001600160a01b0319166001600160a01b0389811691821790925591518793918516917fddf252ad1be2c89b69c2b068fc378daa952ba7f163c4a11628f55a4df523b3ef91a4949350505050565b6007546001600160a01b03163314610a7c5760405163118cdaa760e01b8152336004820152602401610449565b6103fb828260405180602001604052806000815250611577565b60008281526006602052604090206110588282611deb565b506040518281527ff8e1a15aba9398e019f0b49df1a4fde98ee17ae345cb5f6b5e2c27f5033e8ce79060200160405180910390a15050565b600780546001600160a01b038381166001600160a01b0319831681179093556040519116919082907f8be0079c531659141344cd1fd0a4f28419497f9722a3daafe3b4186f6b6457e090600090a35050565b6001600160a01b03821661111457604051630b61174360e31b81526001600160a01b0383166004820152602401610449565b6001600160a01b03838116600081815260056020908152604080832094871680845294825291829020805460ff191686151590811790915591519182527f17307eab39ab6107e8899845ad3d59bd9653f200f220920489ca2b5937696c31910160405180910390a3505050565b6001600160a01b0383163b156112a557604051630a85bd0160e11b81526001600160a01b0384169063150b7a02906111c3908890889087908790600401611f0b565b6020604051808303816000875af19250505080156111fe575060408051601f3d908101601f191682019092526111fb91810190611f48565b60015b611267573d80801561122c576040519150601f19603f3d011682016040523d82523d6000602084013e611231565b606091505b50805160000361125f57604051633250574960e11b81526001600160a01b0385166004820152602401610449565b805160208201fd5b6001600160e01b03198116630a85bd0160e11b146112a357604051633250574960e11b81526001600160a01b0385166004820152602401610449565b505b5050505050565b60606112b782610eba565b50600082815260066020526040812080546112d190611cfb565b80601f01602080910402602001604051908101604052809291908181526020018280546112fd90611cfb565b801561134a5780601f1061131f5761010080835404028352916020019161134a565b820191906000526020600020905b81548152906001019060200180831161132d57829003601f168201915b50505050509050600061136860408051602081019091526000815290565b9050805160000361137a575092915050565b8151156113ac578082604051602001611394929190611f65565b60405160208183030381529060405292505050919050565b6113b58461158f565b949350505050565b60006001600160e01b031982166380ac58cd60e01b14806113ee57506001600160e01b03198216635b5e139f60e01b145b8061032f57506301ffc9a760e01b6001600160e01b031983161461032f565b808061142157506001600160a01b03821615155b156114e357600061143184610eba565b90506001600160a01b0383161580159061145d5750826001600160a01b0316816001600160a01b031614155b8015611470575061146e8184610b3a565b155b156114995760405163a9fbf51f60e01b81526001600160a01b0384166004820152602401610449565b81156114e15783856001600160a01b0316826001600160a01b03167f8c5be1e5ebec7d5bd14f71427d1e84f3dd0314c0f7b2291e5b200ac8c7c3b92560405160405180910390a45b505b5050600090815260046020526040902080546001600160a01b0319166001600160a01b0392909216919091179055565b61151e838383611604565b610769576001600160a01b03831661154c57604051637e27328960e01b815260048101829052602401610449565b60405163177e802f60e01b81526001600160a01b038316600482015260248101829052604401610449565b6115818383611667565b610769336000858585611181565b606061159a82610eba565b5060006115b260408051602081019091526000815290565b905060008151116115d257604051806020016040528060008152506115fd565b806115dc846116cc565b6040516020016115ed929190611f65565b6040516020818303038152906040525b9392505050565b60006001600160a01b038316158015906113b55750826001600160a01b0316846001600160a01b0316148061163e575061163e8484610b3a565b806113b55750506000908152600460205260409020546001600160a01b03908116911614919050565b6001600160a01b03821661169157604051633250574960e11b815260006004820152602401610449565b600061169f83836000610f00565b90506001600160a01b03811615610769576040516339e3563760e11b815260006004820152602401610449565b606060006116d98361175f565b600101905060008167ffffffffffffffff8111156116f9576116f96119d0565b6040519080825280601f01601f191660200182016040528015611723576020820181803683370190505b5090508181016020015b600019016f181899199a1a9b1b9c1cb0b131b232b360811b600a86061a8153600a850494508461172d57509392505050565b60008072184f03e93ff9f4daa797ed6e38ed64bf6a1f0160401b831061179e5772184f03e93ff9f4daa797ed6e38ed64bf6a1f0160401b830492506040015b6d04ee2d6d415b85acef810000000083106117ca576d04ee2d6d415b85acef8100000000830492506020015b662386f26fc1000083106117e857662386f26fc10000830492506010015b6305f5e1008310611800576305f5e100830492506008015b612710831061181457612710830492506004015b60648310611826576064830492506002015b600a831061032f5760010192915050565b6001600160e01b031981168114610e9257600080fd5b60006020828403121561185f57600080fd5b81356115fd81611837565b60005b8381101561188557818101518382015260200161186d565b50506000910152565b600081518084526118a681602086016020860161186a565b601f01601f19169290920160200192915050565b6020815260006115fd602083018461188e565b6000602082840312156118df57600080fd5b5035919050565b80356001600160a01b03811681146118fd57600080fd5b919050565b6000806040838503121561191557600080fd5b61191e836118e6565b946020939093013593505050565b60008060006060848603121561194157600080fd5b61194a846118e6565b9250611958602085016118e6565b9150604084013590509250925092565b60c08152600061197b60c083018961188e565b828103602084015261198d818961188e565b905082810360408401526119a1818861188e565b905082810360608401526119b5818761188e565b6080840195909552505090151560a090910152949350505050565b634e487b7160e01b600052604160045260246000fd5b600067ffffffffffffffff80841115611a0157611a016119d0565b604051601f8501601f19908116603f01168101908282118183101715611a2957611a296119d0565b81604052809350858152868686011115611a4257600080fd5b858560208301376000602087830101525050509392505050565b600082601f830112611a6d57600080fd5b6115fd838335602085016119e6565b60008060008060008060c08789031215611a9557600080fd5b611a9e876118e6565b9550602087013567ffffffffffffffff80821115611abb57600080fd5b611ac78a838b01611a5c565b96506040890135915080821115611add57600080fd5b611ae98a838b01611a5c565b95506060890135915080821115611aff57600080fd5b611b0b8a838b01611a5c565b94506080890135915080821115611b2157600080fd5b611b2d8a838b01611a5c565b935060a0890135915080821115611b4357600080fd5b50611b5089828a01611a5c565b9150509295509295509295565b600060208284031215611b6f57600080fd5b6115fd826118e6565b60008060408385031215611b8b57600080fd5b611b94836118e6565b915060208301358015158114611ba957600080fd5b809150509250929050565b60008060008060808587031215611bca57600080fd5b611bd3856118e6565b9350611be1602086016118e6565b925060408501359150606085013567ffffffffffffffff811115611c0457600080fd5b8501601f81018713611c1557600080fd5b611c24878235602084016119e6565b91505092959194509250565b60008060408385031215611c4357600080fd5b611c4c836118e6565b9150611c5a602084016118e6565b90509250929050565b602081526000825160c06020840152611c7f60e084018261188e565b90506020840151601f1980858403016040860152611c9d838361188e565b92506040860151915080858403016060860152611cba838361188e565b9250606086015191508085840301608086015250611cd8828261188e565b915050608084015160a084015260a0840151151560c08401528091505092915050565b600181811c90821680611d0f57607f821691505b602082108103611d2f57634e487b7160e01b600052602260045260246000fd5b50919050565b634e487b7160e01b600052601160045260246000fd5b8181038181111561032f5761032f611d35565b602080825260149082015273151bdad95b88191bd95cc81b9bdd08195e1a5cdd60621b604082015260600190565b600060018201611d9e57611d9e611d35565b5060010190565b601f82111561076957600081815260208120601f850160051c81016020861015611dcc5750805b601f850160051c820191505b818110156112a357828155600101611dd8565b815167ffffffffffffffff811115611e0557611e056119d0565b611e1981611e138454611cfb565b84611da5565b602080601f831160018114611e4e5760008415611e365750858301515b600019600386901b1c1916600185901b1785556112a3565b600085815260208120601f198616915b82811015611e7d57888601518255948401946001909101908401611e5e565b5085821015611e9b5787850151600019600388901b60f8161c191681555b5050505050600190811b01905550565b60a081526000611ebe60a083018861188e565b8281036020840152611ed0818861188e565b90508281036040840152611ee4818761188e565b90508281036060840152611ef8818661188e565b9150508260808301529695505050505050565b6001600160a01b0385811682528416602082015260408101839052608060608201819052600090611f3e9083018461188e565b9695505050505050565b600060208284031215611f5a57600080fd5b81516115fd81611837565b60008351611f7781846020880161186a565b835190830190611f8b81836020880161186a565b0194935050505056fea264697066735822122067cd52c0f00d90247039149e1a46ab905ce989bde64b16a5cd9f4d0df597f05264736f6c63430008140033",
  "linkReferences": {},
  "deployedLinkReferences": {}
}