{
  "_format": "hh-sol-artifact-1",
  "contractName": "KAUS_Token_V3",
  "sourceName": "contracts/KAUS_Token_V3.sol",
  "abi": [
    {
      "inputs": [],
      "stateMutability": "nonpayable",
      "type": "constructor"
    },
    {
      "inputs": [
        {
          "internalType": "address",
          "name": "spender",
          "type": "address"
        },
        {
          "internalType": "uint256",
          "name": "allowance",
          "type": "uint256"
        },
        {
          "internalType": "uint256",
          "name": "needed",
          "type": "uint256"
        }
      ],
      "name": "ERC20InsufficientAllowance",
      "type": "error"
    },
    {
      "inputs": [
        {
          "internalType": "address",
          "name": "sender",
          "type": "address"
        },
        {
          "internalType": "uint256",
          "name": "balance",
          "type": "uint256"
        },
        {
          "internalType": "uint256",
          "name": "needed",
          "type": "uint256"
        }
      ],
      "name": "ERC20InsufficientBalance",
      "type": "error"
    },
    {
      "inputs": [
        {
          "internalType": "address",
          "name": "approver",
          "type": "address"
        }
      ],
      "name": "ERC20InvalidApprover",
      "type": "error"
    },
    {
      "inputs": [
        {
          "internalType": "address",
          "name": "receiver",
          "type": "address"
        }
      ],
      "name": "ERC20InvalidReceiver",
      "type": "error"
    },
    {
      "inputs": [
        {
          "internalType": "address",
          "name": "sender",
          "type": "address"
        }
      ],
      "name": "ERC20InvalidSender",
      "type": "error"
    },
    {
      "inputs": [
        {
          "internalType": "address",
          "name": "spender",
          "type": "address"
        }
      ],
      "name": "ERC20InvalidSpender",
      "type": "error"
    },
    {
      "inputs": [
        {
          "internalType": "address",
          "name": "owner",
          "type": "address"
        }
      ],
      "name": "OwnableInvalidOwner",
      "type": "error"
    },
    {
      "inputs": [
        {
          "internalType": "address",
          "name": "account",
          "type": "address"
        }
      ],
      "name": "OwnableUnauthorizedAccount",
      "type": "error"
    },
    {
      "anonymous": false,
      "inputs": [
        {
          "indexed": true,
          "internalType": "address",
          "name": "owner",
          "type": "address"
        },
        {
          "indexed": true,
          "internalType": "address",
          "name": "spender",
          "type": "address"
        },
        {
          "indexed": false,
          "internalType": "uint256",
          "name": "value",
          "type": "uint256"
        }
      ],
      "name": "Approval",
      "type": "event"
    },
    {
      "anonymous": false,
      "inputs": [
        {
          "indexed": true,
          "internalType": "address",
          "name": "previousOwner",
          "type": "address"
        },
        {
          "indexed": true,
          "internalType": "address",
          "name": "newOwner",
          "type": "address"
        }
      ],
      "name": "OwnershipTransferred",
      "type": "event"
    },
    {
      "anonymous": false,
      "inputs": [
        {
          "indexed": true,
          "internalType": "uint256",
          "name": "proposalId",
          "type": "uint256"
        },
        {
          "indexed": true,
          "internalType": "address",
          "name": "proposer",
          "type": "address"
        },
        {
          "indexed": false,
          "internalType": "string",
          "name": "title",
          "type": "string"
        }
      ],
      "name": "ProposalCreated",
      "type": "event"
    },
    {
      "anonymous": false,
      "inputs": [
        {
          "indexed": true,
          "internalType": "uint256",
          "name": "proposalId",
          "type": "uint256"
        }
      ],
      "name": "ProposalExecuted",
      "type": "event"
    },
    {
      "anonymous": false,
      "inputs": [
        {
          "indexed": true,
          "internalType": "address",
          "name": "user",
          "type": "address"
        },
        {
          "indexed": false,
          "internalType": "uint256",
          "name": "reward",
          "type": "uint256"
        }
      ],
      "name": "RewardClaimed",
      "type": "event"
    },
    {
      "anonymous": false,
      "inputs": [
        {
          "indexed": true,
          "internalType": "address",
          "name": "user",
          "type": "address"
        },
        {
          "indexed": false,
          "internalType": "uint256",
          "name": "amount",
          "type": "uint256"
        },
        {
          "indexed": false,
          "internalType": "uint256",
          "name": "lockPeriod",
          "type": "uint256"
        }
      ],
      "name": "Staked",
      "type": "event"
    },
    {
      "anonymous": false,
      "inputs": [
        {
          "indexed": true,
          "internalType": "address",
          "name": "from",
          "type": "address"
        },
        {
          "indexed": false,
          "internalType": "uint256",
          "name": "amount",
          "type": "uint256"
        },
        {
          "indexed": false,
          "internalType": "string",
          "name": "reason",
          "type": "string"
        }
      ],
      "name": "TokensBurned",
      "type": "event"
    },
    {
      "anonymous": false,
      "inputs": [
        {
          "indexed": true,
          "internalType": "address",
          "name": "from",
          "type": "address"
        },
        {
          "indexed": true,
          "internalType": "address",
          "name": "to",
          "type": "address"
        },
        {
          "indexed": false,
          "internalType": "uint256",
          "name": "value",
          "type": "uint256"
        }
      ],
      "name": "Transfer",
      "type": "event"
    },
    {
      "anonymous": false,
      "inputs": [
        {
          "indexed": true,
          "internalType": "address",
          "name": "user",
          "type": "address"
        },
        {
          "indexed": false,
          "internalType": "uint256",
          "name": "amount",
          "type": "uint256"
        },
        {
          "indexed": false,
          "internalType": "uint256",
          "name": "reward",
          "type": "uint256"
        }
      ],
      "name": "Unstaked",
      "type": "event"
    },
    {
      "anonymous": false,
      "inputs": [
        {
          "indexed": true,
          "internalType": "uint256",
          "name": "proposalId",
          "type": "uint256"
        },
        {
          "indexed": true,
          "internalType": "address",
          "name": "voter",
          "type": "address"
        },
        {
          "indexed": false,
          "internalType": "bool",
          "name": "support",
          "type": "bool"
        },
        {
          "indexed": false,
          "internalType": "uint256",
          "name": "votingPower",
          "type": "uint256"
        }
      ],
      "name": "Voted",
      "type": "event"
    },
    {
      "inputs": [],
      "name": "INITIAL_SUPPLY",
      "outputs": [
        {
          "internalType": "uint256",
          "name": "",
          "type": "uint256"
        }
      ],
      "stateMutability": "view",
      "type": "function"
    },
    {
      "inputs": [],
      "name": "LOCK_PERIOD_180_DAYS",
      "outputs": [
        {
          "internalType": "uint256",
          "name": "",
          "type": "uint256"
        }
      ],
      "stateMutability": "view",
      "type": "function"
    },
    {
      "inputs": [],
      "name": "LOCK_PERIOD_30_DAYS",
      "outputs": [
        {
          "internalType": "uint256",
          "name": "",
          "type": "uint256"
        }
      ],
      "stateMutability": "view",
      "type": "function"
    },
    {
      "inputs": [],
      "name": "LOCK_PERIOD_365_DAYS",
      "outputs": [
        {
          "internalType": "uint256",
          "name": "",
          "type": "uint256"
        }
      ],
      "stateMutability": "view",
      "type": "function"
    },
    {
      "inputs": [],
      "name": "LOCK_PERIOD_90_DAYS",
      "outputs": [
        {
          "internalType": "uint256",
          "name": "",
          "type": "uint256"
        }
      ],
      "stateMutability": "view",
      "type": "function"
    },
    {
      "inputs": [],
      "name": "STAKING_REWARD_RATE",
      "outputs": [
        {
          "internalType": "uint256",
          "name": "",
          "type": "uint256"
        }
      ],
      "stateMutability": "view",
      "type": "function"
    },
    {
      "inputs": [
        {
          "internalType": "address",
          "name": "owner",
          "type": "address"
        },
        {
          "internalType": "address",
          "name": "spender",
          "type": "address"
        }
      ],
      "name": "allowance",
      "outputs": [
        {
          "internalType": "uint256",
          "name": "",
          "type": "uint256"
        }
      ],
      "stateMutability": "view",
      "type": "function"
    },
    {
      "inputs": [
        {
          "internalType": "address",
          "name": "spender",
          "type": "address"
        },
        {
          "internalType": "uint256",
          "name": "value",
          "type": "uint256"
        }
      ],
      "name": "approve",
      "outputs": [
        {
          "internalType": "bool",
          "name": "",
          "type": "bool"
        }
      ],
      "stateMutability": "nonpayable",
      "type": "function"
    },
    {
      "inputs": [
        {
          "internalType": "address",
          "name": "account",
          "type": "address"
        }
      ],
      "name": "balanceOf",
      "outputs": [
        {
          "internalType": "uint256",
          "name": "",
          "type": "uint256"
        }
      ],
      "stateMutability": "view",
      "type": "function"
    },
    {
      "inputs": [
        {
          "internalType": "uint256",
          "name": "value",
          "type": "uint256"
        }
      ],
      "name": "burn",
      "outputs": [],
      "stateMutability": "nonpayable",
      "type": "function"
    },
    {
      "inputs": [
        {
          "internalType": "address",
          "name": "account",
          "type": "address"
        },
        {
          "internalType": "uint256",
          "name": "value",
          "type": "uint256"
        }
      ],
      "name": "burnFrom",
      "outputs": [],
      "stateMutability": "nonpayable",
      "type": "function"
    },
    {
      "inputs": [
        {
          "internalType": "uint256",
          "name": "amount",
          "type": "uint256"
        },
        {
          "internalType": "string",
          "name": "reason",
          "type": "string"
        }
      ],
      "name": "burnFromFee",
      "outputs": [],
      "stateMutability": "nonpayable",
      "type": "function"
    },
    {
      "inputs": [
        {
          "internalType": "address",
          "name": "user",
          "type": "address"
        }
      ],
      "name": "calculateReward",
      "outputs": [
        {
          "internalType": "uint256",
          "name": "",
          "type": "uint256"
        }
      ],
      "stateMutability": "view",
      "type": "function"
    },
    {
      "inputs": [
        {
          "internalType": "uint256",
          "name": "amount",
          "type": "uint256"
        },
        {
          "internalType": "uint256",
          "name": "lockPeriod",
          "type": "uint256"
        }
      ],
      "name": "calculateVotingPower",
      "outputs": [
        {
          "internalType": "uint256",
          "name": "",
          "type": "uint256"
        }
      ],
      "stateMutability": "pure",
      "type": "function"
    },
    {
      "inputs": [],
      "name": "claimReward",
      "outputs": [],
      "stateMutability": "nonpayable",
      "type": "function"
    },
    {
      "inputs": [
        {
          "internalType": "string",
          "name": "title",
          "type": "string"
        },
        {
          "internalType": "string",
          "name": "description",
          "type": "string"
        },
        {
          "internalType": "uint256",
          "name": "votingPeriod",
          "type": "uint256"
        }
      ],
      "name": "createProposal",
      "outputs": [
        {
          "internalType": "uint256",
          "name": "",
          "type": "uint256"
        }
      ],
      "stateMutability": "nonpayable",
      "type": "function"
    },
    {
      "inputs": [],
      "name": "decimals",
      "outputs": [
        {
          "internalType": "uint8",
          "name": "",
          "type": "uint8"
        }
      ],
      "stateMutability": "view",
      "type": "function"
    },
    {
      "inputs": [
        {
          "internalType": "uint256",
          "name": "proposalId",
          "type": "uint256"
        }
      ],
      "name": "executeProposal",
      "outputs": [],
      "stateMutability": "nonpayable",
      "type": "function"
    },
    {
      "inputs": [
        {
          "internalType": "uint256",
          "name": "proposalId",
          "type": "uint256"
        }
      ],
      "name": "getProposal",
      "outputs": [
        {
          "components": [
            {
              "internalType": "uint256",
              "name": "id",
              "type": "uint256"
            },
            {
              "internalType": "string",
              "name": "title",
              "type": "string"
            },
            {
              "internalType": "string",
              "name": "description",
              "type": "string"
            },
            {
              "internalType": "uint256",
              "name": "votesFor",
              "type": "uint256"
            },
            {
              "internalType": "uint256",
              "name": "votesAgainst",
              "type": "uint256"
            },
            {
              "internalType": "uint256",
              "name": "startTime",
              "type": "uint256"
            },
            {
              "internalType": "uint256",
              "name": "endTime",
              "type": "uint256"
            },
            {
              "internalType": "bool",
              "name": "executed",
              "type": "bool"
            },
            {
              "internalType": "address",
              "name": "proposer",
              "type": "address"
            }
          ],
          "internalType": "struct KAUS_Token_V3.Proposal",
          "name": "",
          "type": "tuple"
        }
      ],
      "stateMutability": "view",
      "type": "function"
    },
    {
      "inputs": [
        {
          "internalType": "address",
          "name": "user",
          "type": "address"
        }
      ],
      "name": "getStakingInfo",
      "outputs": [
        {
          "components": [
            {
              "internalType": "uint256",
              "name": "amount",
              "type": "uint256"
            },
            {
              "internalType": "uint256",
              "name": "startTime",
              "type": "uint256"
            },
            {
              "internalType": "uint256",
              "name": "lockPeriod",
              "type": "uint256"
            },
            {
              "internalType": "uint256",
              "name": "lastClaimTime",
              "type": "uint256"
            },
            {
              "internalType": "bool",
              "name": "active",
              "type": "bool"
            }
          ],
          "internalType": "struct KAUS_Token_V3.StakingInfo",
          "name": "",
          "type": "tuple"
        }
      ],
      "stateMutability": "view",
      "type": "function"
    },
    {
      "inputs": [
        {
          "internalType": "uint256",
          "name": "",
          "type": "uint256"
        },
        {
          "internalType": "address",
          "name": "",
          "type": "address"
        }
      ],
      "name": "hasVoted",
      "outputs": [
        {
          "internalType": "bool",
          "name": "",
          "type": "bool"
        }
      ],
      "stateMutability": "view",
      "type": "function"
    },
    {
      "inputs": [
        {
          "internalType": "address",
          "name": "user",
          "type": "address"
        }
      ],
      "name": "isVotingEligible",
      "outputs": [
        {
          "internalType": "bool",
          "name": "",
          "type": "bool"
        }
      ],
      "stateMutability": "view",
      "type": "function"
    },
    {
      "inputs": [],
      "name": "name",
      "outputs": [
        {
          "internalType": "string",
          "name": "",
          "type": "string"
        }
      ],
      "stateMutability": "view",
      "type": "function"
    },
    {
      "inputs": [],
      "name": "nftContract",
      "outputs": [
        {
          "internalType": "address",
          "name": "",
          "type": "address"
        }
      ],
      "stateMutability": "view",
      "type": "function"
    },
    {
      "inputs": [],
      "name": "owner",
      "outputs": [
        {
          "internalType": "address",
          "name": "",
          "type": "address"
        }
      ],
      "stateMutability": "view",
      "type": "function"
    },
    {
      "inputs": [],
      "name": "proposalCount",
      "outputs": [
        {
          "internalType": "uint256",
          "name": "",
          "type": "uint256"
        }
      ],
      "stateMutability": "view",
      "type": "function"
    },
    {
      "inputs": [
        {
          "internalType": "uint256",
          "name": "",
          "type": "uint256"
        }
      ],
      "name": "proposals",
      "outputs": [
        {
          "internalType": "uint256",
          "name": "id",
          "type": "uint256"
        },
        {
          "internalType": "string",
          "name": "title",
          "type": "string"
        },
        {
          "internalType": "string",
          "name": "description",
          "type": "string"
        },
        {
          "internalType": "uint256",
          "name": "votesFor",
          "type": "uint256"
        },
        {
          "internalType": "uint256",
          "name": "votesAgainst",
          "type": "uint256"
        },
        {
          "internalType": "uint256",
          "name": "startTime",
          "type": "uint256"
        },
        {
          "internalType": "uint256",
          "name": "endTime",
          "type": "uint256"
        },
        {
          "internalType": "bool",
          "name": "executed",
          "type": "bool"
        },
        {
          "internalType": "address",
          "name": "proposer",
          "type": "address"
        }
      ],
      "stateMutability": "view",
      "type": "function"
    },
    {
      "inputs": [],
      "name": "renounceOwnership",
      "outputs": [],
      "stateMutability": "nonpayable",
      "type": "function"
    },
    {
      "inputs": [
        {
          "internalType": "address",
          "name": "_nftContract",
          "type": "address"
        }
      ],
      "name": "setNFTContract",
      "outputs": [],
      "stateMutability": "nonpayable",
      "type": "function"
    },
    {
      "inputs": [
        {
          "internalType": "uint256",
          "name": "amount",
          "type": "uint256"
        },
        {
          "internalType": "uint256",
          "name": "lockPeriod",
          "type": "uint256"
        }
      ],
      "name": "stake",
      "outputs": [],
      "stateMutability": "nonpayable",
      "type": "function"
    },
    {
      "inputs": [
        {
          "internalType": "address",
          "name": "",
          "type": "address"
        }
      ],
      "name": "stakes",
      "outputs": [
        {
          "internalType": "uint256",
          "name": "amount",
          "type": "uint256"
        },
        {
          "internalType": "uint256",
          "name": "startTime",
          "type": "uint256"
        },
        {
          "internalType": "uint256",
          "name": "lockPeriod",
          "type": "uint256"
        },
        {
          "internalType": "uint256",
          "name": "lastClaimTime",
          "type": "uint256"
        },
        {
          "internalType": "bool",
          "name": "active",
          "type": "bool"
        }
      ],
      "stateMutability": "view",
      "type": "function"
    },
    {
      "inputs": [],
      "name": "symbol",
      "outputs": [
        {
          "internalType": "string",
          "name": "",
          "type": "string"
        }
      ],
      "stateMutability": "view",
      "type": "function"
    },
    {
      "inputs": [],
      "name": "totalBurned",
      "outputs": [
        {
          "internalType": "uint256",
          "name": "",
          "type": "uint256"
        }
      ],
      "stateMutability": "view",
      "type": "function"
    },
    {
      "inputs": [],
      "name": "totalStaked",
      "outputs": [
        {
          "internalType": "uint256",
          "name": "",
          "type": "uint256"
        }
      ],
      "stateMutability": "view",
      "type": "function"
    },
    {
      "inputs": [],
      "name": "totalSupply",
      "outputs": [
        {
          "internalType": "uint256",
          "name": "",
          "type": "uint256"
        }
      ],
      "stateMutability": "view",
      "type": "function"
    },
    {
      "inputs": [
        {
          "internalType": "address",
          "name": "to",
          "type": "address"
        },
        {
          "internalType": "uint256",
          "name": "value",
          "type": "uint256"
        }
      ],
      "name": "transfer",
      "outputs": [
        {
          "internalType": "bool",
          "name": "",
          "type": "bool"
        }
      ],
      "stateMutability": "nonpayable",
      "type": "function"
    },
    {
      "inputs": [
        {
          "internalType": "address",
          "name": "from",
          "type": "address"
        },
        {
          "internalType": "address",
          "name": "to",
          "type": "address"
        },
        {
          "internalType": "uint256",
          "name": "value",
          "type": "uint256"
        }
      ],
      "name": "transferFrom",
      "outputs": [
        {
          "internalType": "bool",
          "name": "",
          "type": "bool"
        }
      ],
      "stateMutability": "nonpayable",
      "type": "function"
    },
    {
      "inputs": [
        {
          "internalType": "address",
          "name": "newOwner",
          "type": "address"
        }
      ],
      "name": "transferOwnership",
      "outputs": [],
      "stateMutability": "nonpayable",
      "type": "function"
    },
    {
      "inputs": [],
      "name": "unstake",
      "outputs": [],
      "stateMutability": "nonpayable",
      "type": "function"
    },
    {
      "inputs": [
        {
          "internalType": "uint256",
          "name": "proposalId",
          "type": "uint256"
        },
        {
          "internalType": "bool",
          "name": "support",
          "type": "bool"
        }
      ],
      "name": "vote",
      "outputs": [],
      "stateMutability": "nonpayable",
      "type": "function"
    },
    {
      "inputs": [
        {
          "internalType": "address",
          "name": "",
          "type": "address"
        }
      ],
      "name": "votingPower",
      "outputs": [
        {
          "internalType": "uint256",
          "name": "",
          "type": "uint256"
        }
      ],
      "stateMutability": "view",
      "type": "function"
    }
  ],
  "bytecode": "0x60806040523480156200001157600080fd5b50336040518060400160405280600a81526020016925a0aaa9902a37b5b2b760b11b815250604051806040016040528060048152602001634b41555360e01b815250816003908162000064919062000338565b50600462000073828262000338565b5050506001600160a01b038116620000a657604051631e4fbdf760e01b8152600060048201526024015b60405180910390fd5b620000b181620000d0565b50620000ca336b033b2e3c9fd0803ce800000062000122565b6200042c565b600580546001600160a01b038381166001600160a01b0319831681179093556040519116919082907f8be0079c531659141344cd1fd0a4f28419497f9722a3daafe3b4186f6b6457e090600090a35050565b6001600160a01b0382166200014e5760405163ec442f0560e01b8152600060048201526024016200009d565b6200015c6000838362000160565b5050565b6001600160a01b0383166200018f57806002600082825462000183919062000404565b90915550620002039050565b6001600160a01b03831660009081526020819052604090205481811015620001e45760405163391434e360e21b81526001600160a01b038516600482015260248101829052604481018390526064016200009d565b6001600160a01b03841660009081526020819052604090209082900390555b6001600160a01b038216620002215760028054829003905562000240565b6001600160a01b03821660009081526020819052604090208054820190555b816001600160a01b0316836001600160a01b03167fddf252ad1be2c89b69c2b068fc378daa952ba7f163c4a11628f55a4df523b3ef836040516200028691815260200190565b60405180910390a3505050565b634e487b7160e01b600052604160045260246000fd5b600181811c90821680620002be57607f821691505b602082108103620002df57634e487b7160e01b600052602260045260246000fd5b50919050565b601f8211156200033357600081815260208120601f850160051c810160208610156200030e5750805b601f850160051c820191505b818110156200032f578281556001016200031a565b5050505b505050565b81516001600160401b0381111562000354576200035462000293565b6200036c81620003658454620002a9565b84620002e5565b602080601f831160018114620003a457600084156200038b5750858301515b600019600386901b1c1916600185901b1785556200032f565b600085815260208120601f198616915b82811015620003d557888601518255948401946001909101908401620003b4565b5085821015620003f45787850151600019600388901b60f8161c191681555b5050505050600190811b01905550565b808201808211156200042657634e487b7160e01b600052601160045260246000fd5b92915050565b61224c806200043c6000396000f3fe608060405234801561001057600080fd5b50600436106102535760003560e01c806379cc679011610146578063b88a802f116100c3578063d82e396211610087578063d82e3962146105ce578063d89135cd146105e1578063da35c664146105ea578063dd62ed3e146105f3578063ef9889ee1461062c578063f2fde38b1461063f57600080fd5b8063b88a802f14610560578063c07473f614610568578063c7f758a814610588578063c9d27afe146105a8578063d56d229d146105bb57600080fd5b8063a7ccabdf1161010a578063a7ccabdf146104cf578063a84cd708146104e2578063a9059cbb146104ec578063aa4704f3146104ff578063ad628cd51461055657600080fd5b806379cc6790146104735780637b0472f014610486578063817b1cd2146104995780638da5cb5b146104a257806395d89b41146104c757600080fd5b806323b872dd116101d4578063313ce56711610198578063313ce567146103f257806342966c6814610401578063438596321461041457806370a0823114610442578063715018a61461046b57600080fd5b806323b872dd1461038e5780632b435914146103a15780632def6620146103cc5780632fbb8d20146103d45780632ff2e9dc146103df57600080fd5b80630f1a29051161021b5780630f1a2905146102f757806316934fc4146102ff57806318160ddd146103695780631ea860d6146103715780631f1775331461037b57600080fd5b8063013cf08b1461025857806306fdde0314610289578063095ea7b31461029e5780630ce0ebf4146102c15780630d61b519146102e2575b600080fd5b61026b610266366004611c00565b610652565b60405161028099989796959493929190611c5f565b60405180910390f35b6102916107b8565b6040516102809190611ccd565b6102b16102ac366004611d03565b61084a565b6040519015158152602001610280565b6102d46102cf366004611dd0565b610864565b604051908152602001610280565b6102f56102f0366004611c00565b610a9b565b005b6102d4600a81565b61033f61030d366004611e3d565b600660205260009081526040902080546001820154600283015460038401546004909401549293919290919060ff1685565b6040805195865260208601949094529284019190915260608301521515608082015260a001610280565b6002546102d4565b6102d462278d0081565b6102f5610389366004611e58565b610bc8565b6102b161039c366004611e9f565b610cd7565b6102b16103af366004611e3d565b6001600160a01b0316600090815260076020526040902054151590565b6102f5610cfb565b6102d46301e1338081565b6102d46b033b2e3c9fd0803ce800000081565b60405160128152602001610280565b6102f561040f366004611c00565b610ead565b6102b1610422366004611edb565b600960209081526000928352604080842090915290825290205460ff1681565b6102d4610450366004611e3d565b6001600160a01b031660009081526020819052604090205490565b6102f5610eba565b6102f5610481366004611d03565b610ece565b6102f5610494366004611f07565b610ee7565b6102d4600b5481565b6005546001600160a01b03165b6040516001600160a01b039091168152602001610280565b6102916110e1565b6102f56104dd366004611e3d565b6110f0565b6102d46276a70081565b6102b16104fa366004611d03565b611170565b61051261050d366004611e3d565b61117e565b6040516102809190600060a0820190508251825260208301516020830152604083015160408301526060830151606083015260808301511515608083015292915050565b6102d462ed4e0081565b6102f561120f565b6102d4610576366004611e3d565b60076020526000908152604090205481565b61059b610596366004611c00565b61130e565b6040516102809190611f29565b6102f56105b6366004611fc8565b611507565b600d546104af906001600160a01b031681565b6102d46105dc366004611e3d565b6116f3565b6102d4600c5481565b6102d4600a5481565b6102d4610601366004611ffd565b6001600160a01b03918216600090815260016020908152604080832093909416825291909152205490565b6102d461063a366004611f07565b6117a3565b6102f561064d366004611e3d565b6117f9565b6008602052600090815260409020805460018201805491929161067490612027565b80601f01602080910402602001604051908101604052809291908181526020018280546106a090612027565b80156106ed5780601f106106c2576101008083540402835291602001916106ed565b820191906000526020600020905b8154815290600101906020018083116106d057829003601f168201915b50505050509080600201805461070290612027565b80601f016020809104026020016040519081016040528092919081815260200182805461072e90612027565b801561077b5780601f106107505761010080835404028352916020019161077b565b820191906000526020600020905b81548152906001019060200180831161075e57829003601f168201915b505050600384015460048501546005860154600687015460079097015495969295919450925060ff8116906001600160a01b036101009091041689565b6060600380546107c790612027565b80601f01602080910402602001604051908101604052809291908181526020018280546107f390612027565b80156108405780601f1061081557610100808354040283529160200191610840565b820191906000526020600020905b81548152906001019060200180831161082357829003601f168201915b5050505050905090565b600033610858818585611834565b60019150505b92915050565b6000808451116108ac5760405162461bcd60e51b815260206004820152600e60248201526d151a5d1b19481c995c5d5a5c995960921b60448201526064015b60405180910390fd5b60008351116108f45760405162461bcd60e51b815260206004820152601460248201527311195cd8dc9a5c1d1a5bdb881c995c5d5a5c995960621b60448201526064016108a3565b62015180821015801561090a575062278d008211155b61094e5760405162461bcd60e51b8152602060048201526015602482015274125b9d985b1a59081d9bdd1a5b99c81c195c9a5bd9605a1b60448201526064016108a3565b600a80546000918261095f83612077565b919050559050604051806101200160405280828152602001868152602001858152602001600081526020016000815260200142815260200184426109a39190612090565b8152600060208083018290523360409384015284825260088152919020825181559082015160018201906109d790826120f1565b50604082015160028201906109ec90826120f1565b50606082015160038201556080820151600482015560a0820151600582015560c0820151600682015560e082015160079091018054610100938401516001600160a81b0319909116921515610100600160a81b031916929092176001600160a01b03909216909202179055604051339082907f7585f467599d0f008985f231af99293be388626ac16ca59505c2f8f88969cd6390610a8b908990611ccd565b60405180910390a3949350505050565b610aa3611846565b600081815260086020526040902060068101544211610af75760405162461bcd60e51b815260206004820152601060248201526f159bdd1a5b99c81b9bdd08195b99195960821b60448201526064016108a3565b600781015460ff1615610b3f5760405162461bcd60e51b815260206004820152601060248201526f105b1c9958591e48195e1958dd5d195960821b60448201526064016108a3565b8060040154816003015411610b8a5760405162461bcd60e51b8152602060048201526011602482015270141c9bdc1bdcd85b081c995a9958dd1959607a1b60448201526064016108a3565b60078101805460ff1916600117905560405182907f712ae1383f79ac853f8d882153778e0260ef8f03b504e2866e0593e04d2b291f90600090a25050565b610bd0611846565b60008211610c205760405162461bcd60e51b815260206004820152601d60248201527f416d6f756e74206d7573742062652067726561746572207468616e203000000060448201526064016108a3565b30600090815260208190526040902054821115610c765760405162461bcd60e51b8152602060048201526014602482015273496e73756666696369656e742062616c616e636560601b60448201526064016108a3565b610c803083611873565b81600c6000828254610c929190612090565b909155505060405130907ffad31924d655455395c87544c8aa1ffdb5a7505a22a3c2e03f28003b6556a75f90610ccb90859085906121b1565b60405180910390a25050565b600033610ce58582856118a9565b610cf0858585611928565b506001949350505050565b33600090815260066020908152604091829020825160a081018452815481526001820154928101929092526002810154928201929092526003820154606082015260049091015460ff16151560808201819052610d8c5760405162461bcd60e51b815260206004820152600f60248201526e4e6f20616374697665207374616b6560881b60448201526064016108a3565b80604001518160200151610da09190612090565b421015610de75760405162461bcd60e51b8152602060048201526015602482015274131bd8dac81c195c9a5bd9081b9bdd08195b991959605a1b60448201526064016108a3565b6000610df2336116f3565b90506000818360000151610e069190612090565b336000908152600660209081526040808320600401805460ff19169055600790915281208190558451600b80549394509092909190610e469084906121ca565b90915550508251610e5a9030903390611928565b8115610e6a57610e6a3383611987565b8251604080519182526020820184905233917f7fc4727e062e336010f2c282598ef5f14facb3de68cf8195c2f23e1454b2b74e91015b60405180910390a2505050565b610eb73382611873565b50565b610ec2611846565b610ecc60006119bd565b565b610ed98233836118a9565b610ee38282611873565b5050565b60008211610f375760405162461bcd60e51b815260206004820152601d60248201527f416d6f756e74206d7573742062652067726561746572207468616e203000000060448201526064016108a3565b62278d00811480610f4a57506276a70081145b80610f57575062ed4e0081145b80610f6557506301e1338081145b610fa75760405162461bcd60e51b8152602060048201526013602482015272125b9d985b1a59081b1bd8dac81c195c9a5bd9606a1b60448201526064016108a3565b3360009081526006602052604090206004015460ff1615610ffc5760405162461bcd60e51b815260206004820152600f60248201526e416c7265616479207374616b696e6760881b60448201526064016108a3565b611007333084611928565b6040805160a081018252838152426020808301828152838501868152606085019384526001608086018181523360009081526006909552968420955186559151918501919091555160028401559051600383015591516004909101805460ff191691151591909117905561107b83836117a3565b336000908152600760205260408120829055600b805492935085929091906110a4908490612090565b9091555050604080518481526020810184905233917f1449c6dd7851abc30abf37f57715f492010519147cc2652fbc38202c18a6ee909101610ea0565b6060600480546107c790612027565b6110f8611846565b6001600160a01b03811661114e5760405162461bcd60e51b815260206004820152601c60248201527f496e76616c6964204e465420636f6e747261637420616464726573730000000060448201526064016108a3565b600d80546001600160a01b0319166001600160a01b0392909216919091179055565b600033610858818585611928565b6111b26040518060a00160405280600081526020016000815260200160008152602001600081526020016000151581525090565b506001600160a01b0316600090815260066020908152604091829020825160a081018452815481526001820154928101929092526002810154928201929092526003820154606082015260049091015460ff161515608082015290565b3360009081526006602052604090206004015460ff166112635760405162461bcd60e51b815260206004820152600f60248201526e4e6f20616374697665207374616b6560881b60448201526064016108a3565b600061126e336116f3565b9050600081116112b65760405162461bcd60e51b81526020600482015260136024820152724e6f2072657761726420617661696c61626c6560681b60448201526064016108a3565b336000818152600660205260409020426003909101556112d69082611987565b60405181815233907f106f923f993c2149d49b4255ff723acafa1f2d94393f561d3eda32ae348f72419060200160405180910390a250565b6113686040518061012001604052806000815260200160608152602001606081526020016000815260200160008152602001600081526020016000815260200160001515815260200160006001600160a01b031681525090565b6008600083815260200190815260200160002060405180610120016040529081600082015481526020016001820180546113a190612027565b80601f01602080910402602001604051908101604052809291908181526020018280546113cd90612027565b801561141a5780601f106113ef5761010080835404028352916020019161141a565b820191906000526020600020905b8154815290600101906020018083116113fd57829003601f168201915b5050505050815260200160028201805461143390612027565b80601f016020809104026020016040519081016040528092919081815260200182805461145f90612027565b80156114ac5780601f10611481576101008083540402835291602001916114ac565b820191906000526020600020905b81548152906001019060200180831161148f57829003601f168201915b50505091835250506003820154602082015260048201546040820152600582015460608201526006820154608082015260079091015460ff8116151560a083015261010090046001600160a01b031660c09091015292915050565b6000828152600860205260409020600581015442101561155e5760405162461bcd60e51b8152602060048201526012602482015271159bdd1a5b99c81b9bdd081cdd185c9d195960721b60448201526064016108a3565b80600601544211156115a15760405162461bcd60e51b815260206004820152600c60248201526b159bdd1a5b99c8195b99195960a21b60448201526064016108a3565b600083815260096020908152604080832033845290915290205460ff16156115fb5760405162461bcd60e51b815260206004820152600d60248201526c105b1c9958591e481d9bdd1959609a1b60448201526064016108a3565b336000908152600760205260409020548061164a5760405162461bcd60e51b815260206004820152600f60248201526e2737903b37ba34b733903837bbb2b960891b60448201526064016108a3565b60008481526009602090815260408083203384529091529020805460ff19166001179055821561169357808260030160008282546116889190612090565b909155506116ad9050565b808260040160008282546116a79190612090565b90915550505b60408051841515815260208101839052339186917f7c2de587c00d75474a0c6c6fa96fd3b45dc974cd4e8a75f712bb84c950dce1b591015b60405180910390a350505050565b6001600160a01b0381166000908152600660209081526040808320815160a08101835281548152600182015493810193909352600281015491830191909152600381015460608301526004015460ff161515608082018190526117595750600092915050565b600081606001514261176b91906121ca565b9050600063bbf81e0082600a856000015161178691906121dd565b61179091906121dd565b61179a91906121f4565b95945050505050565b600060646301e1337f1983016117bb575060c86117db565b62ed4e0083036117cd575060966117db565b6276a70083036117db5750607d5b60646117e782866121dd565b6117f191906121f4565b949350505050565b611801611846565b6001600160a01b03811661182b57604051631e4fbdf760e01b8152600060048201526024016108a3565b610eb7816119bd565b6118418383836001611a0f565b505050565b6005546001600160a01b03163314610ecc5760405163118cdaa760e01b81523360048201526024016108a3565b6001600160a01b03821661189d57604051634b637e8f60e11b8152600060048201526024016108a3565b610ee382600083611ad6565b6001600160a01b03838116600090815260016020908152604080832093861683529290522054600019811015611922578181101561191357604051637dc7a0d960e11b81526001600160a01b038416600482015260248101829052604481018390526064016108a3565b61192284848484036000611a0f565b50505050565b6001600160a01b03831661195257604051634b637e8f60e11b8152600060048201526024016108a3565b6001600160a01b03821661197c5760405163ec442f0560e01b8152600060048201526024016108a3565b611841838383611ad6565b6001600160a01b0382166119b15760405163ec442f0560e01b8152600060048201526024016108a3565b610ee360008383611ad6565b600580546001600160a01b038381166001600160a01b0319831681179093556040519116919082907f8be0079c531659141344cd1fd0a4f28419497f9722a3daafe3b4186f6b6457e090600090a35050565b6001600160a01b038416611a395760405163e602df0560e01b8152600060048201526024016108a3565b6001600160a01b038316611a6357604051634a1406b160e11b8152600060048201526024016108a3565b6001600160a01b038085166000908152600160209081526040808320938716835292905220829055801561192257826001600160a01b0316846001600160a01b03167f8c5be1e5ebec7d5bd14f71427d1e84f3dd0314c0f7b2291e5b200ac8c7c3b925846040516116e591815260200190565b6001600160a01b038316611b01578060026000828254611af69190612090565b90915550611b739050565b6001600160a01b03831660009081526020819052604090205481811015611b545760405163391434e360e21b81526001600160a01b038516600482015260248101829052604481018390526064016108a3565b6001600160a01b03841660009081526020819052604090209082900390555b6001600160a01b038216611b8f57600280548290039055611bae565b6001600160a01b03821660009081526020819052604090208054820190555b816001600160a01b0316836001600160a01b03167fddf252ad1be2c89b69c2b068fc378daa952ba7f163c4a11628f55a4df523b3ef83604051611bf391815260200190565b60405180910390a3505050565b600060208284031215611c1257600080fd5b5035919050565b6000815180845260005b81811015611c3f57602081850181015186830182015201611c23565b506000602082860101526020601f19601f83011685010191505092915050565b60006101208b8352806020840152611c798184018c611c19565b90508281036040840152611c8d818b611c19565b60608401999099525050608081019590955260a085019390935260c0840191909152151560e08301526001600160a01b0316610100909101529392505050565b602081526000611ce06020830184611c19565b9392505050565b80356001600160a01b0381168114611cfe57600080fd5b919050565b60008060408385031215611d1657600080fd5b611d1f83611ce7565b946020939093013593505050565b634e487b7160e01b600052604160045260246000fd5b600082601f830112611d5457600080fd5b813567ffffffffffffffff80821115611d6f57611d6f611d2d565b604051601f8301601f19908116603f01168101908282118183101715611d9757611d97611d2d565b81604052838152866020858801011115611db057600080fd5b836020870160208301376000602085830101528094505050505092915050565b600080600060608486031215611de557600080fd5b833567ffffffffffffffff80821115611dfd57600080fd5b611e0987838801611d43565b94506020860135915080821115611e1f57600080fd5b50611e2c86828701611d43565b925050604084013590509250925092565b600060208284031215611e4f57600080fd5b611ce082611ce7565b60008060408385031215611e6b57600080fd5b82359150602083013567ffffffffffffffff811115611e8957600080fd5b611e9585828601611d43565b9150509250929050565b600080600060608486031215611eb457600080fd5b611ebd84611ce7565b9250611ecb60208501611ce7565b9150604084013590509250925092565b60008060408385031215611eee57600080fd5b82359150611efe60208401611ce7565b90509250929050565b60008060408385031215611f1a57600080fd5b50508035926020909101359150565b602081528151602082015260006020830151610120806040850152611f52610140850183611c19565b91506040850151601f19858403016060860152611f6f8382611c19565b92505060608501516080850152608085015160a085015260a085015160c085015260c085015160e085015260e0850151610100611faf8187018315159052565b909501516001600160a01b031693019290925250919050565b60008060408385031215611fdb57600080fd5b8235915060208301358015158114611ff257600080fd5b809150509250929050565b6000806040838503121561201057600080fd5b61201983611ce7565b9150611efe60208401611ce7565b600181811c9082168061203b57607f821691505b60208210810361205b57634e487b7160e01b600052602260045260246000fd5b50919050565b634e487b7160e01b600052601160045260246000fd5b60006001820161208957612089612061565b5060010190565b8082018082111561085e5761085e612061565b601f82111561184157600081815260208120601f850160051c810160208610156120ca5750805b601f850160051c820191505b818110156120e9578281556001016120d6565b505050505050565b815167ffffffffffffffff81111561210b5761210b611d2d565b61211f816121198454612027565b846120a3565b602080601f831160018114612154576000841561213c5750858301515b600019600386901b1c1916600185901b1785556120e9565b600085815260208120601f198616915b8281101561218357888601518255948401946001909101908401612164565b50858210156121a15787850151600019600388901b60f8161c191681555b5050505050600190811b01905550565b8281526040602082015260006117f16040830184611c19565b8181038181111561085e5761085e612061565b808202811582820484141761085e5761085e612061565b60008261221157634e487b7160e01b600052601260045260246000fd5b50049056fea26469706673582212207103340e6cd79f0457a5647a2258d68efda760356e40da27f13f9ddc1eaf44f464736f6c63430008140033",
  "linkReferences": {},
  "deployedLinkReferences": {}
}