{
  "_format": "hh-sol-artifact-1",
  "contractName": "KAUS_NFT_V2",
  "sourceName": "contracts/KAUS_NFT_V2.sol",
  "abi": [
    {
      "inputs": [],
      "stateMutability": "nonpayable",
      "type": "constructor"
    },
    {
      "inputs": [
        {
          "internalType": "address",
          "name": "sender",
          "type": "address"
        },
        {
          "internalType": "uint256",
          "name": "tokenId",
          "type": "uint256"
        },
        {
          "internalType": "address",
          "name": "owner",
          "type": "address"
        }
      ],
      "name": "ERC721IncorrectOwner",
      "type": "error"
    },
    {
      "inputs": [
        {
          "internalType": "address",
          "name": "operator",
          "type": "address"
        },
        {
          "internalType": "uint256",
          "name": "tokenId",
          "type": "uint256"
        }
      ],
      "name": "ERC721InsufficientApproval",
      "type": "error"
    },
    {
      "inputs": [
        {
          "internalType": "address",
          "name": "approver",
          "type": "address"
        }
      ],
      "name": "ERC721InvalidApprover",
      "type": "error"
    },
    {
      "inputs": [
        {
          "internalType": "address",
          "name": "operator",
          "type": "address"
        }
      ],
      "name": "ERC721InvalidOperator",
      "type": "error"
    },
    {
      "inputs": [
        {
          "internalType": "address",
          "name": "owner",
          "type": "address"
        }
      ],
      "name": "ERC721InvalidOwner",
      "type": "error"
    },
    {
      "inputs": [
        {
          "internalType": "address",
          "name": "receiver",
          "type": "address"
        }
      ],
      "name": "ERC721InvalidReceiver",
      "type": "error"
    },
    {
      "inputs": [
        {
          "internalType": "address",
          "name": "sender",
          "type": "address"
        }
      ],
      "name": "ERC721InvalidSender",
      "type": "error"
    },
    {
      "inputs": [
        {
          "internalType": "uint256",
          "name": "tokenId",
          "type": "uint256"
        }
      ],
      "name": "ERC721NonexistentToken",
      "type": "error"
    },
    {
      "inputs": [
        {
          "internalType": "address",
          "name": "owner",
          "type": "address"
        }
      ],
      "name": "OwnableInvalidOwner",
      "type": "error"
    },
    {
      "inputs": [
        {
          "internalType": "address",
          "name": "account",
          "type": "address"
        }
      ],
      "name": "OwnableUnauthorizedAccount",
      "type": "error"
    },
    {
      "anonymous": false,
      "inputs": [
        {
          "indexed": true,
          "internalType": "address",
          "name": "owner",
          "type": "address"
        },
        {
          "indexed": true,
          "internalType": "address",
          "name": "approved",
          "type": "address"
        },
        {
          "indexed": true,
          "internalType": "uint256",
          "name": "tokenId",
          "type": "uint256"
        }
      ],
      "name": "Approval",
      "type": "event"
    },
    {
      "anonymous": false,
      "inputs": [
        {
          "indexed": true,
          "internalType": "address",
          "name": "owner",
          "type": "address"
        },
        {
          "indexed": true,
          "internalType": "address",
          "name": "operator",
          "type": "address"
        },
        {
          "indexed": false,
          "internalType": "bool",
          "name": "approved",
          "type": "bool"
        }
      ],
      "name": "ApprovalForAll",
      "type": "event"
    },
    {
      "anonymous": false,
      "inputs": [
        {
          "indexed": true,
          "internalType": "uint256",
          "name": "tokenId",
          "type": "uint256"
        }
      ],
      "name": "AuthenticationRevoked",
      "type": "event"
    },
    {
      "anonymous": false,
      "inputs": [
        {
          "indexed": false,
          "internalType": "uint256",
          "name": "_fromTokenId",
          "type": "uint256"
        },
        {
          "indexed": false,
          "internalType": "uint256",
          "name": "_toTokenId",
          "type": "uint256"
        }
      ],
      "name": "BatchMetadataUpdate",
      "type": "event"
    },
    {
      "anonymous": false,
      "inputs": [
        {
          "indexed": false,
          "internalType": "uint256",
          "name": "_tokenId",
          "type": "uint256"
        }
      ],
      "name": "MetadataUpdate",
      "type": "event"
    },
    {
      "anonymous": false,
      "inputs": [
        {
          "indexed": true,
          "internalType": "address",
          "name": "minter",
          "type": "address"
        }
      ],
      "name": "MinterAuthorized",
      "type": "event"
    },
    {
      "anonymous": false,
      "inputs": [
        {
          "indexed": true,
          "internalType": "address",
          "name": "minter",
          "type": "address"
        }
      ],
      "name": "MinterRevoked",
      "type": "event"
    },
    {
      "anonymous": false,
      "inputs": [
        {
          "indexed": true,
          "internalType": "uint256",
          "name": "tokenId",
          "type": "uint256"
        },
        {
          "indexed": true,
          "internalType": "address",
          "name": "owner",
          "type": "address"
        },
        {
          "indexed": false,
          "internalType": "string",
          "name": "productId",
          "type": "string"
        },
        {
          "indexed": false,
          "internalType": "string",
          "name": "orderId",
          "type": "string"
        },
        {
          "indexed": false,
          "internalType": "string",
          "name": "brand",
          "type": "string"
        },
        {
          "indexed": false,
          "internalType": "string",
          "name": "productName",
          "type": "string"
        },
        {
          "indexed": false,
          "internalType": "uint256",
          "name": "mintedAt",
          "type": "uint256"
        }
      ],
      "name": "NFTMinted",
      "type": "event"
    },
    {
      "anonymous": false,
      "inputs": [
        {
          "indexed": true,
          "internalType": "address",
          "name": "previousOwner",
          "type": "address"
        },
        {
          "indexed": true,
          "internalType": "address",
          "name": "newOwner",
          "type": "address"
        }
      ],
      "name": "OwnershipTransferred",
      "type": "event"
    },
    {
      "anonymous": false,
      "inputs": [
        {
          "indexed": false,
          "internalType": "bool",
          "name": "isSoulbound",
          "type": "bool"
        }
      ],
      "name": "SoulboundStatusChanged",
      "type": "event"
    },
    {
      "anonymous": false,
      "inputs": [
        {
          "indexed": true,
          "internalType": "address",
          "name": "from",
          "type": "address"
        },
        {
          "indexed": true,
          "internalType": "address",
          "name": "to",
          "type": "address"
        },
        {
          "indexed": true,
          "internalType": "uint256",
          "name": "tokenId",
          "type": "uint256"
        }
      ],
      "name": "Transfer",
      "type": "event"
    },
    {
      "inputs": [
        {
          "internalType": "address",
          "name": "to",
          "type": "address"
        },
        {
          "internalType": "uint256",
          "name": "tokenId",
          "type": "uint256"
        }
      ],
      "name": "approve",
      "outputs": [],
      "stateMutability": "nonpayable",
      "type": "function"
    },
    {
      "inputs": [
        {
          "internalType": "uint256",
          "name": "",
          "type": "uint256"
        }
      ],
      "name": "authentications",
      "outputs": [
        {
          "internalType": "string",
          "name": "productId",
          "type": "string"
        },
        {
          "internalType": "string",
          "name": "orderId",
          "type": "string"
        },
        {
          "internalType": "string",
          "name": "brand",
          "type": "string"
        },
        {
          "internalType": "string",
          "name": "productName",
          "type": "string"
        },
        {
          "internalType": "uint256",
          "name": "mintedAt",
          "type": "uint256"
        },
        {
          "internalType": "bool",
          "name": "isValid",
          "type": "bool"
        }
      ],
      "stateMutability": "view",
      "type": "function"
    },
    {
      "inputs": [
        {
          "internalType": "address",
          "name": "minter",
          "type": "address"
        }
      ],
      "name": "authorizeMinter",
      "outputs": [],
      "stateMutability": "nonpayable",
      "type": "function"
    },
    {
      "inputs": [
        {
          "internalType": "address",
          "name": "",
          "type": "address"
        }
      ],
      "name": "authorizedMinters",
      "outputs": [
        {
          "internalType": "bool",
          "name": "",
          "type": "bool"
        }
      ],
      "stateMutability": "view",
      "type": "function"
    },
    {
      "inputs": [
        {
          "internalType": "address",
          "name": "owner",
          "type": "address"
        }
      ],
      "name": "balanceOf",
      "outputs": [
        {
          "internalType": "uint256",
          "name": "",
          "type": "uint256"
        }
      ],
      "stateMutability": "view",
      "type": "function"
    },
    {
      "inputs": [
        {
          "internalType": "uint256",
          "name": "tokenId",
          "type": "uint256"
        }
      ],
      "name": "getApproved",
      "outputs": [
        {
          "internalType": "address",
          "name": "",
          "type": "address"
        }
      ],
      "stateMutability": "view",
      "type": "function"
    },
    {
      "inputs": [
        {
          "internalType": "uint256",
          "name": "tokenId",
          "type": "uint256"
        }
      ],
      "name": "getAuthentication",
      "outputs": [
        {
          "components": [
            {
              "internalType": "string",
              "name": "productId",
              "type": "string"
            },
            {
              "internalType": "string",
              "name": "orderId",
              "type": "string"
            },
            {
              "internalType": "string",
              "name": "brand",
              "type": "string"
            },
            {
              "internalType": "string",
              "name": "productName",
              "type": "string"
            },
            {
              "internalType": "uint256",
              "name": "mintedAt",
              "type": "uint256"
            },
            {
              "internalType": "bool",
              "name": "isValid",
              "type": "bool"
            }
          ],
          "internalType": "struct KAUS_NFT_V2.ProductAuthentication",
          "name": "",
          "type": "tuple"
        }
      ],
      "stateMutability": "view",
      "type": "function"
    },
    {
      "inputs": [
        {
          "internalType": "address",
          "name": "user",
          "type": "address"
        }
      ],
      "name": "hasNFT",
      "outputs": [
        {
          "internalType": "bool",
          "name": "",
          "type": "bool"
        }
      ],
      "stateMutability": "view",
      "type": "function"
    },
    {
      "inputs": [
        {
          "internalType": "address",
          "name": "owner",
          "type": "address"
        },
        {
          "internalType": "address",
          "name": "operator",
          "type": "address"
        }
      ],
      "name": "isApprovedForAll",
      "outputs": [
        {
          "internalType": "bool",
          "name": "",
          "type": "bool"
        }
      ],
      "stateMutability": "view",
      "type": "function"
    },
    {
      "inputs": [
        {
          "internalType": "uint256",
          "name": "tokenId",
          "type": "uint256"
        }
      ],
      "name": "isAuthenticationValid",
      "outputs": [
        {
          "internalType": "bool",
          "name": "",
          "type": "bool"
        }
      ],
      "stateMutability": "view",
      "type": "function"
    },
    {
      "inputs": [],
      "name": "isSoulbound",
      "outputs": [
        {
          "internalType": "bool",
          "name": "",
          "type": "bool"
        }
      ],
      "stateMutability": "view",
      "type": "function"
    },
    {
      "inputs": [
        {
          "internalType": "address",
          "name": "recipient",
          "type": "address"
        },
        {
          "internalType": "string",
          "name": "productId",
          "type": "string"
        },
        {
          "internalType": "string",
          "name": "orderId",
          "type": "string"
        },
        {
          "internalType": "string",
          "name": "brand",
          "type": "string"
        },
        {
          "internalType": "string",
          "name": "productName",
          "type": "string"
        },
        {
          "internalType": "string",
          "name": "tokenURI",
          "type": "string"
        }
      ],
      "name": "mintNFT",
      "outputs": [
        {
          "internalType": "uint256",
          "name": "",
          "type": "uint256"
        }
      ],
      "stateMutability": "nonpayable",
      "type": "function"
    },
    {
      "inputs": [],
      "name": "name",
      "outputs": [
        {
          "internalType": "string",
          "name": "",
          "type": "string"
        }
      ],
      "stateMutability": "view",
      "type": "function"
    },
    {
      "inputs": [],
      "name": "owner",
      "outputs": [
        {
          "internalType": "address",
          "name": "",
          "type": "address"
        }
      ],
      "stateMutability": "view",
      "type": "function"
    },
    {
      "inputs": [
        {
          "internalType": "uint256",
          "name": "tokenId",
          "type": "uint256"
        }
      ],
      "name": "ownerOf",
      "outputs": [
        {
          "internalType": "address",
          "name": "",
          "type": "address"
        }
      ],
      "stateMutability": "view",
      "type": "function"
    },
    {
      "inputs": [],
      "name": "renounceOwnership",
      "outputs": [],
      "stateMutability": "nonpayable",
      "type": "function"
    },
    {
      "inputs": [
        {
          "internalType": "uint256",
          "name": "tokenId",
          "type": "uint256"
        }
      ],
      "name": "revokeAuthentication",
      "outputs": [],
      "stateMutability": "nonpayable",
      "type": "function"
    },
    {
      "inputs": [
        {
          "internalType": "address",
          "name": "minter",
          "type": "address"
        }
      ],
      "name": "revokeMinter",
      "outputs": [],
      "stateMutability": "nonpayable",
      "type": "function"
    },
    {
      "inputs": [
        {
          "internalType": "address",
          "name": "from",
          "type": "address"
        },
        {
          "internalType": "address",
          "name": "to",
          "type": "address"
        },
        {
          "internalType": "uint256",
          "name": "tokenId",
          "type": "uint256"
        }
      ],
      "name": "safeTransferFrom",
      "outputs": [],
      "stateMutability": "nonpayable",
      "type": "function"
    },
    {
      "inputs": [
        {
          "internalType": "address",
          "name": "from",
          "type": "address"
        },
        {
          "internalType": "address",
          "name": "to",
          "type": "address"
        },
        {
          "internalType": "uint256",
          "name": "tokenId",
          "type": "uint256"
        },
        {
          "internalType": "bytes",
          "name": "data",
          "type": "bytes"
        }
      ],
      "name": "safeTransferFrom",
      "outputs": [],
      "stateMutability": "nonpayable",
      "type": "function"
    },
    {
      "inputs": [
        {
          "internalType": "address",
          "name": "operator",
          "type": "address"
        },
        {
          "internalType": "bool",
          "name": "approved",
          "type": "bool"
        }
      ],
      "name": "setApprovalForAll",
      "outputs": [],
      "stateMutability": "nonpayable",
      "type": "function"
    },
    {
      "inputs": [
        {
          "internalType": "bool",
          "name": "_isSoulbound",
          "type": "bool"
        }
      ],
      "name": "setSoulboundStatus",
      "outputs": [],
      "stateMutability": "nonpayable",
      "type": "function"
    },
    {
      "inputs": [
        {
          "internalType": "bytes4",
          "name": "interfaceId",
          "type": "bytes4"
        }
      ],
      "name": "supportsInterface",
      "outputs": [
        {
          "internalType": "bool",
          "name": "",
          "type": "bool"
        }
      ],
      "stateMutability": "view",
      "type": "function"
    },
    {
      "inputs": [],
      "name": "symbol",
      "outputs": [
        {
          "internalType": "string",
          "name": "",
          "type": "string"
        }
      ],
      "stateMutability": "view",
      "type": "function"
    },
    {
      "inputs": [
        {
          "internalType": "uint256",
          "name": "tokenId",
          "type": "uint256"
        }
      ],
      "name": "tokenURI",
      "outputs": [
        {
          "internalType": "string",
          "name": "",
          "type": "string"
        }
      ],
      "stateMutability": "view",
      "type": "function"
    },
    {
      "inputs": [],
      "name": "totalSupply",
      "outputs": [
        {
          "internalType": "uint256",
          "name": "",
          "type": "uint256"
        }
      ],
      "stateMutability": "view",
      "type": "function"
    },
    {
      "inputs": [
        {
          "internalType": "address",
          "name": "from",
          "type": "address"
        },
        {
          "internalType": "address",
          "name": "to",
          "type": "address"
        },
        {
          "internalType": "uint256",
          "name": "tokenId",
          "type": "uint256"
        }
      ],
      "name": "transferFrom",
      "outputs": [],
      "stateMutability": "nonpayable",
      "type": "function"
    },
    {
      "inputs": [
        {
          "internalType": "address",
          "name": "newOwner",
          "type": "address"
        }
      ],
      "name": "transferOwnership",
      "outputs": [],
      "stateMutability": "nonpayable",
      "type": "function"
    }
  ],
  "bytecode": "0x60806040523480156200001157600080fd5b50336040518060400160405280601381526020017f4b4155532041757468656e7469636174696f6e00000000000000000000000000815250604051806040016040528060048152602001634b41555360e01b8152508160009081620000779190620001d5565b506001620000868282620001d5565b5050506001600160a01b038116620000b857604051631e4fbdf760e01b81526000600482015260240160405180910390fd5b620000c381620000de565b5060016008819055600b805460ff19169091179055620002a1565b600780546001600160a01b038381166001600160a01b0319831681179093556040519116919082907f8be0079c531659141344cd1fd0a4f28419497f9722a3daafe3b4186f6b6457e090600090a35050565b634e487b7160e01b600052604160045260246000fd5b600181811c908216806200015b57607f821691505b6020821081036200017c57634e487b7160e01b600052602260045260246000fd5b50919050565b601f821115620001d057600081815260208120601f850160051c81016020861015620001ab5750805b601f850160051c820191505b81811015620001cc57828155600101620001b7565b5050505b505050565b81516001600160401b03811115620001f157620001f162000130565b620002098162000202845462000146565b8462000182565b602080601f831160018114620002415760008415620002285750858301515b600019600386901b1c1916600185901b178555620001cc565b600085815260208120601f198616915b82811015620002725788860151825594840194600190910190840162000251565b5085821015620002915787850151600019600388901b60f8161c191681555b5050505050600190811b01905550565b61236f80620002b16000396000f3fe608060405234801561001057600080fd5b50600436106101c45760003560e01c8063715018a6116100f9578063b88d4fde11610097578063e985e9c511610071578063e985e9c5146103cf578063ec31fee8146103e2578063f2fde38b14610402578063f7eca6d01461041557600080fd5b8063b88d4fde14610396578063c87b56dd146103a9578063cfbd4885146103bc57600080fd5b806395d89b41116100d357806395d89b41146103455780639da4b29d1461034d578063a22cb46514610360578063aa2fe91b1461037357600080fd5b8063715018a614610319578063785f8ee3146103215780638da5cb5b1461033457600080fd5b806323b872dd1161016657806342842e0e1161014057806342842e0e146102cd5780636352211e146102e05780636ec7e0b2146102f357806370a082311461030657600080fd5b806323b872dd1461028257806339aeccc0146102955780634199e028146102ba57600080fd5b8063095ea7b3116101a2578063095ea7b3146102315780630c9848321461024657806318160ddd146102595780631cd78d121461026f57600080fd5b806301ffc9a7146101c957806306fdde03146101f1578063081812fc14610206575b600080fd5b6101dc6101d7366004611bd9565b610422565b60405190151581526020015b60405180910390f35b6101f9610433565b6040516101e89190611c46565b610219610214366004611c59565b6104c5565b6040516001600160a01b0390911681526020016101e8565b61024461023f366004611c8e565b6104ee565b005b610244610254366004611cb8565b6104fd565b6102616105a5565b6040519081526020016101e8565b6101dc61027d366004611c59565b6105bb565b610244610290366004611cd3565b610608565b6102a86102a3366004611c59565b610693565b6040516101e896959493929190611d0f565b6102446102c8366004611d87565b6108eb565b6102446102db366004611cd3565b61093a565b6102196102ee366004611c59565b61095a565b610261610301366004611e4e565b610965565b610261610314366004611cb8565b610c8b565b610244610cd3565b6101dc61032f366004611cb8565b610ce7565b6007546001600160a01b0316610219565b6101f9610cfa565b61024461035b366004611c59565b610d09565b61024461036e366004611f2f565b610d88565b6101dc610381366004611cb8565b600a6020526000908152604090205460ff1681565b6102446103a4366004611f62565b610d93565b6101f96103b7366004611c59565b610dab565b6102446103ca366004611cb8565b610db6565b6101dc6103dd366004611fde565b610e07565b6103f56103f0366004611c59565b610e35565b6040516101e89190612008565b610244610410366004611cb8565b611124565b600b546101dc9060ff1681565b600061042d82611162565b92915050565b606060008054610442906120a0565b80601f016020809104026020016040519081016040528092919081815260200182805461046e906120a0565b80156104bb5780601f10610490576101008083540402835291602001916104bb565b820191906000526020600020905b81548152906001019060200180831161049e57829003601f168201915b5050505050905090565b60006104d082611187565b506000828152600460205260409020546001600160a01b031661042d565b6104f98282336111c0565b5050565b6105056111cd565b6001600160a01b0381166105595760405162461bcd60e51b8152602060048201526016602482015275496e76616c6964206d696e746572206164647265737360501b60448201526064015b60405180910390fd5b6001600160a01b0381166000818152600a6020526040808220805460ff19166001179055517f83b05b6735acd4b85e3bded8e72c851d1a87718f81e3c8e6f0c9d9a2baa88e469190a250565b600060016008546105b691906120f0565b905090565b6000818152600260205260408120546001600160a01b03166105ef5760405162461bcd60e51b815260040161055090612103565b5060009081526009602052604090206005015460ff1690565b6001600160a01b03821661063257604051633250574960e11b815260006004820152602401610550565b600061063f8383336111fa565b9050836001600160a01b0316816001600160a01b03161461068d576040516364283d7b60e01b81526001600160a01b0380861660048301526024820184905282166044820152606401610550565b50505050565b6009602052600090815260409020805481906106ae906120a0565b80601f01602080910402602001604051908101604052809291908181526020018280546106da906120a0565b80156107275780601f106106fc57610100808354040283529160200191610727565b820191906000526020600020905b81548152906001019060200180831161070a57829003601f168201915b50505050509080600101805461073c906120a0565b80601f0160208091040260200160405190810160405280929190818152602001828054610768906120a0565b80156107b55780601f1061078a576101008083540402835291602001916107b5565b820191906000526020600020905b81548152906001019060200180831161079857829003601f168201915b5050505050908060020180546107ca906120a0565b80601f01602080910402602001604051908101604052809291908181526020018280546107f6906120a0565b80156108435780601f1061081857610100808354040283529160200191610843565b820191906000526020600020905b81548152906001019060200180831161082657829003601f168201915b505050505090806003018054610858906120a0565b80601f0160208091040260200160405190810160405280929190818152602001828054610884906120a0565b80156108d15780601f106108a6576101008083540402835291602001916108d1565b820191906000526020600020905b8154815290600101906020018083116108b457829003601f168201915b50505050600483015460059093015491929160ff16905086565b6108f36111cd565b600b805460ff19168215159081179091556040519081527f6135f58676f4d19576a902a5cf24a95b19e08c622ee5717ed84e49f16883350b9060200160405180910390a150565b61095583838360405180602001604052806000815250610d93565b505050565b600061042d82611187565b60006109796007546001600160a01b031690565b6001600160a01b0316336001600160a01b031614806109a75750336000908152600a602052604090205460ff165b6109ec5760405162461bcd60e51b8152602060048201526016602482015275139bdd08185d5d1a1bdc9a5e9959081d1bc81b5a5b9d60521b6044820152606401610550565b6001600160a01b038716610a425760405162461bcd60e51b815260206004820152601960248201527f496e76616c696420726563697069656e742061646472657373000000000000006044820152606401610550565b6000865111610a895760405162461bcd60e51b8152602060048201526013602482015272141c9bd91d58dd081251081c995c5d5a5c9959606a1b6044820152606401610550565b6000855111610ace5760405162461bcd60e51b815260206004820152601160248201527013dc99195c881251081c995c5d5a5c9959607a1b6044820152606401610550565b6000845111610b105760405162461bcd60e51b815260206004820152600e60248201526d109c985b99081c995c5d5a5c995960921b6044820152606401610550565b6000835111610b595760405162461bcd60e51b8152602060048201526015602482015274141c9bd91d58dd081b985b59481c995c5d5a5c9959605a1b6044820152606401610550565b6008805460009182610b6a83612131565b919050559050610b7a88826112b9565b610b8481846112d3565b6040805160c081018252888152602080820189905281830188905260608201879052426080830152600160a0830152600084815260099091529190912081518190610bcf9082612190565b5060208201516001820190610be49082612190565b5060408201516002820190610bf99082612190565b5060608201516003820190610c0e9082612190565b506080820151600482015560a0909101516005909101805460ff19169115159190911790556040516001600160a01b0389169082907fc1cbf7bc6e737ebe385b06d5ad3b6a285542d5970f22d2dfd622c889b221165390610c78908b908b908b908b904290612250565b60405180910390a3979650505050505050565b60006001600160a01b038216610cb7576040516322718ad960e21b815260006004820152602401610550565b506001600160a01b031660009081526003602052604090205490565b610cdb6111cd565b610ce56000611323565b565b600080610cf383610c8b565b1192915050565b606060018054610442906120a0565b610d116111cd565b6000818152600260205260409020546001600160a01b0316610d455760405162461bcd60e51b815260040161055090612103565b600081815260096020526040808220600501805460ff191690555182917fbc25ed1a99d00fa09a882895fed76e6c6d8e32bdd76fd238521fa4d36247a3ba91a250565b6104f9338383611375565b610d9e848484610608565b61068d3385858585611414565b606061042d8261153f565b610dbe6111cd565b6001600160a01b0381166000818152600a6020526040808220805460ff19169055517f44f4322f8daa225d5f4877ad0f7d3dfba248a774396f3ca99405ed40a044fe819190a250565b6001600160a01b03918216600090815260056020908152604080832093909416825291909152205460ff1690565b610e706040518060c0016040528060608152602001606081526020016060815260200160608152602001600081526020016000151581525090565b6000828152600260205260409020546001600160a01b0316610ea45760405162461bcd60e51b815260040161055090612103565b60008281526009602052604090819020815160c08101909252805482908290610ecc906120a0565b80601f0160208091040260200160405190810160405280929190818152602001828054610ef8906120a0565b8015610f455780601f10610f1a57610100808354040283529160200191610f45565b820191906000526020600020905b815481529060010190602001808311610f2857829003601f168201915b50505050508152602001600182018054610f5e906120a0565b80601f0160208091040260200160405190810160405280929190818152602001828054610f8a906120a0565b8015610fd75780601f10610fac57610100808354040283529160200191610fd7565b820191906000526020600020905b815481529060010190602001808311610fba57829003601f168201915b50505050508152602001600282018054610ff0906120a0565b80601f016020809104026020016040519081016040528092919081815260200182805461101c906120a0565b80156110695780601f1061103e57610100808354040283529160200191611069565b820191906000526020600020905b81548152906001019060200180831161104c57829003601f168201915b50505050508152602001600382018054611082906120a0565b80601f01602080910402602001604051908101604052809291908181526020018280546110ae906120a0565b80156110fb5780601f106110d0576101008083540402835291602001916110fb565b820191906000526020600020905b8154815290600101906020018083116110de57829003601f168201915b50505091835250506004820154602082015260059091015460ff16151560409091015292915050565b61112c6111cd565b6001600160a01b03811661115657604051631e4fbdf760e01b815260006004820152602401610550565b61115f81611323565b50565b60006001600160e01b03198216632483248360e11b148061042d575061042d82611650565b6000818152600260205260408120546001600160a01b03168061042d57604051637e27328960e01b815260048101849052602401610550565b61095583838360016116a0565b6007546001600160a01b03163314610ce55760405163118cdaa760e01b8152336004820152602401610550565b600082815260026020526040812054600b546001600160a01b039091169060ff16801561122f57506001600160a01b03811615155b801561124357506001600160a01b03851615155b156112a55760405162461bcd60e51b815260206004820152602c60248201527f546f6b656e20697320736f756c626f756e6420616e642063616e6e6f7420626560448201526b081d1c985b9cd9995c9c995960a21b6064820152608401610550565b6112b08585856117a6565b95945050505050565b6104f982826040518060200160405280600081525061189f565b60008281526006602052604090206112eb8282612190565b506040518281527ff8e1a15aba9398e019f0b49df1a4fde98ee17ae345cb5f6b5e2c27f5033e8ce79060200160405180910390a15050565b600780546001600160a01b038381166001600160a01b0319831681179093556040519116919082907f8be0079c531659141344cd1fd0a4f28419497f9722a3daafe3b4186f6b6457e090600090a35050565b6001600160a01b0382166113a757604051630b61174360e31b81526001600160a01b0383166004820152602401610550565b6001600160a01b03838116600081815260056020908152604080832094871680845294825291829020805460ff191686151590811790915591519182527f17307eab39ab6107e8899845ad3d59bd9653f200f220920489ca2b5937696c31910160405180910390a3505050565b6001600160a01b0383163b1561153857604051630a85bd0160e11b81526001600160a01b0384169063150b7a02906114569088908890879087906004016122b0565b6020604051808303816000875af1925050508015611491575060408051601f3d908101601f1916820190925261148e918101906122ed565b60015b6114fa573d8080156114bf576040519150601f19603f3d011682016040523d82523d6000602084013e6114c4565b606091505b5080516000036114f257604051633250574960e11b81526001600160a01b0385166004820152602401610550565b805160208201fd5b6001600160e01b03198116630a85bd0160e11b1461153657604051633250574960e11b81526001600160a01b0385166004820152602401610550565b505b5050505050565b606061154a82611187565b5060008281526006602052604081208054611564906120a0565b80601f0160208091040260200160405190810160405280929190818152602001828054611590906120a0565b80156115dd5780601f106115b2576101008083540402835291602001916115dd565b820191906000526020600020905b8154815290600101906020018083116115c057829003601f168201915b5050505050905060006115fb60408051602081019091526000815290565b9050805160000361160d575092915050565b81511561163f57808260405160200161162792919061230a565b60405160208183030381529060405292505050919050565b611648846118b7565b949350505050565b60006001600160e01b031982166380ac58cd60e01b148061168157506001600160e01b03198216635b5e139f60e01b145b8061042d57506301ffc9a760e01b6001600160e01b031983161461042d565b80806116b457506001600160a01b03821615155b156117765760006116c484611187565b90506001600160a01b038316158015906116f05750826001600160a01b0316816001600160a01b031614155b801561170357506117018184610e07565b155b1561172c5760405163a9fbf51f60e01b81526001600160a01b0384166004820152602401610550565b81156117745783856001600160a01b0316826001600160a01b03167f8c5be1e5ebec7d5bd14f71427d1e84f3dd0314c0f7b2291e5b200ac8c7c3b92560405160405180910390a45b505b5050600090815260046020526040902080546001600160a01b0319166001600160a01b0392909216919091179055565b6000828152600260205260408120546001600160a01b03908116908316156117d3576117d381848661192c565b6001600160a01b03811615611811576117f06000856000806116a0565b6001600160a01b038116600090815260036020526040902080546000190190555b6001600160a01b03851615611840576001600160a01b0385166000908152600360205260409020805460010190555b60008481526002602052604080822080546001600160a01b0319166001600160a01b0389811691821790925591518793918516917fddf252ad1be2c89b69c2b068fc378daa952ba7f163c4a11628f55a4df523b3ef91a4949350505050565b6118a98383611990565b610955336000858585611414565b60606118c282611187565b5060006118da60408051602081019091526000815290565b905060008151116118fa5760405180602001604052806000815250611925565b80611904846119f5565b60405160200161191592919061230a565b6040516020818303038152906040525b9392505050565b611937838383611a88565b610955576001600160a01b03831661196557604051637e27328960e01b815260048101829052602401610550565b60405163177e802f60e01b81526001600160a01b038316600482015260248101829052604401610550565b6001600160a01b0382166119ba57604051633250574960e11b815260006004820152602401610550565b60006119c8838360006111fa565b90506001600160a01b03811615610955576040516339e3563760e11b815260006004820152602401610550565b60606000611a0283611aeb565b600101905060008167ffffffffffffffff811115611a2257611a22611da2565b6040519080825280601f01601f191660200182016040528015611a4c576020820181803683370190505b5090508181016020015b600019016f181899199a1a9b1b9c1cb0b131b232b360811b600a86061a8153600a8504945084611a5657509392505050565b60006001600160a01b038316158015906116485750826001600160a01b0316846001600160a01b03161480611ac25750611ac28484610e07565b806116485750506000908152600460205260409020546001600160a01b03908116911614919050565b60008072184f03e93ff9f4daa797ed6e38ed64bf6a1f0160401b8310611b2a5772184f03e93ff9f4daa797ed6e38ed64bf6a1f0160401b830492506040015b6d04ee2d6d415b85acef81000000008310611b56576d04ee2d6d415b85acef8100000000830492506020015b662386f26fc100008310611b7457662386f26fc10000830492506010015b6305f5e1008310611b8c576305f5e100830492506008015b6127108310611ba057612710830492506004015b60648310611bb2576064830492506002015b600a831061042d5760010192915050565b6001600160e01b03198116811461115f57600080fd5b600060208284031215611beb57600080fd5b813561192581611bc3565b60005b83811015611c11578181015183820152602001611bf9565b50506000910152565b60008151808452611c32816020860160208601611bf6565b601f01601f19169290920160200192915050565b6020815260006119256020830184611c1a565b600060208284031215611c6b57600080fd5b5035919050565b80356001600160a01b0381168114611c8957600080fd5b919050565b60008060408385031215611ca157600080fd5b611caa83611c72565b946020939093013593505050565b600060208284031215611cca57600080fd5b61192582611c72565b600080600060608486031215611ce857600080fd5b611cf184611c72565b9250611cff60208501611c72565b9150604084013590509250925092565b60c081526000611d2260c0830189611c1a565b8281036020840152611d348189611c1a565b90508281036040840152611d488188611c1a565b90508281036060840152611d5c8187611c1a565b6080840195909552505090151560a090910152949350505050565b80358015158114611c8957600080fd5b600060208284031215611d9957600080fd5b61192582611d77565b634e487b7160e01b600052604160045260246000fd5b600067ffffffffffffffff80841115611dd357611dd3611da2565b604051601f8501601f19908116603f01168101908282118183101715611dfb57611dfb611da2565b81604052809350858152868686011115611e1457600080fd5b858560208301376000602087830101525050509392505050565b600082601f830112611e3f57600080fd5b61192583833560208501611db8565b60008060008060008060c08789031215611e6757600080fd5b611e7087611c72565b9550602087013567ffffffffffffffff80821115611e8d57600080fd5b611e998a838b01611e2e565b96506040890135915080821115611eaf57600080fd5b611ebb8a838b01611e2e565b95506060890135915080821115611ed157600080fd5b611edd8a838b01611e2e565b94506080890135915080821115611ef357600080fd5b611eff8a838b01611e2e565b935060a0890135915080821115611f1557600080fd5b50611f2289828a01611e2e565b9150509295509295509295565b60008060408385031215611f4257600080fd5b611f4b83611c72565b9150611f5960208401611d77565b90509250929050565b60008060008060808587031215611f7857600080fd5b611f8185611c72565b9350611f8f60208601611c72565b925060408501359150606085013567ffffffffffffffff811115611fb257600080fd5b8501601f81018713611fc357600080fd5b611fd287823560208401611db8565b91505092959194509250565b60008060408385031215611ff157600080fd5b611ffa83611c72565b9150611f5960208401611c72565b602081526000825160c0602084015261202460e0840182611c1a565b90506020840151601f19808584030160408601526120428383611c1a565b9250604086015191508085840301606086015261205f8383611c1a565b925060608601519150808584030160808601525061207d8282611c1a565b915050608084015160a084015260a0840151151560c08401528091505092915050565b600181811c908216806120b457607f821691505b6020821081036120d457634e487b7160e01b600052602260045260246000fd5b50919050565b634e487b7160e01b600052601160045260246000fd5b8181038181111561042d5761042d6120da565b602080825260149082015273151bdad95b88191bd95cc81b9bdd08195e1a5cdd60621b604082015260600190565b600060018201612143576121436120da565b5060010190565b601f82111561095557600081815260208120601f850160051c810160208610156121715750805b601f850160051c820191505b818110156115365782815560010161217d565b815167ffffffffffffffff8111156121aa576121aa611da2565b6121be816121b884546120a0565b8461214a565b602080601f8311600181146121f357600084156121db5750858301515b600019600386901b1c1916600185901b178555611536565b600085815260208120601f198616915b8281101561222257888601518255948401946001909101908401612203565b50858210156122405787850151600019600388901b60f8161c191681555b5050505050600190811b01905550565b60a08152600061226360a0830188611c1a565b82810360208401526122758188611c1a565b905082810360408401526122898187611c1a565b9050828103606084015261229d8186611c1a565b9150508260808301529695505050505050565b6001600160a01b03858116825284166020820152604081018390526080606082018190526000906122e390830184611c1a565b9695505050505050565b6000602082840312156122ff57600080fd5b815161192581611bc3565b6000835161231c818460208801611bf6565b835190830190612330818360208801611bf6565b0194935050505056fea26469706673582212206d4435a4b84b764d0ff8c76b9c20fec39d182887a25ab65a4ec4192bf7e66a4c64736f6c63430008140033",
  "linkReferences": {},
  "deployedLinkReferences": {}
}